{
  "contracts/HathorFederation.sol": {
    "HathorFederation": {
      "abi": [
        {
          "inputs": [
            {
              "internalType": "address[]",
              "name": "_members",
              "type": "address[]"
            },
            {
              "internalType": "address",
              "name": "owner",
              "type": "address"
            }
          ],
          "stateMutability": "nonpayable",
          "type": "constructor"
        },
        {
          "inputs": [
            {
              "internalType": "address",
              "name": "owner",
              "type": "address"
            }
          ],
          "name": "OwnableInvalidOwner",
          "type": "error"
        },
        {
          "inputs": [
            {
              "internalType": "address",
              "name": "account",
              "type": "address"
            }
          ],
          "name": "OwnableUnauthorizedAccount",
          "type": "error"
        },
        {
          "anonymous": false,
          "inputs": [
            {
              "indexed": true,
              "internalType": "address",
              "name": "member",
              "type": "address"
            }
          ],
          "name": "MemberAddition",
          "type": "event"
        },
        {
          "anonymous": false,
          "inputs": [
            {
              "indexed": true,
              "internalType": "address",
              "name": "member",
              "type": "address"
            }
          ],
          "name": "MemberRemoval",
          "type": "event"
        },
        {
          "anonymous": false,
          "inputs": [
            {
              "indexed": true,
              "internalType": "address",
              "name": "previousOwner",
              "type": "address"
            },
            {
              "indexed": true,
              "internalType": "address",
              "name": "newOwner",
              "type": "address"
            }
          ],
          "name": "OwnershipTransferred",
          "type": "event"
        },
        {
          "anonymous": false,
          "inputs": [
            {
              "indexed": false,
              "internalType": "bytes32",
              "name": "originalTokenAddress",
              "type": "bytes32"
            },
            {
              "indexed": false,
              "internalType": "bytes32",
              "name": "transactionHash",
              "type": "bytes32"
            },
            {
              "indexed": false,
              "internalType": "uint256",
              "name": "value",
              "type": "uint256"
            },
            {
              "indexed": false,
              "internalType": "bytes32",
              "name": "sender",
              "type": "bytes32"
            },
            {
              "indexed": false,
              "internalType": "bytes32",
              "name": "receiver",
              "type": "bytes32"
            },
            {
              "indexed": false,
              "internalType": "enum HathorFederation.TransactionType",
              "name": "transactionType",
              "type": "uint8"
            },
            {
              "indexed": true,
              "internalType": "bytes32",
              "name": "transactionId",
              "type": "bytes32"
            },
            {
              "indexed": false,
              "internalType": "bool",
              "name": "processed",
              "type": "bool"
            },
            {
              "indexed": false,
              "internalType": "bytes32",
              "name": "hathorTxId",
              "type": "bytes32"
            }
          ],
          "name": "ProposalSent",
          "type": "event"
        },
        {
          "anonymous": false,
          "inputs": [
            {
              "indexed": false,
              "internalType": "bytes32",
              "name": "originalTokenAddress",
              "type": "bytes32"
            },
            {
              "indexed": false,
              "internalType": "bytes32",
              "name": "transactionHash",
              "type": "bytes32"
            },
            {
              "indexed": false,
              "internalType": "uint256",
              "name": "value",
              "type": "uint256"
            },
            {
              "indexed": false,
              "internalType": "bytes32",
              "name": "sender",
              "type": "bytes32"
            },
            {
              "indexed": false,
              "internalType": "bytes32",
              "name": "receiver",
              "type": "bytes32"
            },
            {
              "indexed": false,
              "internalType": "enum HathorFederation.TransactionType",
              "name": "transactionType",
              "type": "uint8"
            },
            {
              "indexed": true,
              "internalType": "bytes32",
              "name": "transactionId",
              "type": "bytes32"
            },
            {
              "indexed": true,
              "internalType": "address",
              "name": "member",
              "type": "address"
            },
            {
              "indexed": false,
              "internalType": "bool",
              "name": "signed",
              "type": "bool"
            },
            {
              "indexed": false,
              "internalType": "bytes",
              "name": "signature",
              "type": "bytes"
            }
          ],
          "name": "ProposalSigned",
          "type": "event"
        },
        {
          "anonymous": false,
          "inputs": [
            {
              "indexed": true,
              "internalType": "bytes32",
              "name": "transactionId",
              "type": "bytes32"
            },
            {
              "indexed": false,
              "internalType": "address",
              "name": "member",
              "type": "address"
            }
          ],
          "name": "SignaturaFailed",
          "type": "event"
        },
        {
          "anonymous": false,
          "inputs": [
            {
              "indexed": true,
              "internalType": "bytes32",
              "name": "transactionId",
              "type": "bytes32"
            }
          ],
          "name": "TransactionFailed",
          "type": "event"
        },
        {
          "anonymous": false,
          "inputs": [
            {
              "indexed": false,
              "internalType": "bytes32",
              "name": "originalTokenAddress",
              "type": "bytes32"
            },
            {
              "indexed": false,
              "internalType": "bytes32",
              "name": "transactionHash",
              "type": "bytes32"
            },
            {
              "indexed": false,
              "internalType": "uint256",
              "name": "value",
              "type": "uint256"
            },
            {
              "indexed": false,
              "internalType": "bytes32",
              "name": "sender",
              "type": "bytes32"
            },
            {
              "indexed": false,
              "internalType": "bytes32",
              "name": "receiver",
              "type": "bytes32"
            },
            {
              "indexed": false,
              "internalType": "enum HathorFederation.TransactionType",
              "name": "transactionType",
              "type": "uint8"
            },
            {
              "indexed": false,
              "internalType": "bytes32",
              "name": "transactionId",
              "type": "bytes32"
            },
            {
              "indexed": false,
              "internalType": "bytes",
              "name": "txHex",
              "type": "bytes"
            }
          ],
          "name": "TransactionProposed",
          "type": "event"
        },
        {
          "inputs": [],
          "name": "MAX_MEMBER_COUNT",
          "outputs": [
            {
              "internalType": "uint256",
              "name": "",
              "type": "uint256"
            }
          ],
          "stateMutability": "view",
          "type": "function"
        },
        {
          "inputs": [
            {
              "internalType": "address",
              "name": "_newMember",
              "type": "address"
            }
          ],
          "name": "addMember",
          "outputs": [],
          "stateMutability": "nonpayable",
          "type": "function"
        },
        {
          "inputs": [],
          "name": "getMembers",
          "outputs": [
            {
              "internalType": "address[]",
              "name": "",
              "type": "address[]"
            }
          ],
          "stateMutability": "view",
          "type": "function"
        },
        {
          "inputs": [
            {
              "internalType": "bytes32",
              "name": "transactionId",
              "type": "bytes32"
            }
          ],
          "name": "getSignatureCount",
          "outputs": [
            {
              "internalType": "uint256",
              "name": "",
              "type": "uint256"
            }
          ],
          "stateMutability": "view",
          "type": "function"
        },
        {
          "inputs": [
            {
              "internalType": "bytes32",
              "name": "originalTokenAddress",
              "type": "bytes32"
            },
            {
              "internalType": "bytes32",
              "name": "transactionHash",
              "type": "bytes32"
            },
            {
              "internalType": "uint256",
              "name": "value",
              "type": "uint256"
            },
            {
              "internalType": "bytes32",
              "name": "sender",
              "type": "bytes32"
            },
            {
              "internalType": "bytes32",
              "name": "receiver",
              "type": "bytes32"
            },
            {
              "internalType": "enum HathorFederation.TransactionType",
              "name": "transactionType",
              "type": "uint8"
            }
          ],
          "name": "getTransactionId",
          "outputs": [
            {
              "internalType": "bytes32",
              "name": "",
              "type": "bytes32"
            }
          ],
          "stateMutability": "pure",
          "type": "function"
        },
        {
          "inputs": [
            {
              "internalType": "address",
              "name": "",
              "type": "address"
            }
          ],
          "name": "isMember",
          "outputs": [
            {
              "internalType": "bool",
              "name": "",
              "type": "bool"
            }
          ],
          "stateMutability": "view",
          "type": "function"
        },
        {
          "inputs": [
            {
              "internalType": "bytes32",
              "name": "",
              "type": "bytes32"
            }
          ],
          "name": "isProcessed",
          "outputs": [
            {
              "internalType": "bool",
              "name": "",
              "type": "bool"
            }
          ],
          "stateMutability": "view",
          "type": "function"
        },
        {
          "inputs": [
            {
              "internalType": "bytes32",
              "name": "",
              "type": "bytes32"
            }
          ],
          "name": "isProposed",
          "outputs": [
            {
              "internalType": "bool",
              "name": "",
              "type": "bool"
            }
          ],
          "stateMutability": "view",
          "type": "function"
        },
        {
          "inputs": [
            {
              "internalType": "bytes32",
              "name": "",
              "type": "bytes32"
            },
            {
              "internalType": "address",
              "name": "",
              "type": "address"
            }
          ],
          "name": "isSigned",
          "outputs": [
            {
              "internalType": "bool",
              "name": "",
              "type": "bool"
            }
          ],
          "stateMutability": "view",
          "type": "function"
        },
        {
          "inputs": [
            {
              "internalType": "uint256",
              "name": "",
              "type": "uint256"
            }
          ],
          "name": "members",
          "outputs": [
            {
              "internalType": "address",
              "name": "",
              "type": "address"
            }
          ],
          "stateMutability": "view",
          "type": "function"
        },
        {
          "inputs": [],
          "name": "owner",
          "outputs": [
            {
              "internalType": "address",
              "name": "",
              "type": "address"
            }
          ],
          "stateMutability": "view",
          "type": "function"
        },
        {
          "inputs": [
            {
              "internalType": "address",
              "name": "_oldMember",
              "type": "address"
            }
          ],
          "name": "removeMember",
          "outputs": [],
          "stateMutability": "nonpayable",
          "type": "function"
        },
        {
          "inputs": [],
          "name": "renounceOwnership",
          "outputs": [],
          "stateMutability": "nonpayable",
          "type": "function"
        },
        {
          "inputs": [
            {
              "internalType": "bytes32",
              "name": "originalTokenAddress",
              "type": "bytes32"
            },
            {
              "internalType": "bytes32",
              "name": "transactionHash",
              "type": "bytes32"
            },
            {
              "internalType": "uint256",
              "name": "value",
              "type": "uint256"
            },
            {
              "internalType": "bytes32",
              "name": "sender",
              "type": "bytes32"
            },
            {
              "internalType": "bytes32",
              "name": "receiver",
              "type": "bytes32"
            },
            {
              "internalType": "enum HathorFederation.TransactionType",
              "name": "transactionType",
              "type": "uint8"
            },
            {
              "internalType": "bytes",
              "name": "txHex",
              "type": "bytes"
            }
          ],
          "name": "sendTransactionProposal",
          "outputs": [],
          "stateMutability": "nonpayable",
          "type": "function"
        },
        {
          "inputs": [
            {
              "internalType": "bytes32",
              "name": "transactionId",
              "type": "bytes32"
            },
            {
              "internalType": "address",
              "name": "member",
              "type": "address"
            }
          ],
          "name": "setSignatureFailed",
          "outputs": [],
          "stateMutability": "nonpayable",
          "type": "function"
        },
        {
          "inputs": [
            {
              "internalType": "bytes32",
              "name": "transactionId",
              "type": "bytes32"
            }
          ],
          "name": "setTransactionFailed",
          "outputs": [],
          "stateMutability": "nonpayable",
          "type": "function"
        },
        {
          "inputs": [
            {
              "internalType": "bytes32",
              "name": "",
              "type": "bytes32"
            }
          ],
          "name": "transactionHex",
          "outputs": [
            {
              "internalType": "bytes",
              "name": "",
              "type": "bytes"
            }
          ],
          "stateMutability": "view",
          "type": "function"
        },
        {
          "inputs": [
            {
              "internalType": "bytes32",
              "name": "",
              "type": "bytes32"
            },
            {
              "internalType": "uint256",
              "name": "",
              "type": "uint256"
            }
          ],
          "name": "transactionSignatures",
          "outputs": [
            {
              "internalType": "bytes",
              "name": "signature",
              "type": "bytes"
            }
          ],
          "stateMutability": "view",
          "type": "function"
        },
        {
          "inputs": [
            {
              "internalType": "address",
              "name": "newOwner",
              "type": "address"
            }
          ],
          "name": "transferOwnership",
          "outputs": [],
          "stateMutability": "nonpayable",
          "type": "function"
        },
        {
          "inputs": [
            {
              "internalType": "bytes32",
              "name": "originalTokenAddress",
              "type": "bytes32"
            },
            {
              "internalType": "bytes32",
              "name": "transactionHash",
              "type": "bytes32"
            },
            {
              "internalType": "uint256",
              "name": "value",
              "type": "uint256"
            },
            {
              "internalType": "bytes32",
              "name": "sender",
              "type": "bytes32"
            },
            {
              "internalType": "bytes32",
              "name": "receiver",
              "type": "bytes32"
            },
            {
              "internalType": "enum HathorFederation.TransactionType",
              "name": "transactionType",
              "type": "uint8"
            },
            {
              "internalType": "bytes",
              "name": "signature",
              "type": "bytes"
            },
            {
              "internalType": "bool",
              "name": "signed",
              "type": "bool"
            }
          ],
          "name": "updateSignatureState",
          "outputs": [],
          "stateMutability": "nonpayable",
          "type": "function"
        },
        {
          "inputs": [
            {
              "internalType": "bytes32",
              "name": "originalTokenAddress",
              "type": "bytes32"
            },
            {
              "internalType": "bytes32",
              "name": "transactionHash",
              "type": "bytes32"
            },
            {
              "internalType": "uint256",
              "name": "value",
              "type": "uint256"
            },
            {
              "internalType": "bytes32",
              "name": "sender",
              "type": "bytes32"
            },
            {
              "internalType": "bytes32",
              "name": "receiver",
              "type": "bytes32"
            },
            {
              "internalType": "enum HathorFederation.TransactionType",
              "name": "transactionType",
              "type": "uint8"
            },
            {
              "internalType": "bool",
              "name": "sent",
              "type": "bool"
            },
            {
              "internalType": "bytes32",
              "name": "hathorTxId",
              "type": "bytes32"
            }
          ],
          "name": "updateTransactionState",
          "outputs": [],
          "stateMutability": "nonpayable",
          "type": "function"
        }
      ],
      "evm": {
        "bytecode": {
          "linkReferences": {},
          "object": "60806040523480156200001157600080fd5b506040516200326f3803806200326f83398181016040528101906200003791906200067d565b80600073ffffffffffffffffffffffffffffffffffffffff168173ffffffffffffffffffffffffffffffffffffffff1603620000ad5760006040517f1e4fbdf7000000000000000000000000000000000000000000000000000000008152600401620000a49190620006f4565b60405180910390fd5b620000be816200031d60201b60201c565b5060328251111562000107576040517f08c379a0000000000000000000000000000000000000000000000000000000008152600401620000fe9062000798565b60405180910390fd5b81600190805190602001906200011f929190620003e1565b5060005b8251811015620003145760026000848381518110620001475762000146620007ba565b5b602002602001015173ffffffffffffffffffffffffffffffffffffffff1673ffffffffffffffffffffffffffffffffffffffff16815260200190815260200160002060009054906101000a900460ff16158015620001ef5750600073ffffffffffffffffffffffffffffffffffffffff16838281518110620001ce57620001cd620007ba565b5b602002602001015173ffffffffffffffffffffffffffffffffffffffff1614155b62000231576040517f08c379a000000000000000000000000000000000000000000000000000000000815260040162000228906200085f565b60405180910390fd5b6001600260008584815181106200024d576200024c620007ba565b5b602002602001015173ffffffffffffffffffffffffffffffffffffffff1673ffffffffffffffffffffffffffffffffffffffff16815260200190815260200160002060006101000a81548160ff021916908315150217905550828181518110620002bc57620002bb620007ba565b5b602002602001015173ffffffffffffffffffffffffffffffffffffffff167f72114e270de66b9d2710ecf140403e5e99b1574767d6a8197bdc8d807a46e7c760405160405180910390a2808060010191505062000123565b50505062000881565b60008060009054906101000a900473ffffffffffffffffffffffffffffffffffffffff169050816000806101000a81548173ffffffffffffffffffffffffffffffffffffffff021916908373ffffffffffffffffffffffffffffffffffffffff1602179055508173ffffffffffffffffffffffffffffffffffffffff168173ffffffffffffffffffffffffffffffffffffffff167f8be0079c531659141344cd1fd0a4f28419497f9722a3daafe3b4186f6b6457e060405160405180910390a35050565b8280548282559060005260206000209081019282156200045d579160200282015b828111156200045c5782518260006101000a81548173ffffffffffffffffffffffffffffffffffffffff021916908373ffffffffffffffffffffffffffffffffffffffff1602179055509160200191906001019062000402565b5b5090506200046c919062000470565b5090565b5b808211156200048b57600081600090555060010162000471565b5090565b6000604051905090565b600080fd5b600080fd5b600080fd5b6000601f19601f8301169050919050565b7f4e487b7100000000000000000000000000000000000000000000000000000000600052604160045260246000fd5b620004f382620004a8565b810181811067ffffffffffffffff82111715620005155762000514620004b9565b5b80604052505050565b60006200052a6200048f565b9050620005388282620004e8565b919050565b600067ffffffffffffffff8211156200055b576200055a620004b9565b5b602082029050602081019050919050565b600080fd5b600073ffffffffffffffffffffffffffffffffffffffff82169050919050565b60006200059e8262000571565b9050919050565b620005b08162000591565b8114620005bc57600080fd5b50565b600081519050620005d081620005a5565b92915050565b6000620005ed620005e7846200053d565b6200051e565b905080838252602082019050602084028301858111156200061357620006126200056c565b5b835b818110156200064057806200062b8882620005bf565b84526020840193505060208101905062000615565b5050509392505050565b600082601f830112620006625762000661620004a3565b5b815162000674848260208601620005d6565b91505092915050565b6000806040838503121562000697576200069662000499565b5b600083015167ffffffffffffffff811115620006b857620006b76200049e565b5b620006c6858286016200064a565b9250506020620006d985828601620005bf565b9150509250929050565b620006ee8162000591565b82525050565b60006020820190506200070b6000830184620006e3565b92915050565b600082825260208201905092915050565b7f486174686f7246656465726174696f6e3a20546f6f206d616e79206d656d626560008201527f7273000000000000000000000000000000000000000000000000000000000000602082015250565b60006200078060228362000711565b91506200078d8262000722565b604082019050919050565b60006020820190508181036000830152620007b38162000771565b9050919050565b7f4e487b7100000000000000000000000000000000000000000000000000000000600052603260045260246000fd5b7f486174686f7246656465726174696f6e3a20496e76616c6964206d656d62657260008201527f7300000000000000000000000000000000000000000000000000000000000000602082015250565b60006200084760218362000711565b91506200085482620007e9565b604082019050919050565b600060208201905081810360008301526200087a8162000838565b9050919050565b6129de80620008916000396000f3fe608060405234801561001057600080fd5b50600436106101375760003560e01c80639eab5253116100b8578063b6b272551161007c578063b6b2725514610374578063ca6d56dc14610390578063d4c1581d146103ac578063d5892635146103c8578063e831c6ae146103e4578063f2fde38b1461041457610137565b80639eab5253146102aa578063a230c524146102c8578063a2714bb5146102f8578063ae36e42d14610328578063b58d1cfb1461034457610137565b8063681fc921116100ff578063681fc92114610218578063715018a6146102365780637f8d61e01461024057806386f063a8146102705780638da5cb5b1461028c57610137565b80630b1ca49a1461013c57806311c16896146101585780631206b7a9146101885780632bbe96bc146101b85780635daf08ca146101e8575b600080fd5b610156600480360381019061015191906116bb565b610430565b005b610172600480360381019061016d919061171e565b6107a8565b60405161017f9190611766565b60405180910390f35b6101a2600480360381019061019d919061171e565b6107c8565b6040516101af9190611766565b60405180910390f35b6101d260048036038101906101cd919061171e565b6107e8565b6040516101df919061179a565b60405180910390f35b61020260048036038101906101fd91906117e1565b610808565b60405161020f919061181d565b60405180910390f35b610220610847565b60405161022d919061179a565b60405180910390f35b61023e61084c565b005b61025a60048036038101906102559190611838565b610860565b6040516102679190611766565b60405180910390f35b61028a6004803603810190610285919061171e565b61088f565b005b61029461091e565b6040516102a1919061181d565b60405180910390f35b6102b2610947565b6040516102bf9190611936565b60405180910390f35b6102e260048036038101906102dd91906116bb565b6109d5565b6040516102ef9190611766565b60405180910390f35b610312600480360381019061030d919061197d565b6109f5565b60405161031f9190611a19565b60405180910390f35b610342600480360381019061033d9190611b7a565b610a39565b005b61035e60048036038101906103599190611c38565b610c04565b60405161036b9190611cf7565b60405180910390f35b61038e60048036038101906103899190611838565b610cc3565b005b6103aa60048036038101906103a591906116bb565b610d70565b005b6103c660048036038101906103c19190611d45565b610f75565b005b6103e260048036038101906103dd9190611e17565b611225565b005b6103fe60048036038101906103f9919061171e565b6113d0565b60405161040b9190611cf7565b60405180910390f35b61042e600480360381019061042991906116bb565b611470565b005b6104386114f6565b600073ffffffffffffffffffffffffffffffffffffffff168173ffffffffffffffffffffffffffffffffffffffff16036104a7576040517f08c379a000000000000000000000000000000000000000000000000000000000815260040161049e90611f2a565b60405180910390fd5b600260008273ffffffffffffffffffffffffffffffffffffffff1673ffffffffffffffffffffffffffffffffffffffff16815260200190815260200160002060009054906101000a900460ff16610533576040517f08c379a000000000000000000000000000000000000000000000000000000000815260040161052a90611fbc565b60405180910390fd5b600180805490501161057a576040517f08c379a00000000000000000000000000000000000000000000000000000000081526004016105719061204e565b60405180910390fd5b6000600260008373ffffffffffffffffffffffffffffffffffffffff1673ffffffffffffffffffffffffffffffffffffffff16815260200190815260200160002060006101000a81548160ff02191690831515021790555060005b600180805490506105e6919061209d565b81101561071a578173ffffffffffffffffffffffffffffffffffffffff1660018281548110610618576106176120d1565b5b9060005260206000200160009054906101000a900473ffffffffffffffffffffffffffffffffffffffff1673ffffffffffffffffffffffffffffffffffffffff160361070d576001808080549050610670919061209d565b81548110610681576106806120d1565b5b9060005260206000200160009054906101000a900473ffffffffffffffffffffffffffffffffffffffff16600182815481106106c0576106bf6120d1565b5b9060005260206000200160006101000a81548173ffffffffffffffffffffffffffffffffffffffff021916908373ffffffffffffffffffffffffffffffffffffffff16021790555061071a565b80806001019150506105d5565b50600180548061072d5761072c612100565b5b6001900381819060005260206000200160006101000a81549073ffffffffffffffffffffffffffffffffffffffff021916905590558073ffffffffffffffffffffffffffffffffffffffff167f270bfc616dd36d5cb6b35aac93e6ef22b089c34e6f6ad6f0892797424840897b60405160405180910390a250565b60036020528060005260406000206000915054906101000a900460ff1681565b60046020528060005260406000206000915054906101000a900460ff1681565b600060066000838152602001908152602001600020805490509050919050565b6001818154811061081857600080fd5b906000526020600020016000915054906101000a900473ffffffffffffffffffffffffffffffffffffffff1681565b603281565b6108546114f6565b61085e600061157d565b565b60076020528160005260406000206020528060005260406000206000915091509054906101000a900460ff1681565b6108976114f6565b60006003600083815260200190815260200160002060006101000a81548160ff02191690831515021790555060006004600083815260200190815260200160002060006101000a81548160ff021916908315150217905550807e2c16bf885aa20d4765baeae86f8008f02f3f63d3209e397e0f0d872afcbaac60405160405180910390a250565b60008060009054906101000a900473ffffffffffffffffffffffffffffffffffffffff16905090565b606060018054806020026020016040519081016040528092919081815260200182805480156109cb57602002820191906000526020600020905b8160009054906101000a900473ffffffffffffffffffffffffffffffffffffffff1673ffffffffffffffffffffffffffffffffffffffff1681526020019060010190808311610981575b5050505050905090565b60026020528060005260406000206000915054906101000a900460ff1681565b600080878585888a87604051602001610a139695949392919061220f565b604051602081830303815290604052805190602001209050809150509695505050505050565b60026000610a45611641565b73ffffffffffffffffffffffffffffffffffffffff1673ffffffffffffffffffffffffffffffffffffffff16815260200190815260200160002060009054906101000a900460ff16610acc576040517f08c379a0000000000000000000000000000000000000000000000000000000008152600401610ac3906122cb565b60405180910390fd5b6000878585888a87604051602001610ae99695949392919061220f565b604051602081830303815290604052805190602001209050600015156004600083815260200190815260200160002060009054906101000a900460ff16151514610b68576040517f08c379a0000000000000000000000000000000000000000000000000000000008152600401610b5f9061235d565b60405180910390fd5b81600560008381526020019081526020016000209081610b889190612589565b5060016004600083815260200190815260200160002060006101000a81548160ff0219169083151502179055507fd2ca4d3c92aaa1163765164e7d78fa244e8d4a127e7785fe05976d2f158774188888888888888789604051610bf298979695949392919061266a565b60405180910390a15050505050505050565b60066020528160005260406000208181548110610c2057600080fd5b9060005260206000200160009150915050806000018054610c40906123ac565b80601f0160208091040260200160405190810160405280929190818152602001828054610c6c906123ac565b8015610cb95780601f10610c8e57610100808354040283529160200191610cb9565b820191906000526020600020905b815481529060010190602001808311610c9c57829003601f168201915b5050505050905081565b610ccb6114f6565b60006007600084815260200190815260200160002060008373ffffffffffffffffffffffffffffffffffffffff1673ffffffffffffffffffffffffffffffffffffffff16815260200190815260200160002060006101000a81548160ff021916908315150217905550817fd413d6ff4b1c2b25d152b1aa4952aa05c186945476d4bce9b8a86b599b01f31f82604051610d64919061181d565b60405180910390a25050565b610d786114f6565b600073ffffffffffffffffffffffffffffffffffffffff168173ffffffffffffffffffffffffffffffffffffffff1603610de7576040517f08c379a0000000000000000000000000000000000000000000000000000000008152600401610dde90611f2a565b60405180910390fd5b600260008273ffffffffffffffffffffffffffffffffffffffff1673ffffffffffffffffffffffffffffffffffffffff16815260200190815260200160002060009054906101000a900460ff1615610e74576040517f08c379a0000000000000000000000000000000000000000000000000000000008152600401610e6b90612761565b60405180910390fd5b6001600260008373ffffffffffffffffffffffffffffffffffffffff1673ffffffffffffffffffffffffffffffffffffffff16815260200190815260200160002060006101000a81548160ff0219169083151502179055506001819080600181540180825580915050600190039060005260206000200160009091909190916101000a81548173ffffffffffffffffffffffffffffffffffffffff021916908373ffffffffffffffffffffffffffffffffffffffff1602179055508073ffffffffffffffffffffffffffffffffffffffff167f72114e270de66b9d2710ecf140403e5e99b1574767d6a8197bdc8d807a46e7c760405160405180910390a250565b60026000610f81611641565b73ffffffffffffffffffffffffffffffffffffffff1673ffffffffffffffffffffffffffffffffffffffff16815260200190815260200160002060009054906101000a900460ff16611008576040517f08c379a0000000000000000000000000000000000000000000000000000000008152600401610fff906122cb565b60405180910390fd5b6000888686898b886040516020016110259695949392919061220f565b6040516020818303038152906040528051906020012090506000151560076000838152602001908152602001600020600061105e611641565b73ffffffffffffffffffffffffffffffffffffffff1673ffffffffffffffffffffffffffffffffffffffff16815260200190815260200160002060009054906101000a900460ff161515146110e8576040517f08c379a00000000000000000000000000000000000000000000000000000000081526004016110df906127f3565b60405180910390fd5b81600760008381526020019081526020016000206000611106611641565b73ffffffffffffffffffffffffffffffffffffffff1673ffffffffffffffffffffffffffffffffffffffff16815260200190815260200160002060006101000a81548160ff021916908315150217905550600660008281526020019081526020016000206040518060200160405280858152509080600181540180825580915050600190039060005260206000200160009091909190915060008201518160000190816111b39190612589565b5050506111be611641565b73ffffffffffffffffffffffffffffffffffffffff16817fce56c85627b49e4b4a8f108690c2337d73b5d804aafd560add629afad5ce21d78b8b8b8b8b8b8a8c604051611212989796959493929190612813565b60405180910390a3505050505050505050565b60026000611231611641565b73ffffffffffffffffffffffffffffffffffffffff1673ffffffffffffffffffffffffffffffffffffffff16815260200190815260200160002060009054906101000a900460ff166112b8576040517f08c379a00000000000000000000000000000000000000000000000000000000081526004016112af906122cb565b60405180910390fd5b6000888686898b886040516020016112d59695949392919061220f565b604051602081830303815290604052805190602001209050600015156003600083815260200190815260200160002060009054906101000a900460ff16151514611354576040517f08c379a000000000000000000000000000000000000000000000000000000000815260040161134b9061290a565b60405180910390fd5b826003600083815260200190815260200160002060006101000a81548160ff021916908315150217905550807ff75de4fdeaaecb51b4d0afd82a74214e4dd260a22cdcfc10e1ca5413c84f96fc8a8a8a8a8a8a8a8a6040516113bd98979695949392919061292a565b60405180910390a2505050505050505050565b600560205280600052604060002060009150905080546113ef906123ac565b80601f016020809104026020016040519081016040528092919081815260200182805461141b906123ac565b80156114685780601f1061143d57610100808354040283529160200191611468565b820191906000526020600020905b81548152906001019060200180831161144b57829003601f168201915b505050505081565b6114786114f6565b600073ffffffffffffffffffffffffffffffffffffffff168173ffffffffffffffffffffffffffffffffffffffff16036114ea5760006040517f1e4fbdf70000000000000000000000000000000000000000000000000000000081526004016114e1919061181d565b60405180910390fd5b6114f38161157d565b50565b6114fe611641565b73ffffffffffffffffffffffffffffffffffffffff1661151c61091e565b73ffffffffffffffffffffffffffffffffffffffff161461157b5761153f611641565b6040517f118cdaa7000000000000000000000000000000000000000000000000000000008152600401611572919061181d565b60405180910390fd5b565b60008060009054906101000a900473ffffffffffffffffffffffffffffffffffffffff169050816000806101000a81548173ffffffffffffffffffffffffffffffffffffffff021916908373ffffffffffffffffffffffffffffffffffffffff1602179055508173ffffffffffffffffffffffffffffffffffffffff168173ffffffffffffffffffffffffffffffffffffffff167f8be0079c531659141344cd1fd0a4f28419497f9722a3daafe3b4186f6b6457e060405160405180910390a35050565b600033905090565b6000604051905090565b600080fd5b600080fd5b600073ffffffffffffffffffffffffffffffffffffffff82169050919050565b60006116888261165d565b9050919050565b6116988161167d565b81146116a357600080fd5b50565b6000813590506116b58161168f565b92915050565b6000602082840312156116d1576116d0611653565b5b60006116df848285016116a6565b91505092915050565b6000819050919050565b6116fb816116e8565b811461170657600080fd5b50565b600081359050611718816116f2565b92915050565b60006020828403121561173457611733611653565b5b600061174284828501611709565b91505092915050565b60008115159050919050565b6117608161174b565b82525050565b600060208201905061177b6000830184611757565b92915050565b6000819050919050565b61179481611781565b82525050565b60006020820190506117af600083018461178b565b92915050565b6117be81611781565b81146117c957600080fd5b50565b6000813590506117db816117b5565b92915050565b6000602082840312156117f7576117f6611653565b5b6000611805848285016117cc565b91505092915050565b6118178161167d565b82525050565b6000602082019050611832600083018461180e565b92915050565b6000806040838503121561184f5761184e611653565b5b600061185d85828601611709565b925050602061186e858286016116a6565b9150509250929050565b600081519050919050565b600082825260208201905092915050565b6000819050602082019050919050565b6118ad8161167d565b82525050565b60006118bf83836118a4565b60208301905092915050565b6000602082019050919050565b60006118e382611878565b6118ed8185611883565b93506118f883611894565b8060005b8381101561192957815161191088826118b3565b975061191b836118cb565b9250506001810190506118fc565b5085935050505092915050565b6000602082019050818103600083015261195081846118d8565b905092915050565b6004811061196557600080fd5b50565b60008135905061197781611958565b92915050565b60008060008060008060c0878903121561199a57611999611653565b5b60006119a889828a01611709565b96505060206119b989828a01611709565b95505060406119ca89828a016117cc565b94505060606119db89828a01611709565b93505060806119ec89828a01611709565b92505060a06119fd89828a01611968565b9150509295509295509295565b611a13816116e8565b82525050565b6000602082019050611a2e6000830184611a0a565b92915050565b600080fd5b600080fd5b6000601f19601f8301169050919050565b7f4e487b7100000000000000000000000000000000000000000000000000000000600052604160045260246000fd5b611a8782611a3e565b810181811067ffffffffffffffff82111715611aa657611aa5611a4f565b5b80604052505050565b6000611ab9611649565b9050611ac58282611a7e565b919050565b600067ffffffffffffffff821115611ae557611ae4611a4f565b5b611aee82611a3e565b9050602081019050919050565b82818337600083830152505050565b6000611b1d611b1884611aca565b611aaf565b905082815260208101848484011115611b3957611b38611a39565b5b611b44848285611afb565b509392505050565b600082601f830112611b6157611b60611a34565b5b8135611b71848260208601611b0a565b91505092915050565b600080600080600080600060e0888a031215611b9957611b98611653565b5b6000611ba78a828b01611709565b9750506020611bb88a828b01611709565b9650506040611bc98a828b016117cc565b9550506060611bda8a828b01611709565b9450506080611beb8a828b01611709565b93505060a0611bfc8a828b01611968565b92505060c088013567ffffffffffffffff811115611c1d57611c1c611658565b5b611c298a828b01611b4c565b91505092959891949750929550565b60008060408385031215611c4f57611c4e611653565b5b6000611c5d85828601611709565b9250506020611c6e858286016117cc565b9150509250929050565b600081519050919050565b600082825260208201905092915050565b60005b83811015611cb2578082015181840152602081019050611c97565b60008484015250505050565b6000611cc982611c78565b611cd38185611c83565b9350611ce3818560208601611c94565b611cec81611a3e565b840191505092915050565b60006020820190508181036000830152611d118184611cbe565b905092915050565b611d228161174b565b8114611d2d57600080fd5b50565b600081359050611d3f81611d19565b92915050565b600080600080600080600080610100898b031215611d6657611d65611653565b5b6000611d748b828c01611709565b9850506020611d858b828c01611709565b9750506040611d968b828c016117cc565b9650506060611da78b828c01611709565b9550506080611db88b828c01611709565b94505060a0611dc98b828c01611968565b93505060c089013567ffffffffffffffff811115611dea57611de9611658565b5b611df68b828c01611b4c565b92505060e0611e078b828c01611d30565b9150509295985092959890939650565b600080600080600080600080610100898b031215611e3857611e37611653565b5b6000611e468b828c01611709565b9850506020611e578b828c01611709565b9750506040611e688b828c016117cc565b9650506060611e798b828c01611709565b9550506080611e8a8b828c01611709565b94505060a0611e9b8b828c01611968565b93505060c0611eac8b828c01611d30565b92505060e0611ebd8b828c01611709565b9150509295985092959890939650565b600082825260208201905092915050565b7f486174686f7246656465726174696f6e3a20456d707479206d656d6265720000600082015250565b6000611f14601e83611ecd565b9150611f1f82611ede565b602082019050919050565b60006020820190508181036000830152611f4381611f07565b9050919050565b7f486174686f7246656465726174696f6e3a204d656d62657220646f65736e277460008201527f2065786973740000000000000000000000000000000000000000000000000000602082015250565b6000611fa6602683611ecd565b9150611fb182611f4a565b604082019050919050565b60006020820190508181036000830152611fd581611f99565b9050919050565b7f486174686f7246656465726174696f6e3a2043616e27742072656d6f7665206160008201527f6c6c20746865206d656d62657273000000000000000000000000000000000000602082015250565b6000612038602e83611ecd565b915061204382611fdc565b604082019050919050565b600060208201905081810360008301526120678161202b565b9050919050565b7f4e487b7100000000000000000000000000000000000000000000000000000000600052601160045260246000fd5b60006120a882611781565b91506120b383611781565b92508282039050818111156120cb576120ca61206e565b5b92915050565b7f4e487b7100000000000000000000000000000000000000000000000000000000600052603260045260246000fd5b7f4e487b7100000000000000000000000000000000000000000000000000000000600052603160045260246000fd5b6000819050919050565b61214a612145826116e8565b61212f565b82525050565b6000819050919050565b61216b61216682611781565b612150565b82525050565b7f4e487b7100000000000000000000000000000000000000000000000000000000600052602160045260246000fd5b600481106121b1576121b0612171565b5b50565b60008190506121c2826121a0565b919050565b60006121d2826121b4565b9050919050565b60008160f81b9050919050565b60006121f1826121d9565b9050919050565b612209612204826121c7565b6121e6565b82525050565b600061221b8289612139565b60208201915061222b8288612139565b60208201915061223b8287612139565b60208201915061224b828661215a565b60208201915061225b8285612139565b60208201915061226b82846121f8565b600182019150819050979650505050505050565b7f486174686f7246656465726174696f6e3a204e6f7420466564657261746f7200600082015250565b60006122b5601f83611ecd565b91506122c08261227f565b602082019050919050565b600060208201905081810360008301526122e4816122a8565b9050919050565b7f486174686f7246656465726174696f6e3a20616c72656164792070726f706f7360008201527f6564000000000000000000000000000000000000000000000000000000000000602082015250565b6000612347602283611ecd565b9150612352826122eb565b604082019050919050565b600060208201905081810360008301526123768161233a565b9050919050565b7f4e487b7100000000000000000000000000000000000000000000000000000000600052602260045260246000fd5b600060028204905060018216806123c457607f821691505b6020821081036123d7576123d661237d565b5b50919050565b60008190508160005260206000209050919050565b60006020601f8301049050919050565b600082821b905092915050565b60006008830261243f7fffffffffffffffffffffffffffffffffffffffffffffffffffffffffffffffff82612402565b6124498683612402565b95508019841693508086168417925050509392505050565b6000819050919050565b600061248661248161247c84611781565b612461565b611781565b9050919050565b6000819050919050565b6124a08361246b565b6124b46124ac8261248d565b84845461240f565b825550505050565b600090565b6124c96124bc565b6124d4818484612497565b505050565b5b818110156124f8576124ed6000826124c1565b6001810190506124da565b5050565b601f82111561253d5761250e816123dd565b612517846123f2565b81016020851015612526578190505b61253a612532856123f2565b8301826124d9565b50505b505050565b600082821c905092915050565b600061256060001984600802612542565b1980831691505092915050565b6000612579838361254f565b9150826002028217905092915050565b61259282611c78565b67ffffffffffffffff8111156125ab576125aa611a4f565b5b6125b582546123ac565b6125c08282856124fc565b600060209050601f8311600181146125f357600084156125e1578287015190505b6125eb858261256d565b865550612653565b601f198416612601866123dd565b60005b8281101561262957848901518255600182019150602085019450602081019050612604565b868310156126465784890151612642601f89168261254f565b8355505b6001600288020188555050505b505050505050565b612664816121c7565b82525050565b600061010082019050612680600083018b611a0a565b61268d602083018a611a0a565b61269a604083018961178b565b6126a76060830188611a0a565b6126b46080830187611a0a565b6126c160a083018661265b565b6126ce60c0830185611a0a565b81810360e08301526126e08184611cbe565b90509998505050505050505050565b7f486174686f7246656465726174696f6e3a204d656d62657220616c726561647960008201527f2065786973747300000000000000000000000000000000000000000000000000602082015250565b600061274b602783611ecd565b9150612756826126ef565b604082019050919050565b6000602082019050818103600083015261277a8161273e565b9050919050565b7f486174686f7246656465726174696f6e3a205472616e73616374696f6e20616c60008201527f7265616479207369676e65640000000000000000000000000000000000000000602082015250565b60006127dd602c83611ecd565b91506127e882612781565b604082019050919050565b6000602082019050818103600083015261280c816127d0565b9050919050565b600061010082019050612829600083018b611a0a565b612836602083018a611a0a565b612843604083018961178b565b6128506060830188611a0a565b61285d6080830187611a0a565b61286a60a083018661265b565b61287760c0830185611757565b81810360e08301526128898184611cbe565b90509998505050505050505050565b7f486174686f7246656465726174696f6e3a205472616e73616374696f6e20616c60008201527f72656164792073656e7400000000000000000000000000000000000000000000602082015250565b60006128f4602a83611ecd565b91506128ff82612898565b604082019050919050565b60006020820190508181036000830152612923816128e7565b9050919050565b600061010082019050612940600083018b611a0a565b61294d602083018a611a0a565b61295a604083018961178b565b6129676060830188611a0a565b6129746080830187611a0a565b61298160a083018661265b565b61298e60c0830185611757565b61299b60e0830184611a0a565b999850505050505050505056fea2646970667358221220340c143d2cd6900323b83a527c7160e7d66239eceeb9e90354aa3f458a20a32c64736f6c63430008180033",
          "opcodes": "PUSH1 0x80 PUSH1 0x40 MSTORE CALLVALUE DUP1 ISZERO PUSH3 0x11 JUMPI PUSH1 0x0 DUP1 REVERT JUMPDEST POP PUSH1 0x40 MLOAD PUSH3 0x326F CODESIZE SUB DUP1 PUSH3 0x326F DUP4 CODECOPY DUP2 DUP2 ADD PUSH1 0x40 MSTORE DUP2 ADD SWAP1 PUSH3 0x37 SWAP2 SWAP1 PUSH3 0x67D JUMP JUMPDEST DUP1 PUSH1 0x0 PUSH20 0xFFFFFFFFFFFFFFFFFFFFFFFFFFFFFFFFFFFFFFFF AND DUP2 PUSH20 0xFFFFFFFFFFFFFFFFFFFFFFFFFFFFFFFFFFFFFFFF AND SUB PUSH3 0xAD JUMPI PUSH1 0x0 PUSH1 0x40 MLOAD PUSH32 0x1E4FBDF700000000000000000000000000000000000000000000000000000000 DUP2 MSTORE PUSH1 0x4 ADD PUSH3 0xA4 SWAP2 SWAP1 PUSH3 0x6F4 JUMP JUMPDEST PUSH1 0x40 MLOAD DUP1 SWAP2 SUB SWAP1 REVERT JUMPDEST PUSH3 0xBE DUP2 PUSH3 0x31D PUSH1 0x20 SHL PUSH1 0x20 SHR JUMP JUMPDEST POP PUSH1 0x32 DUP3 MLOAD GT ISZERO PUSH3 0x107 JUMPI PUSH1 0x40 MLOAD PUSH32 0x8C379A000000000000000000000000000000000000000000000000000000000 DUP2 MSTORE PUSH1 0x4 ADD PUSH3 0xFE SWAP1 PUSH3 0x798 JUMP JUMPDEST PUSH1 0x40 MLOAD DUP1 SWAP2 SUB SWAP1 REVERT JUMPDEST DUP2 PUSH1 0x1 SWAP1 DUP1 MLOAD SWAP1 PUSH1 0x20 ADD SWAP1 PUSH3 0x11F SWAP3 SWAP2 SWAP1 PUSH3 0x3E1 JUMP JUMPDEST POP PUSH1 0x0 JUMPDEST DUP3 MLOAD DUP2 LT ISZERO PUSH3 0x314 JUMPI PUSH1 0x2 PUSH1 0x0 DUP5 DUP4 DUP2 MLOAD DUP2 LT PUSH3 0x147 JUMPI PUSH3 0x146 PUSH3 0x7BA JUMP JUMPDEST JUMPDEST PUSH1 0x20 MUL PUSH1 0x20 ADD ADD MLOAD PUSH20 0xFFFFFFFFFFFFFFFFFFFFFFFFFFFFFFFFFFFFFFFF AND PUSH20 0xFFFFFFFFFFFFFFFFFFFFFFFFFFFFFFFFFFFFFFFF AND DUP2 MSTORE PUSH1 0x20 ADD SWAP1 DUP2 MSTORE PUSH1 0x20 ADD PUSH1 0x0 KECCAK256 PUSH1 0x0 SWAP1 SLOAD SWAP1 PUSH2 0x100 EXP SWAP1 DIV PUSH1 0xFF AND ISZERO DUP1 ISZERO PUSH3 0x1EF JUMPI POP PUSH1 0x0 PUSH20 0xFFFFFFFFFFFFFFFFFFFFFFFFFFFFFFFFFFFFFFFF AND DUP4 DUP3 DUP2 MLOAD DUP2 LT PUSH3 0x1CE JUMPI PUSH3 0x1CD PUSH3 0x7BA JUMP JUMPDEST JUMPDEST PUSH1 0x20 MUL PUSH1 0x20 ADD ADD MLOAD PUSH20 0xFFFFFFFFFFFFFFFFFFFFFFFFFFFFFFFFFFFFFFFF AND EQ ISZERO JUMPDEST PUSH3 0x231 JUMPI PUSH1 0x40 MLOAD PUSH32 0x8C379A000000000000000000000000000000000000000000000000000000000 DUP2 MSTORE PUSH1 0x4 ADD PUSH3 0x228 SWAP1 PUSH3 0x85F JUMP JUMPDEST PUSH1 0x40 MLOAD DUP1 SWAP2 SUB SWAP1 REVERT JUMPDEST PUSH1 0x1 PUSH1 0x2 PUSH1 0x0 DUP6 DUP5 DUP2 MLOAD DUP2 LT PUSH3 0x24D JUMPI PUSH3 0x24C PUSH3 0x7BA JUMP JUMPDEST JUMPDEST PUSH1 0x20 MUL PUSH1 0x20 ADD ADD MLOAD PUSH20 0xFFFFFFFFFFFFFFFFFFFFFFFFFFFFFFFFFFFFFFFF AND PUSH20 0xFFFFFFFFFFFFFFFFFFFFFFFFFFFFFFFFFFFFFFFF AND DUP2 MSTORE PUSH1 0x20 ADD SWAP1 DUP2 MSTORE PUSH1 0x20 ADD PUSH1 0x0 KECCAK256 PUSH1 0x0 PUSH2 0x100 EXP DUP2 SLOAD DUP2 PUSH1 0xFF MUL NOT AND SWAP1 DUP4 ISZERO ISZERO MUL OR SWAP1 SSTORE POP DUP3 DUP2 DUP2 MLOAD DUP2 LT PUSH3 0x2BC JUMPI PUSH3 0x2BB PUSH3 0x7BA JUMP JUMPDEST JUMPDEST PUSH1 0x20 MUL PUSH1 0x20 ADD ADD MLOAD PUSH20 0xFFFFFFFFFFFFFFFFFFFFFFFFFFFFFFFFFFFFFFFF AND PUSH32 0x72114E270DE66B9D2710ECF140403E5E99B1574767D6A8197BDC8D807A46E7C7 PUSH1 0x40 MLOAD PUSH1 0x40 MLOAD DUP1 SWAP2 SUB SWAP1 LOG2 DUP1 DUP1 PUSH1 0x1 ADD SWAP2 POP POP PUSH3 0x123 JUMP JUMPDEST POP POP POP PUSH3 0x881 JUMP JUMPDEST PUSH1 0x0 DUP1 PUSH1 0x0 SWAP1 SLOAD SWAP1 PUSH2 0x100 EXP SWAP1 DIV PUSH20 0xFFFFFFFFFFFFFFFFFFFFFFFFFFFFFFFFFFFFFFFF AND SWAP1 POP DUP2 PUSH1 0x0 DUP1 PUSH2 0x100 EXP DUP2 SLOAD DUP2 PUSH20 0xFFFFFFFFFFFFFFFFFFFFFFFFFFFFFFFFFFFFFFFF MUL NOT AND SWAP1 DUP4 PUSH20 0xFFFFFFFFFFFFFFFFFFFFFFFFFFFFFFFFFFFFFFFF AND MUL OR SWAP1 SSTORE POP DUP2 PUSH20 0xFFFFFFFFFFFFFFFFFFFFFFFFFFFFFFFFFFFFFFFF AND DUP2 PUSH20 0xFFFFFFFFFFFFFFFFFFFFFFFFFFFFFFFFFFFFFFFF AND PUSH32 0x8BE0079C531659141344CD1FD0A4F28419497F9722A3DAAFE3B4186F6B6457E0 PUSH1 0x40 MLOAD PUSH1 0x40 MLOAD DUP1 SWAP2 SUB SWAP1 LOG3 POP POP JUMP JUMPDEST DUP3 DUP1 SLOAD DUP3 DUP3 SSTORE SWAP1 PUSH1 0x0 MSTORE PUSH1 0x20 PUSH1 0x0 KECCAK256 SWAP1 DUP2 ADD SWAP3 DUP3 ISZERO PUSH3 0x45D JUMPI SWAP2 PUSH1 0x20 MUL DUP3 ADD JUMPDEST DUP3 DUP2 GT ISZERO PUSH3 0x45C JUMPI DUP3 MLOAD DUP3 PUSH1 0x0 PUSH2 0x100 EXP DUP2 SLOAD DUP2 PUSH20 0xFFFFFFFFFFFFFFFFFFFFFFFFFFFFFFFFFFFFFFFF MUL NOT AND SWAP1 DUP4 PUSH20 0xFFFFFFFFFFFFFFFFFFFFFFFFFFFFFFFFFFFFFFFF AND MUL OR SWAP1 SSTORE POP SWAP2 PUSH1 0x20 ADD SWAP2 SWAP1 PUSH1 0x1 ADD SWAP1 PUSH3 0x402 JUMP JUMPDEST JUMPDEST POP SWAP1 POP PUSH3 0x46C SWAP2 SWAP1 PUSH3 0x470 JUMP JUMPDEST POP SWAP1 JUMP JUMPDEST JUMPDEST DUP1 DUP3 GT ISZERO PUSH3 0x48B JUMPI PUSH1 0x0 DUP2 PUSH1 0x0 SWAP1 SSTORE POP PUSH1 0x1 ADD PUSH3 0x471 JUMP JUMPDEST POP SWAP1 JUMP JUMPDEST PUSH1 0x0 PUSH1 0x40 MLOAD SWAP1 POP SWAP1 JUMP JUMPDEST PUSH1 0x0 DUP1 REVERT JUMPDEST PUSH1 0x0 DUP1 REVERT JUMPDEST PUSH1 0x0 DUP1 REVERT JUMPDEST PUSH1 0x0 PUSH1 0x1F NOT PUSH1 0x1F DUP4 ADD AND SWAP1 POP SWAP2 SWAP1 POP JUMP JUMPDEST PUSH32 0x4E487B7100000000000000000000000000000000000000000000000000000000 PUSH1 0x0 MSTORE PUSH1 0x41 PUSH1 0x4 MSTORE PUSH1 0x24 PUSH1 0x0 REVERT JUMPDEST PUSH3 0x4F3 DUP3 PUSH3 0x4A8 JUMP JUMPDEST DUP2 ADD DUP2 DUP2 LT PUSH8 0xFFFFFFFFFFFFFFFF DUP3 GT OR ISZERO PUSH3 0x515 JUMPI PUSH3 0x514 PUSH3 0x4B9 JUMP JUMPDEST JUMPDEST DUP1 PUSH1 0x40 MSTORE POP POP POP JUMP JUMPDEST PUSH1 0x0 PUSH3 0x52A PUSH3 0x48F JUMP JUMPDEST SWAP1 POP PUSH3 0x538 DUP3 DUP3 PUSH3 0x4E8 JUMP JUMPDEST SWAP2 SWAP1 POP JUMP JUMPDEST PUSH1 0x0 PUSH8 0xFFFFFFFFFFFFFFFF DUP3 GT ISZERO PUSH3 0x55B JUMPI PUSH3 0x55A PUSH3 0x4B9 JUMP JUMPDEST JUMPDEST PUSH1 0x20 DUP3 MUL SWAP1 POP PUSH1 0x20 DUP2 ADD SWAP1 POP SWAP2 SWAP1 POP JUMP JUMPDEST PUSH1 0x0 DUP1 REVERT JUMPDEST PUSH1 0x0 PUSH20 0xFFFFFFFFFFFFFFFFFFFFFFFFFFFFFFFFFFFFFFFF DUP3 AND SWAP1 POP SWAP2 SWAP1 POP JUMP JUMPDEST PUSH1 0x0 PUSH3 0x59E DUP3 PUSH3 0x571 JUMP JUMPDEST SWAP1 POP SWAP2 SWAP1 POP JUMP JUMPDEST PUSH3 0x5B0 DUP2 PUSH3 0x591 JUMP JUMPDEST DUP2 EQ PUSH3 0x5BC JUMPI PUSH1 0x0 DUP1 REVERT JUMPDEST POP JUMP JUMPDEST PUSH1 0x0 DUP2 MLOAD SWAP1 POP PUSH3 0x5D0 DUP2 PUSH3 0x5A5 JUMP JUMPDEST SWAP3 SWAP2 POP POP JUMP JUMPDEST PUSH1 0x0 PUSH3 0x5ED PUSH3 0x5E7 DUP5 PUSH3 0x53D JUMP JUMPDEST PUSH3 0x51E JUMP JUMPDEST SWAP1 POP DUP1 DUP4 DUP3 MSTORE PUSH1 0x20 DUP3 ADD SWAP1 POP PUSH1 0x20 DUP5 MUL DUP4 ADD DUP6 DUP2 GT ISZERO PUSH3 0x613 JUMPI PUSH3 0x612 PUSH3 0x56C JUMP JUMPDEST JUMPDEST DUP4 JUMPDEST DUP2 DUP2 LT ISZERO PUSH3 0x640 JUMPI DUP1 PUSH3 0x62B DUP9 DUP3 PUSH3 0x5BF JUMP JUMPDEST DUP5 MSTORE PUSH1 0x20 DUP5 ADD SWAP4 POP POP PUSH1 0x20 DUP2 ADD SWAP1 POP PUSH3 0x615 JUMP JUMPDEST POP POP POP SWAP4 SWAP3 POP POP POP JUMP JUMPDEST PUSH1 0x0 DUP3 PUSH1 0x1F DUP4 ADD SLT PUSH3 0x662 JUMPI PUSH3 0x661 PUSH3 0x4A3 JUMP JUMPDEST JUMPDEST DUP2 MLOAD PUSH3 0x674 DUP5 DUP3 PUSH1 0x20 DUP7 ADD PUSH3 0x5D6 JUMP JUMPDEST SWAP2 POP POP SWAP3 SWAP2 POP POP JUMP JUMPDEST PUSH1 0x0 DUP1 PUSH1 0x40 DUP4 DUP6 SUB SLT ISZERO PUSH3 0x697 JUMPI PUSH3 0x696 PUSH3 0x499 JUMP JUMPDEST JUMPDEST PUSH1 0x0 DUP4 ADD MLOAD PUSH8 0xFFFFFFFFFFFFFFFF DUP2 GT ISZERO PUSH3 0x6B8 JUMPI PUSH3 0x6B7 PUSH3 0x49E JUMP JUMPDEST JUMPDEST PUSH3 0x6C6 DUP6 DUP3 DUP7 ADD PUSH3 0x64A JUMP JUMPDEST SWAP3 POP POP PUSH1 0x20 PUSH3 0x6D9 DUP6 DUP3 DUP7 ADD PUSH3 0x5BF JUMP JUMPDEST SWAP2 POP POP SWAP3 POP SWAP3 SWAP1 POP JUMP JUMPDEST PUSH3 0x6EE DUP2 PUSH3 0x591 JUMP JUMPDEST DUP3 MSTORE POP POP JUMP JUMPDEST PUSH1 0x0 PUSH1 0x20 DUP3 ADD SWAP1 POP PUSH3 0x70B PUSH1 0x0 DUP4 ADD DUP5 PUSH3 0x6E3 JUMP JUMPDEST SWAP3 SWAP2 POP POP JUMP JUMPDEST PUSH1 0x0 DUP3 DUP3 MSTORE PUSH1 0x20 DUP3 ADD SWAP1 POP SWAP3 SWAP2 POP POP JUMP JUMPDEST PUSH32 0x486174686F7246656465726174696F6E3A20546F6F206D616E79206D656D6265 PUSH1 0x0 DUP3 ADD MSTORE PUSH32 0x7273000000000000000000000000000000000000000000000000000000000000 PUSH1 0x20 DUP3 ADD MSTORE POP JUMP JUMPDEST PUSH1 0x0 PUSH3 0x780 PUSH1 0x22 DUP4 PUSH3 0x711 JUMP JUMPDEST SWAP2 POP PUSH3 0x78D DUP3 PUSH3 0x722 JUMP JUMPDEST PUSH1 0x40 DUP3 ADD SWAP1 POP SWAP2 SWAP1 POP JUMP JUMPDEST PUSH1 0x0 PUSH1 0x20 DUP3 ADD SWAP1 POP DUP2 DUP2 SUB PUSH1 0x0 DUP4 ADD MSTORE PUSH3 0x7B3 DUP2 PUSH3 0x771 JUMP JUMPDEST SWAP1 POP SWAP2 SWAP1 POP JUMP JUMPDEST PUSH32 0x4E487B7100000000000000000000000000000000000000000000000000000000 PUSH1 0x0 MSTORE PUSH1 0x32 PUSH1 0x4 MSTORE PUSH1 0x24 PUSH1 0x0 REVERT JUMPDEST PUSH32 0x486174686F7246656465726174696F6E3A20496E76616C6964206D656D626572 PUSH1 0x0 DUP3 ADD MSTORE PUSH32 0x7300000000000000000000000000000000000000000000000000000000000000 PUSH1 0x20 DUP3 ADD MSTORE POP JUMP JUMPDEST PUSH1 0x0 PUSH3 0x847 PUSH1 0x21 DUP4 PUSH3 0x711 JUMP JUMPDEST SWAP2 POP PUSH3 0x854 DUP3 PUSH3 0x7E9 JUMP JUMPDEST PUSH1 0x40 DUP3 ADD SWAP1 POP SWAP2 SWAP1 POP JUMP JUMPDEST PUSH1 0x0 PUSH1 0x20 DUP3 ADD SWAP1 POP DUP2 DUP2 SUB PUSH1 0x0 DUP4 ADD MSTORE PUSH3 0x87A DUP2 PUSH3 0x838 JUMP JUMPDEST SWAP1 POP SWAP2 SWAP1 POP JUMP JUMPDEST PUSH2 0x29DE DUP1 PUSH3 0x891 PUSH1 0x0 CODECOPY PUSH1 0x0 RETURN INVALID PUSH1 0x80 PUSH1 0x40 MSTORE CALLVALUE DUP1 ISZERO PUSH2 0x10 JUMPI PUSH1 0x0 DUP1 REVERT JUMPDEST POP PUSH1 0x4 CALLDATASIZE LT PUSH2 0x137 JUMPI PUSH1 0x0 CALLDATALOAD PUSH1 0xE0 SHR DUP1 PUSH4 0x9EAB5253 GT PUSH2 0xB8 JUMPI DUP1 PUSH4 0xB6B27255 GT PUSH2 0x7C JUMPI DUP1 PUSH4 0xB6B27255 EQ PUSH2 0x374 JUMPI DUP1 PUSH4 0xCA6D56DC EQ PUSH2 0x390 JUMPI DUP1 PUSH4 0xD4C1581D EQ PUSH2 0x3AC JUMPI DUP1 PUSH4 0xD5892635 EQ PUSH2 0x3C8 JUMPI DUP1 PUSH4 0xE831C6AE EQ PUSH2 0x3E4 JUMPI DUP1 PUSH4 0xF2FDE38B EQ PUSH2 0x414 JUMPI PUSH2 0x137 JUMP JUMPDEST DUP1 PUSH4 0x9EAB5253 EQ PUSH2 0x2AA JUMPI DUP1 PUSH4 0xA230C524 EQ PUSH2 0x2C8 JUMPI DUP1 PUSH4 0xA2714BB5 EQ PUSH2 0x2F8 JUMPI DUP1 PUSH4 0xAE36E42D EQ PUSH2 0x328 JUMPI DUP1 PUSH4 0xB58D1CFB EQ PUSH2 0x344 JUMPI PUSH2 0x137 JUMP JUMPDEST DUP1 PUSH4 0x681FC921 GT PUSH2 0xFF JUMPI DUP1 PUSH4 0x681FC921 EQ PUSH2 0x218 JUMPI DUP1 PUSH4 0x715018A6 EQ PUSH2 0x236 JUMPI DUP1 PUSH4 0x7F8D61E0 EQ PUSH2 0x240 JUMPI DUP1 PUSH4 0x86F063A8 EQ PUSH2 0x270 JUMPI DUP1 PUSH4 0x8DA5CB5B EQ PUSH2 0x28C JUMPI PUSH2 0x137 JUMP JUMPDEST DUP1 PUSH4 0xB1CA49A EQ PUSH2 0x13C JUMPI DUP1 PUSH4 0x11C16896 EQ PUSH2 0x158 JUMPI DUP1 PUSH4 0x1206B7A9 EQ PUSH2 0x188 JUMPI DUP1 PUSH4 0x2BBE96BC EQ PUSH2 0x1B8 JUMPI DUP1 PUSH4 0x5DAF08CA EQ PUSH2 0x1E8 JUMPI JUMPDEST PUSH1 0x0 DUP1 REVERT JUMPDEST PUSH2 0x156 PUSH1 0x4 DUP1 CALLDATASIZE SUB DUP2 ADD SWAP1 PUSH2 0x151 SWAP2 SWAP1 PUSH2 0x16BB JUMP JUMPDEST PUSH2 0x430 JUMP JUMPDEST STOP JUMPDEST PUSH2 0x172 PUSH1 0x4 DUP1 CALLDATASIZE SUB DUP2 ADD SWAP1 PUSH2 0x16D SWAP2 SWAP1 PUSH2 0x171E JUMP JUMPDEST PUSH2 0x7A8 JUMP JUMPDEST PUSH1 0x40 MLOAD PUSH2 0x17F SWAP2 SWAP1 PUSH2 0x1766 JUMP JUMPDEST PUSH1 0x40 MLOAD DUP1 SWAP2 SUB SWAP1 RETURN JUMPDEST PUSH2 0x1A2 PUSH1 0x4 DUP1 CALLDATASIZE SUB DUP2 ADD SWAP1 PUSH2 0x19D SWAP2 SWAP1 PUSH2 0x171E JUMP JUMPDEST PUSH2 0x7C8 JUMP JUMPDEST PUSH1 0x40 MLOAD PUSH2 0x1AF SWAP2 SWAP1 PUSH2 0x1766 JUMP JUMPDEST PUSH1 0x40 MLOAD DUP1 SWAP2 SUB SWAP1 RETURN JUMPDEST PUSH2 0x1D2 PUSH1 0x4 DUP1 CALLDATASIZE SUB DUP2 ADD SWAP1 PUSH2 0x1CD SWAP2 SWAP1 PUSH2 0x171E JUMP JUMPDEST PUSH2 0x7E8 JUMP JUMPDEST PUSH1 0x40 MLOAD PUSH2 0x1DF SWAP2 SWAP1 PUSH2 0x179A JUMP JUMPDEST PUSH1 0x40 MLOAD DUP1 SWAP2 SUB SWAP1 RETURN JUMPDEST PUSH2 0x202 PUSH1 0x4 DUP1 CALLDATASIZE SUB DUP2 ADD SWAP1 PUSH2 0x1FD SWAP2 SWAP1 PUSH2 0x17E1 JUMP JUMPDEST PUSH2 0x808 JUMP JUMPDEST PUSH1 0x40 MLOAD PUSH2 0x20F SWAP2 SWAP1 PUSH2 0x181D JUMP JUMPDEST PUSH1 0x40 MLOAD DUP1 SWAP2 SUB SWAP1 RETURN JUMPDEST PUSH2 0x220 PUSH2 0x847 JUMP JUMPDEST PUSH1 0x40 MLOAD PUSH2 0x22D SWAP2 SWAP1 PUSH2 0x179A JUMP JUMPDEST PUSH1 0x40 MLOAD DUP1 SWAP2 SUB SWAP1 RETURN JUMPDEST PUSH2 0x23E PUSH2 0x84C JUMP JUMPDEST STOP JUMPDEST PUSH2 0x25A PUSH1 0x4 DUP1 CALLDATASIZE SUB DUP2 ADD SWAP1 PUSH2 0x255 SWAP2 SWAP1 PUSH2 0x1838 JUMP JUMPDEST PUSH2 0x860 JUMP JUMPDEST PUSH1 0x40 MLOAD PUSH2 0x267 SWAP2 SWAP1 PUSH2 0x1766 JUMP JUMPDEST PUSH1 0x40 MLOAD DUP1 SWAP2 SUB SWAP1 RETURN JUMPDEST PUSH2 0x28A PUSH1 0x4 DUP1 CALLDATASIZE SUB DUP2 ADD SWAP1 PUSH2 0x285 SWAP2 SWAP1 PUSH2 0x171E JUMP JUMPDEST PUSH2 0x88F JUMP JUMPDEST STOP JUMPDEST PUSH2 0x294 PUSH2 0x91E JUMP JUMPDEST PUSH1 0x40 MLOAD PUSH2 0x2A1 SWAP2 SWAP1 PUSH2 0x181D JUMP JUMPDEST PUSH1 0x40 MLOAD DUP1 SWAP2 SUB SWAP1 RETURN JUMPDEST PUSH2 0x2B2 PUSH2 0x947 JUMP JUMPDEST PUSH1 0x40 MLOAD PUSH2 0x2BF SWAP2 SWAP1 PUSH2 0x1936 JUMP JUMPDEST PUSH1 0x40 MLOAD DUP1 SWAP2 SUB SWAP1 RETURN JUMPDEST PUSH2 0x2E2 PUSH1 0x4 DUP1 CALLDATASIZE SUB DUP2 ADD SWAP1 PUSH2 0x2DD SWAP2 SWAP1 PUSH2 0x16BB JUMP JUMPDEST PUSH2 0x9D5 JUMP JUMPDEST PUSH1 0x40 MLOAD PUSH2 0x2EF SWAP2 SWAP1 PUSH2 0x1766 JUMP JUMPDEST PUSH1 0x40 MLOAD DUP1 SWAP2 SUB SWAP1 RETURN JUMPDEST PUSH2 0x312 PUSH1 0x4 DUP1 CALLDATASIZE SUB DUP2 ADD SWAP1 PUSH2 0x30D SWAP2 SWAP1 PUSH2 0x197D JUMP JUMPDEST PUSH2 0x9F5 JUMP JUMPDEST PUSH1 0x40 MLOAD PUSH2 0x31F SWAP2 SWAP1 PUSH2 0x1A19 JUMP JUMPDEST PUSH1 0x40 MLOAD DUP1 SWAP2 SUB SWAP1 RETURN JUMPDEST PUSH2 0x342 PUSH1 0x4 DUP1 CALLDATASIZE SUB DUP2 ADD SWAP1 PUSH2 0x33D SWAP2 SWAP1 PUSH2 0x1B7A JUMP JUMPDEST PUSH2 0xA39 JUMP JUMPDEST STOP JUMPDEST PUSH2 0x35E PUSH1 0x4 DUP1 CALLDATASIZE SUB DUP2 ADD SWAP1 PUSH2 0x359 SWAP2 SWAP1 PUSH2 0x1C38 JUMP JUMPDEST PUSH2 0xC04 JUMP JUMPDEST PUSH1 0x40 MLOAD PUSH2 0x36B SWAP2 SWAP1 PUSH2 0x1CF7 JUMP JUMPDEST PUSH1 0x40 MLOAD DUP1 SWAP2 SUB SWAP1 RETURN JUMPDEST PUSH2 0x38E PUSH1 0x4 DUP1 CALLDATASIZE SUB DUP2 ADD SWAP1 PUSH2 0x389 SWAP2 SWAP1 PUSH2 0x1838 JUMP JUMPDEST PUSH2 0xCC3 JUMP JUMPDEST STOP JUMPDEST PUSH2 0x3AA PUSH1 0x4 DUP1 CALLDATASIZE SUB DUP2 ADD SWAP1 PUSH2 0x3A5 SWAP2 SWAP1 PUSH2 0x16BB JUMP JUMPDEST PUSH2 0xD70 JUMP JUMPDEST STOP JUMPDEST PUSH2 0x3C6 PUSH1 0x4 DUP1 CALLDATASIZE SUB DUP2 ADD SWAP1 PUSH2 0x3C1 SWAP2 SWAP1 PUSH2 0x1D45 JUMP JUMPDEST PUSH2 0xF75 JUMP JUMPDEST STOP JUMPDEST PUSH2 0x3E2 PUSH1 0x4 DUP1 CALLDATASIZE SUB DUP2 ADD SWAP1 PUSH2 0x3DD SWAP2 SWAP1 PUSH2 0x1E17 JUMP JUMPDEST PUSH2 0x1225 JUMP JUMPDEST STOP JUMPDEST PUSH2 0x3FE PUSH1 0x4 DUP1 CALLDATASIZE SUB DUP2 ADD SWAP1 PUSH2 0x3F9 SWAP2 SWAP1 PUSH2 0x171E JUMP JUMPDEST PUSH2 0x13D0 JUMP JUMPDEST PUSH1 0x40 MLOAD PUSH2 0x40B SWAP2 SWAP1 PUSH2 0x1CF7 JUMP JUMPDEST PUSH1 0x40 MLOAD DUP1 SWAP2 SUB SWAP1 RETURN JUMPDEST PUSH2 0x42E PUSH1 0x4 DUP1 CALLDATASIZE SUB DUP2 ADD SWAP1 PUSH2 0x429 SWAP2 SWAP1 PUSH2 0x16BB JUMP JUMPDEST PUSH2 0x1470 JUMP JUMPDEST STOP JUMPDEST PUSH2 0x438 PUSH2 0x14F6 JUMP JUMPDEST PUSH1 0x0 PUSH20 0xFFFFFFFFFFFFFFFFFFFFFFFFFFFFFFFFFFFFFFFF AND DUP2 PUSH20 0xFFFFFFFFFFFFFFFFFFFFFFFFFFFFFFFFFFFFFFFF AND SUB PUSH2 0x4A7 JUMPI PUSH1 0x40 MLOAD PUSH32 0x8C379A000000000000000000000000000000000000000000000000000000000 DUP2 MSTORE PUSH1 0x4 ADD PUSH2 0x49E SWAP1 PUSH2 0x1F2A JUMP JUMPDEST PUSH1 0x40 MLOAD DUP1 SWAP2 SUB SWAP1 REVERT JUMPDEST PUSH1 0x2 PUSH1 0x0 DUP3 PUSH20 0xFFFFFFFFFFFFFFFFFFFFFFFFFFFFFFFFFFFFFFFF AND PUSH20 0xFFFFFFFFFFFFFFFFFFFFFFFFFFFFFFFFFFFFFFFF AND DUP2 MSTORE PUSH1 0x20 ADD SWAP1 DUP2 MSTORE PUSH1 0x20 ADD PUSH1 0x0 KECCAK256 PUSH1 0x0 SWAP1 SLOAD SWAP1 PUSH2 0x100 EXP SWAP1 DIV PUSH1 0xFF AND PUSH2 0x533 JUMPI PUSH1 0x40 MLOAD PUSH32 0x8C379A000000000000000000000000000000000000000000000000000000000 DUP2 MSTORE PUSH1 0x4 ADD PUSH2 0x52A SWAP1 PUSH2 0x1FBC JUMP JUMPDEST PUSH1 0x40 MLOAD DUP1 SWAP2 SUB SWAP1 REVERT JUMPDEST PUSH1 0x1 DUP1 DUP1 SLOAD SWAP1 POP GT PUSH2 0x57A JUMPI PUSH1 0x40 MLOAD PUSH32 0x8C379A000000000000000000000000000000000000000000000000000000000 DUP2 MSTORE PUSH1 0x4 ADD PUSH2 0x571 SWAP1 PUSH2 0x204E JUMP JUMPDEST PUSH1 0x40 MLOAD DUP1 SWAP2 SUB SWAP1 REVERT JUMPDEST PUSH1 0x0 PUSH1 0x2 PUSH1 0x0 DUP4 PUSH20 0xFFFFFFFFFFFFFFFFFFFFFFFFFFFFFFFFFFFFFFFF AND PUSH20 0xFFFFFFFFFFFFFFFFFFFFFFFFFFFFFFFFFFFFFFFF AND DUP2 MSTORE PUSH1 0x20 ADD SWAP1 DUP2 MSTORE PUSH1 0x20 ADD PUSH1 0x0 KECCAK256 PUSH1 0x0 PUSH2 0x100 EXP DUP2 SLOAD DUP2 PUSH1 0xFF MUL NOT AND SWAP1 DUP4 ISZERO ISZERO MUL OR SWAP1 SSTORE POP PUSH1 0x0 JUMPDEST PUSH1 0x1 DUP1 DUP1 SLOAD SWAP1 POP PUSH2 0x5E6 SWAP2 SWAP1 PUSH2 0x209D JUMP JUMPDEST DUP2 LT ISZERO PUSH2 0x71A JUMPI DUP2 PUSH20 0xFFFFFFFFFFFFFFFFFFFFFFFFFFFFFFFFFFFFFFFF AND PUSH1 0x1 DUP3 DUP2 SLOAD DUP2 LT PUSH2 0x618 JUMPI PUSH2 0x617 PUSH2 0x20D1 JUMP JUMPDEST JUMPDEST SWAP1 PUSH1 0x0 MSTORE PUSH1 0x20 PUSH1 0x0 KECCAK256 ADD PUSH1 0x0 SWAP1 SLOAD SWAP1 PUSH2 0x100 EXP SWAP1 DIV PUSH20 0xFFFFFFFFFFFFFFFFFFFFFFFFFFFFFFFFFFFFFFFF AND PUSH20 0xFFFFFFFFFFFFFFFFFFFFFFFFFFFFFFFFFFFFFFFF AND SUB PUSH2 0x70D JUMPI PUSH1 0x1 DUP1 DUP1 DUP1 SLOAD SWAP1 POP PUSH2 0x670 SWAP2 SWAP1 PUSH2 0x209D JUMP JUMPDEST DUP2 SLOAD DUP2 LT PUSH2 0x681 JUMPI PUSH2 0x680 PUSH2 0x20D1 JUMP JUMPDEST JUMPDEST SWAP1 PUSH1 0x0 MSTORE PUSH1 0x20 PUSH1 0x0 KECCAK256 ADD PUSH1 0x0 SWAP1 SLOAD SWAP1 PUSH2 0x100 EXP SWAP1 DIV PUSH20 0xFFFFFFFFFFFFFFFFFFFFFFFFFFFFFFFFFFFFFFFF AND PUSH1 0x1 DUP3 DUP2 SLOAD DUP2 LT PUSH2 0x6C0 JUMPI PUSH2 0x6BF PUSH2 0x20D1 JUMP JUMPDEST JUMPDEST SWAP1 PUSH1 0x0 MSTORE PUSH1 0x20 PUSH1 0x0 KECCAK256 ADD PUSH1 0x0 PUSH2 0x100 EXP DUP2 SLOAD DUP2 PUSH20 0xFFFFFFFFFFFFFFFFFFFFFFFFFFFFFFFFFFFFFFFF MUL NOT AND SWAP1 DUP4 PUSH20 0xFFFFFFFFFFFFFFFFFFFFFFFFFFFFFFFFFFFFFFFF AND MUL OR SWAP1 SSTORE POP PUSH2 0x71A JUMP JUMPDEST DUP1 DUP1 PUSH1 0x1 ADD SWAP2 POP POP PUSH2 0x5D5 JUMP JUMPDEST POP PUSH1 0x1 DUP1 SLOAD DUP1 PUSH2 0x72D JUMPI PUSH2 0x72C PUSH2 0x2100 JUMP JUMPDEST JUMPDEST PUSH1 0x1 SWAP1 SUB DUP2 DUP2 SWAP1 PUSH1 0x0 MSTORE PUSH1 0x20 PUSH1 0x0 KECCAK256 ADD PUSH1 0x0 PUSH2 0x100 EXP DUP2 SLOAD SWAP1 PUSH20 0xFFFFFFFFFFFFFFFFFFFFFFFFFFFFFFFFFFFFFFFF MUL NOT AND SWAP1 SSTORE SWAP1 SSTORE DUP1 PUSH20 0xFFFFFFFFFFFFFFFFFFFFFFFFFFFFFFFFFFFFFFFF AND PUSH32 0x270BFC616DD36D5CB6B35AAC93E6EF22B089C34E6F6AD6F0892797424840897B PUSH1 0x40 MLOAD PUSH1 0x40 MLOAD DUP1 SWAP2 SUB SWAP1 LOG2 POP JUMP JUMPDEST PUSH1 0x3 PUSH1 0x20 MSTORE DUP1 PUSH1 0x0 MSTORE PUSH1 0x40 PUSH1 0x0 KECCAK256 PUSH1 0x0 SWAP2 POP SLOAD SWAP1 PUSH2 0x100 EXP SWAP1 DIV PUSH1 0xFF AND DUP2 JUMP JUMPDEST PUSH1 0x4 PUSH1 0x20 MSTORE DUP1 PUSH1 0x0 MSTORE PUSH1 0x40 PUSH1 0x0 KECCAK256 PUSH1 0x0 SWAP2 POP SLOAD SWAP1 PUSH2 0x100 EXP SWAP1 DIV PUSH1 0xFF AND DUP2 JUMP JUMPDEST PUSH1 0x0 PUSH1 0x6 PUSH1 0x0 DUP4 DUP2 MSTORE PUSH1 0x20 ADD SWAP1 DUP2 MSTORE PUSH1 0x20 ADD PUSH1 0x0 KECCAK256 DUP1 SLOAD SWAP1 POP SWAP1 POP SWAP2 SWAP1 POP JUMP JUMPDEST PUSH1 0x1 DUP2 DUP2 SLOAD DUP2 LT PUSH2 0x818 JUMPI PUSH1 0x0 DUP1 REVERT JUMPDEST SWAP1 PUSH1 0x0 MSTORE PUSH1 0x20 PUSH1 0x0 KECCAK256 ADD PUSH1 0x0 SWAP2 POP SLOAD SWAP1 PUSH2 0x100 EXP SWAP1 DIV PUSH20 0xFFFFFFFFFFFFFFFFFFFFFFFFFFFFFFFFFFFFFFFF AND DUP2 JUMP JUMPDEST PUSH1 0x32 DUP2 JUMP JUMPDEST PUSH2 0x854 PUSH2 0x14F6 JUMP JUMPDEST PUSH2 0x85E PUSH1 0x0 PUSH2 0x157D JUMP JUMPDEST JUMP JUMPDEST PUSH1 0x7 PUSH1 0x20 MSTORE DUP2 PUSH1 0x0 MSTORE PUSH1 0x40 PUSH1 0x0 KECCAK256 PUSH1 0x20 MSTORE DUP1 PUSH1 0x0 MSTORE PUSH1 0x40 PUSH1 0x0 KECCAK256 PUSH1 0x0 SWAP2 POP SWAP2 POP SWAP1 SLOAD SWAP1 PUSH2 0x100 EXP SWAP1 DIV PUSH1 0xFF AND DUP2 JUMP JUMPDEST PUSH2 0x897 PUSH2 0x14F6 JUMP JUMPDEST PUSH1 0x0 PUSH1 0x3 PUSH1 0x0 DUP4 DUP2 MSTORE PUSH1 0x20 ADD SWAP1 DUP2 MSTORE PUSH1 0x20 ADD PUSH1 0x0 KECCAK256 PUSH1 0x0 PUSH2 0x100 EXP DUP2 SLOAD DUP2 PUSH1 0xFF MUL NOT AND SWAP1 DUP4 ISZERO ISZERO MUL OR SWAP1 SSTORE POP PUSH1 0x0 PUSH1 0x4 PUSH1 0x0 DUP4 DUP2 MSTORE PUSH1 0x20 ADD SWAP1 DUP2 MSTORE PUSH1 0x20 ADD PUSH1 0x0 KECCAK256 PUSH1 0x0 PUSH2 0x100 EXP DUP2 SLOAD DUP2 PUSH1 0xFF MUL NOT AND SWAP1 DUP4 ISZERO ISZERO MUL OR SWAP1 SSTORE POP DUP1 PUSH31 0x2C16BF885AA20D4765BAEAE86F8008F02F3F63D3209E397E0F0D872AFCBAAC PUSH1 0x40 MLOAD PUSH1 0x40 MLOAD DUP1 SWAP2 SUB SWAP1 LOG2 POP JUMP JUMPDEST PUSH1 0x0 DUP1 PUSH1 0x0 SWAP1 SLOAD SWAP1 PUSH2 0x100 EXP SWAP1 DIV PUSH20 0xFFFFFFFFFFFFFFFFFFFFFFFFFFFFFFFFFFFFFFFF AND SWAP1 POP SWAP1 JUMP JUMPDEST PUSH1 0x60 PUSH1 0x1 DUP1 SLOAD DUP1 PUSH1 0x20 MUL PUSH1 0x20 ADD PUSH1 0x40 MLOAD SWAP1 DUP2 ADD PUSH1 0x40 MSTORE DUP1 SWAP3 SWAP2 SWAP1 DUP2 DUP2 MSTORE PUSH1 0x20 ADD DUP3 DUP1 SLOAD DUP1 ISZERO PUSH2 0x9CB JUMPI PUSH1 0x20 MUL DUP3 ADD SWAP2 SWAP1 PUSH1 0x0 MSTORE PUSH1 0x20 PUSH1 0x0 KECCAK256 SWAP1 JUMPDEST DUP2 PUSH1 0x0 SWAP1 SLOAD SWAP1 PUSH2 0x100 EXP SWAP1 DIV PUSH20 0xFFFFFFFFFFFFFFFFFFFFFFFFFFFFFFFFFFFFFFFF AND PUSH20 0xFFFFFFFFFFFFFFFFFFFFFFFFFFFFFFFFFFFFFFFF AND DUP2 MSTORE PUSH1 0x20 ADD SWAP1 PUSH1 0x1 ADD SWAP1 DUP1 DUP4 GT PUSH2 0x981 JUMPI JUMPDEST POP POP POP POP POP SWAP1 POP SWAP1 JUMP JUMPDEST PUSH1 0x2 PUSH1 0x20 MSTORE DUP1 PUSH1 0x0 MSTORE PUSH1 0x40 PUSH1 0x0 KECCAK256 PUSH1 0x0 SWAP2 POP SLOAD SWAP1 PUSH2 0x100 EXP SWAP1 DIV PUSH1 0xFF AND DUP2 JUMP JUMPDEST PUSH1 0x0 DUP1 DUP8 DUP6 DUP6 DUP9 DUP11 DUP8 PUSH1 0x40 MLOAD PUSH1 0x20 ADD PUSH2 0xA13 SWAP7 SWAP6 SWAP5 SWAP4 SWAP3 SWAP2 SWAP1 PUSH2 0x220F JUMP JUMPDEST PUSH1 0x40 MLOAD PUSH1 0x20 DUP2 DUP4 SUB SUB DUP2 MSTORE SWAP1 PUSH1 0x40 MSTORE DUP1 MLOAD SWAP1 PUSH1 0x20 ADD KECCAK256 SWAP1 POP DUP1 SWAP2 POP POP SWAP7 SWAP6 POP POP POP POP POP POP JUMP JUMPDEST PUSH1 0x2 PUSH1 0x0 PUSH2 0xA45 PUSH2 0x1641 JUMP JUMPDEST PUSH20 0xFFFFFFFFFFFFFFFFFFFFFFFFFFFFFFFFFFFFFFFF AND PUSH20 0xFFFFFFFFFFFFFFFFFFFFFFFFFFFFFFFFFFFFFFFF AND DUP2 MSTORE PUSH1 0x20 ADD SWAP1 DUP2 MSTORE PUSH1 0x20 ADD PUSH1 0x0 KECCAK256 PUSH1 0x0 SWAP1 SLOAD SWAP1 PUSH2 0x100 EXP SWAP1 DIV PUSH1 0xFF AND PUSH2 0xACC JUMPI PUSH1 0x40 MLOAD PUSH32 0x8C379A000000000000000000000000000000000000000000000000000000000 DUP2 MSTORE PUSH1 0x4 ADD PUSH2 0xAC3 SWAP1 PUSH2 0x22CB JUMP JUMPDEST PUSH1 0x40 MLOAD DUP1 SWAP2 SUB SWAP1 REVERT JUMPDEST PUSH1 0x0 DUP8 DUP6 DUP6 DUP9 DUP11 DUP8 PUSH1 0x40 MLOAD PUSH1 0x20 ADD PUSH2 0xAE9 SWAP7 SWAP6 SWAP5 SWAP4 SWAP3 SWAP2 SWAP1 PUSH2 0x220F JUMP JUMPDEST PUSH1 0x40 MLOAD PUSH1 0x20 DUP2 DUP4 SUB SUB DUP2 MSTORE SWAP1 PUSH1 0x40 MSTORE DUP1 MLOAD SWAP1 PUSH1 0x20 ADD KECCAK256 SWAP1 POP PUSH1 0x0 ISZERO ISZERO PUSH1 0x4 PUSH1 0x0 DUP4 DUP2 MSTORE PUSH1 0x20 ADD SWAP1 DUP2 MSTORE PUSH1 0x20 ADD PUSH1 0x0 KECCAK256 PUSH1 0x0 SWAP1 SLOAD SWAP1 PUSH2 0x100 EXP SWAP1 DIV PUSH1 0xFF AND ISZERO ISZERO EQ PUSH2 0xB68 JUMPI PUSH1 0x40 MLOAD PUSH32 0x8C379A000000000000000000000000000000000000000000000000000000000 DUP2 MSTORE PUSH1 0x4 ADD PUSH2 0xB5F SWAP1 PUSH2 0x235D JUMP JUMPDEST PUSH1 0x40 MLOAD DUP1 SWAP2 SUB SWAP1 REVERT JUMPDEST DUP2 PUSH1 0x5 PUSH1 0x0 DUP4 DUP2 MSTORE PUSH1 0x20 ADD SWAP1 DUP2 MSTORE PUSH1 0x20 ADD PUSH1 0x0 KECCAK256 SWAP1 DUP2 PUSH2 0xB88 SWAP2 SWAP1 PUSH2 0x2589 JUMP JUMPDEST POP PUSH1 0x1 PUSH1 0x4 PUSH1 0x0 DUP4 DUP2 MSTORE PUSH1 0x20 ADD SWAP1 DUP2 MSTORE PUSH1 0x20 ADD PUSH1 0x0 KECCAK256 PUSH1 0x0 PUSH2 0x100 EXP DUP2 SLOAD DUP2 PUSH1 0xFF MUL NOT AND SWAP1 DUP4 ISZERO ISZERO MUL OR SWAP1 SSTORE POP PUSH32 0xD2CA4D3C92AAA1163765164E7D78FA244E8D4A127E7785FE05976D2F15877418 DUP9 DUP9 DUP9 DUP9 DUP9 DUP9 DUP8 DUP10 PUSH1 0x40 MLOAD PUSH2 0xBF2 SWAP9 SWAP8 SWAP7 SWAP6 SWAP5 SWAP4 SWAP3 SWAP2 SWAP1 PUSH2 0x266A JUMP JUMPDEST PUSH1 0x40 MLOAD DUP1 SWAP2 SUB SWAP1 LOG1 POP POP POP POP POP POP POP POP JUMP JUMPDEST PUSH1 0x6 PUSH1 0x20 MSTORE DUP2 PUSH1 0x0 MSTORE PUSH1 0x40 PUSH1 0x0 KECCAK256 DUP2 DUP2 SLOAD DUP2 LT PUSH2 0xC20 JUMPI PUSH1 0x0 DUP1 REVERT JUMPDEST SWAP1 PUSH1 0x0 MSTORE PUSH1 0x20 PUSH1 0x0 KECCAK256 ADD PUSH1 0x0 SWAP2 POP SWAP2 POP POP DUP1 PUSH1 0x0 ADD DUP1 SLOAD PUSH2 0xC40 SWAP1 PUSH2 0x23AC JUMP JUMPDEST DUP1 PUSH1 0x1F ADD PUSH1 0x20 DUP1 SWAP2 DIV MUL PUSH1 0x20 ADD PUSH1 0x40 MLOAD SWAP1 DUP2 ADD PUSH1 0x40 MSTORE DUP1 SWAP3 SWAP2 SWAP1 DUP2 DUP2 MSTORE PUSH1 0x20 ADD DUP3 DUP1 SLOAD PUSH2 0xC6C SWAP1 PUSH2 0x23AC JUMP JUMPDEST DUP1 ISZERO PUSH2 0xCB9 JUMPI DUP1 PUSH1 0x1F LT PUSH2 0xC8E JUMPI PUSH2 0x100 DUP1 DUP4 SLOAD DIV MUL DUP4 MSTORE SWAP2 PUSH1 0x20 ADD SWAP2 PUSH2 0xCB9 JUMP JUMPDEST DUP3 ADD SWAP2 SWAP1 PUSH1 0x0 MSTORE PUSH1 0x20 PUSH1 0x0 KECCAK256 SWAP1 JUMPDEST DUP2 SLOAD DUP2 MSTORE SWAP1 PUSH1 0x1 ADD SWAP1 PUSH1 0x20 ADD DUP1 DUP4 GT PUSH2 0xC9C JUMPI DUP3 SWAP1 SUB PUSH1 0x1F AND DUP3 ADD SWAP2 JUMPDEST POP POP POP POP POP SWAP1 POP DUP2 JUMP JUMPDEST PUSH2 0xCCB PUSH2 0x14F6 JUMP JUMPDEST PUSH1 0x0 PUSH1 0x7 PUSH1 0x0 DUP5 DUP2 MSTORE PUSH1 0x20 ADD SWAP1 DUP2 MSTORE PUSH1 0x20 ADD PUSH1 0x0 KECCAK256 PUSH1 0x0 DUP4 PUSH20 0xFFFFFFFFFFFFFFFFFFFFFFFFFFFFFFFFFFFFFFFF AND PUSH20 0xFFFFFFFFFFFFFFFFFFFFFFFFFFFFFFFFFFFFFFFF AND DUP2 MSTORE PUSH1 0x20 ADD SWAP1 DUP2 MSTORE PUSH1 0x20 ADD PUSH1 0x0 KECCAK256 PUSH1 0x0 PUSH2 0x100 EXP DUP2 SLOAD DUP2 PUSH1 0xFF MUL NOT AND SWAP1 DUP4 ISZERO ISZERO MUL OR SWAP1 SSTORE POP DUP2 PUSH32 0xD413D6FF4B1C2B25D152B1AA4952AA05C186945476D4BCE9B8A86B599B01F31F DUP3 PUSH1 0x40 MLOAD PUSH2 0xD64 SWAP2 SWAP1 PUSH2 0x181D JUMP JUMPDEST PUSH1 0x40 MLOAD DUP1 SWAP2 SUB SWAP1 LOG2 POP POP JUMP JUMPDEST PUSH2 0xD78 PUSH2 0x14F6 JUMP JUMPDEST PUSH1 0x0 PUSH20 0xFFFFFFFFFFFFFFFFFFFFFFFFFFFFFFFFFFFFFFFF AND DUP2 PUSH20 0xFFFFFFFFFFFFFFFFFFFFFFFFFFFFFFFFFFFFFFFF AND SUB PUSH2 0xDE7 JUMPI PUSH1 0x40 MLOAD PUSH32 0x8C379A000000000000000000000000000000000000000000000000000000000 DUP2 MSTORE PUSH1 0x4 ADD PUSH2 0xDDE SWAP1 PUSH2 0x1F2A JUMP JUMPDEST PUSH1 0x40 MLOAD DUP1 SWAP2 SUB SWAP1 REVERT JUMPDEST PUSH1 0x2 PUSH1 0x0 DUP3 PUSH20 0xFFFFFFFFFFFFFFFFFFFFFFFFFFFFFFFFFFFFFFFF AND PUSH20 0xFFFFFFFFFFFFFFFFFFFFFFFFFFFFFFFFFFFFFFFF AND DUP2 MSTORE PUSH1 0x20 ADD SWAP1 DUP2 MSTORE PUSH1 0x20 ADD PUSH1 0x0 KECCAK256 PUSH1 0x0 SWAP1 SLOAD SWAP1 PUSH2 0x100 EXP SWAP1 DIV PUSH1 0xFF AND ISZERO PUSH2 0xE74 JUMPI PUSH1 0x40 MLOAD PUSH32 0x8C379A000000000000000000000000000000000000000000000000000000000 DUP2 MSTORE PUSH1 0x4 ADD PUSH2 0xE6B SWAP1 PUSH2 0x2761 JUMP JUMPDEST PUSH1 0x40 MLOAD DUP1 SWAP2 SUB SWAP1 REVERT JUMPDEST PUSH1 0x1 PUSH1 0x2 PUSH1 0x0 DUP4 PUSH20 0xFFFFFFFFFFFFFFFFFFFFFFFFFFFFFFFFFFFFFFFF AND PUSH20 0xFFFFFFFFFFFFFFFFFFFFFFFFFFFFFFFFFFFFFFFF AND DUP2 MSTORE PUSH1 0x20 ADD SWAP1 DUP2 MSTORE PUSH1 0x20 ADD PUSH1 0x0 KECCAK256 PUSH1 0x0 PUSH2 0x100 EXP DUP2 SLOAD DUP2 PUSH1 0xFF MUL NOT AND SWAP1 DUP4 ISZERO ISZERO MUL OR SWAP1 SSTORE POP PUSH1 0x1 DUP2 SWAP1 DUP1 PUSH1 0x1 DUP2 SLOAD ADD DUP1 DUP3 SSTORE DUP1 SWAP2 POP POP PUSH1 0x1 SWAP1 SUB SWAP1 PUSH1 0x0 MSTORE PUSH1 0x20 PUSH1 0x0 KECCAK256 ADD PUSH1 0x0 SWAP1 SWAP2 SWAP1 SWAP2 SWAP1 SWAP2 PUSH2 0x100 EXP DUP2 SLOAD DUP2 PUSH20 0xFFFFFFFFFFFFFFFFFFFFFFFFFFFFFFFFFFFFFFFF MUL NOT AND SWAP1 DUP4 PUSH20 0xFFFFFFFFFFFFFFFFFFFFFFFFFFFFFFFFFFFFFFFF AND MUL OR SWAP1 SSTORE POP DUP1 PUSH20 0xFFFFFFFFFFFFFFFFFFFFFFFFFFFFFFFFFFFFFFFF AND PUSH32 0x72114E270DE66B9D2710ECF140403E5E99B1574767D6A8197BDC8D807A46E7C7 PUSH1 0x40 MLOAD PUSH1 0x40 MLOAD DUP1 SWAP2 SUB SWAP1 LOG2 POP JUMP JUMPDEST PUSH1 0x2 PUSH1 0x0 PUSH2 0xF81 PUSH2 0x1641 JUMP JUMPDEST PUSH20 0xFFFFFFFFFFFFFFFFFFFFFFFFFFFFFFFFFFFFFFFF AND PUSH20 0xFFFFFFFFFFFFFFFFFFFFFFFFFFFFFFFFFFFFFFFF AND DUP2 MSTORE PUSH1 0x20 ADD SWAP1 DUP2 MSTORE PUSH1 0x20 ADD PUSH1 0x0 KECCAK256 PUSH1 0x0 SWAP1 SLOAD SWAP1 PUSH2 0x100 EXP SWAP1 DIV PUSH1 0xFF AND PUSH2 0x1008 JUMPI PUSH1 0x40 MLOAD PUSH32 0x8C379A000000000000000000000000000000000000000000000000000000000 DUP2 MSTORE PUSH1 0x4 ADD PUSH2 0xFFF SWAP1 PUSH2 0x22CB JUMP JUMPDEST PUSH1 0x40 MLOAD DUP1 SWAP2 SUB SWAP1 REVERT JUMPDEST PUSH1 0x0 DUP9 DUP7 DUP7 DUP10 DUP12 DUP9 PUSH1 0x40 MLOAD PUSH1 0x20 ADD PUSH2 0x1025 SWAP7 SWAP6 SWAP5 SWAP4 SWAP3 SWAP2 SWAP1 PUSH2 0x220F JUMP JUMPDEST PUSH1 0x40 MLOAD PUSH1 0x20 DUP2 DUP4 SUB SUB DUP2 MSTORE SWAP1 PUSH1 0x40 MSTORE DUP1 MLOAD SWAP1 PUSH1 0x20 ADD KECCAK256 SWAP1 POP PUSH1 0x0 ISZERO ISZERO PUSH1 0x7 PUSH1 0x0 DUP4 DUP2 MSTORE PUSH1 0x20 ADD SWAP1 DUP2 MSTORE PUSH1 0x20 ADD PUSH1 0x0 KECCAK256 PUSH1 0x0 PUSH2 0x105E PUSH2 0x1641 JUMP JUMPDEST PUSH20 0xFFFFFFFFFFFFFFFFFFFFFFFFFFFFFFFFFFFFFFFF AND PUSH20 0xFFFFFFFFFFFFFFFFFFFFFFFFFFFFFFFFFFFFFFFF AND DUP2 MSTORE PUSH1 0x20 ADD SWAP1 DUP2 MSTORE PUSH1 0x20 ADD PUSH1 0x0 KECCAK256 PUSH1 0x0 SWAP1 SLOAD SWAP1 PUSH2 0x100 EXP SWAP1 DIV PUSH1 0xFF AND ISZERO ISZERO EQ PUSH2 0x10E8 JUMPI PUSH1 0x40 MLOAD PUSH32 0x8C379A000000000000000000000000000000000000000000000000000000000 DUP2 MSTORE PUSH1 0x4 ADD PUSH2 0x10DF SWAP1 PUSH2 0x27F3 JUMP JUMPDEST PUSH1 0x40 MLOAD DUP1 SWAP2 SUB SWAP1 REVERT JUMPDEST DUP2 PUSH1 0x7 PUSH1 0x0 DUP4 DUP2 MSTORE PUSH1 0x20 ADD SWAP1 DUP2 MSTORE PUSH1 0x20 ADD PUSH1 0x0 KECCAK256 PUSH1 0x0 PUSH2 0x1106 PUSH2 0x1641 JUMP JUMPDEST PUSH20 0xFFFFFFFFFFFFFFFFFFFFFFFFFFFFFFFFFFFFFFFF AND PUSH20 0xFFFFFFFFFFFFFFFFFFFFFFFFFFFFFFFFFFFFFFFF AND DUP2 MSTORE PUSH1 0x20 ADD SWAP1 DUP2 MSTORE PUSH1 0x20 ADD PUSH1 0x0 KECCAK256 PUSH1 0x0 PUSH2 0x100 EXP DUP2 SLOAD DUP2 PUSH1 0xFF MUL NOT AND SWAP1 DUP4 ISZERO ISZERO MUL OR SWAP1 SSTORE POP PUSH1 0x6 PUSH1 0x0 DUP3 DUP2 MSTORE PUSH1 0x20 ADD SWAP1 DUP2 MSTORE PUSH1 0x20 ADD PUSH1 0x0 KECCAK256 PUSH1 0x40 MLOAD DUP1 PUSH1 0x20 ADD PUSH1 0x40 MSTORE DUP1 DUP6 DUP2 MSTORE POP SWAP1 DUP1 PUSH1 0x1 DUP2 SLOAD ADD DUP1 DUP3 SSTORE DUP1 SWAP2 POP POP PUSH1 0x1 SWAP1 SUB SWAP1 PUSH1 0x0 MSTORE PUSH1 0x20 PUSH1 0x0 KECCAK256 ADD PUSH1 0x0 SWAP1 SWAP2 SWAP1 SWAP2 SWAP1 SWAP2 POP PUSH1 0x0 DUP3 ADD MLOAD DUP2 PUSH1 0x0 ADD SWAP1 DUP2 PUSH2 0x11B3 SWAP2 SWAP1 PUSH2 0x2589 JUMP JUMPDEST POP POP POP PUSH2 0x11BE PUSH2 0x1641 JUMP JUMPDEST PUSH20 0xFFFFFFFFFFFFFFFFFFFFFFFFFFFFFFFFFFFFFFFF AND DUP2 PUSH32 0xCE56C85627B49E4B4A8F108690C2337D73B5D804AAFD560ADD629AFAD5CE21D7 DUP12 DUP12 DUP12 DUP12 DUP12 DUP12 DUP11 DUP13 PUSH1 0x40 MLOAD PUSH2 0x1212 SWAP9 SWAP8 SWAP7 SWAP6 SWAP5 SWAP4 SWAP3 SWAP2 SWAP1 PUSH2 0x2813 JUMP JUMPDEST PUSH1 0x40 MLOAD DUP1 SWAP2 SUB SWAP1 LOG3 POP POP POP POP POP POP POP POP POP JUMP JUMPDEST PUSH1 0x2 PUSH1 0x0 PUSH2 0x1231 PUSH2 0x1641 JUMP JUMPDEST PUSH20 0xFFFFFFFFFFFFFFFFFFFFFFFFFFFFFFFFFFFFFFFF AND PUSH20 0xFFFFFFFFFFFFFFFFFFFFFFFFFFFFFFFFFFFFFFFF AND DUP2 MSTORE PUSH1 0x20 ADD SWAP1 DUP2 MSTORE PUSH1 0x20 ADD PUSH1 0x0 KECCAK256 PUSH1 0x0 SWAP1 SLOAD SWAP1 PUSH2 0x100 EXP SWAP1 DIV PUSH1 0xFF AND PUSH2 0x12B8 JUMPI PUSH1 0x40 MLOAD PUSH32 0x8C379A000000000000000000000000000000000000000000000000000000000 DUP2 MSTORE PUSH1 0x4 ADD PUSH2 0x12AF SWAP1 PUSH2 0x22CB JUMP JUMPDEST PUSH1 0x40 MLOAD DUP1 SWAP2 SUB SWAP1 REVERT JUMPDEST PUSH1 0x0 DUP9 DUP7 DUP7 DUP10 DUP12 DUP9 PUSH1 0x40 MLOAD PUSH1 0x20 ADD PUSH2 0x12D5 SWAP7 SWAP6 SWAP5 SWAP4 SWAP3 SWAP2 SWAP1 PUSH2 0x220F JUMP JUMPDEST PUSH1 0x40 MLOAD PUSH1 0x20 DUP2 DUP4 SUB SUB DUP2 MSTORE SWAP1 PUSH1 0x40 MSTORE DUP1 MLOAD SWAP1 PUSH1 0x20 ADD KECCAK256 SWAP1 POP PUSH1 0x0 ISZERO ISZERO PUSH1 0x3 PUSH1 0x0 DUP4 DUP2 MSTORE PUSH1 0x20 ADD SWAP1 DUP2 MSTORE PUSH1 0x20 ADD PUSH1 0x0 KECCAK256 PUSH1 0x0 SWAP1 SLOAD SWAP1 PUSH2 0x100 EXP SWAP1 DIV PUSH1 0xFF AND ISZERO ISZERO EQ PUSH2 0x1354 JUMPI PUSH1 0x40 MLOAD PUSH32 0x8C379A000000000000000000000000000000000000000000000000000000000 DUP2 MSTORE PUSH1 0x4 ADD PUSH2 0x134B SWAP1 PUSH2 0x290A JUMP JUMPDEST PUSH1 0x40 MLOAD DUP1 SWAP2 SUB SWAP1 REVERT JUMPDEST DUP3 PUSH1 0x3 PUSH1 0x0 DUP4 DUP2 MSTORE PUSH1 0x20 ADD SWAP1 DUP2 MSTORE PUSH1 0x20 ADD PUSH1 0x0 KECCAK256 PUSH1 0x0 PUSH2 0x100 EXP DUP2 SLOAD DUP2 PUSH1 0xFF MUL NOT AND SWAP1 DUP4 ISZERO ISZERO MUL OR SWAP1 SSTORE POP DUP1 PUSH32 0xF75DE4FDEAAECB51B4D0AFD82A74214E4DD260A22CDCFC10E1CA5413C84F96FC DUP11 DUP11 DUP11 DUP11 DUP11 DUP11 DUP11 DUP11 PUSH1 0x40 MLOAD PUSH2 0x13BD SWAP9 SWAP8 SWAP7 SWAP6 SWAP5 SWAP4 SWAP3 SWAP2 SWAP1 PUSH2 0x292A JUMP JUMPDEST PUSH1 0x40 MLOAD DUP1 SWAP2 SUB SWAP1 LOG2 POP POP POP POP POP POP POP POP POP JUMP JUMPDEST PUSH1 0x5 PUSH1 0x20 MSTORE DUP1 PUSH1 0x0 MSTORE PUSH1 0x40 PUSH1 0x0 KECCAK256 PUSH1 0x0 SWAP2 POP SWAP1 POP DUP1 SLOAD PUSH2 0x13EF SWAP1 PUSH2 0x23AC JUMP JUMPDEST DUP1 PUSH1 0x1F ADD PUSH1 0x20 DUP1 SWAP2 DIV MUL PUSH1 0x20 ADD PUSH1 0x40 MLOAD SWAP1 DUP2 ADD PUSH1 0x40 MSTORE DUP1 SWAP3 SWAP2 SWAP1 DUP2 DUP2 MSTORE PUSH1 0x20 ADD DUP3 DUP1 SLOAD PUSH2 0x141B SWAP1 PUSH2 0x23AC JUMP JUMPDEST DUP1 ISZERO PUSH2 0x1468 JUMPI DUP1 PUSH1 0x1F LT PUSH2 0x143D JUMPI PUSH2 0x100 DUP1 DUP4 SLOAD DIV MUL DUP4 MSTORE SWAP2 PUSH1 0x20 ADD SWAP2 PUSH2 0x1468 JUMP JUMPDEST DUP3 ADD SWAP2 SWAP1 PUSH1 0x0 MSTORE PUSH1 0x20 PUSH1 0x0 KECCAK256 SWAP1 JUMPDEST DUP2 SLOAD DUP2 MSTORE SWAP1 PUSH1 0x1 ADD SWAP1 PUSH1 0x20 ADD DUP1 DUP4 GT PUSH2 0x144B JUMPI DUP3 SWAP1 SUB PUSH1 0x1F AND DUP3 ADD SWAP2 JUMPDEST POP POP POP POP POP DUP2 JUMP JUMPDEST PUSH2 0x1478 PUSH2 0x14F6 JUMP JUMPDEST PUSH1 0x0 PUSH20 0xFFFFFFFFFFFFFFFFFFFFFFFFFFFFFFFFFFFFFFFF AND DUP2 PUSH20 0xFFFFFFFFFFFFFFFFFFFFFFFFFFFFFFFFFFFFFFFF AND SUB PUSH2 0x14EA JUMPI PUSH1 0x0 PUSH1 0x40 MLOAD PUSH32 0x1E4FBDF700000000000000000000000000000000000000000000000000000000 DUP2 MSTORE PUSH1 0x4 ADD PUSH2 0x14E1 SWAP2 SWAP1 PUSH2 0x181D JUMP JUMPDEST PUSH1 0x40 MLOAD DUP1 SWAP2 SUB SWAP1 REVERT JUMPDEST PUSH2 0x14F3 DUP2 PUSH2 0x157D JUMP JUMPDEST POP JUMP JUMPDEST PUSH2 0x14FE PUSH2 0x1641 JUMP JUMPDEST PUSH20 0xFFFFFFFFFFFFFFFFFFFFFFFFFFFFFFFFFFFFFFFF AND PUSH2 0x151C PUSH2 0x91E JUMP JUMPDEST PUSH20 0xFFFFFFFFFFFFFFFFFFFFFFFFFFFFFFFFFFFFFFFF AND EQ PUSH2 0x157B JUMPI PUSH2 0x153F PUSH2 0x1641 JUMP JUMPDEST PUSH1 0x40 MLOAD PUSH32 0x118CDAA700000000000000000000000000000000000000000000000000000000 DUP2 MSTORE PUSH1 0x4 ADD PUSH2 0x1572 SWAP2 SWAP1 PUSH2 0x181D JUMP JUMPDEST PUSH1 0x40 MLOAD DUP1 SWAP2 SUB SWAP1 REVERT JUMPDEST JUMP JUMPDEST PUSH1 0x0 DUP1 PUSH1 0x0 SWAP1 SLOAD SWAP1 PUSH2 0x100 EXP SWAP1 DIV PUSH20 0xFFFFFFFFFFFFFFFFFFFFFFFFFFFFFFFFFFFFFFFF AND SWAP1 POP DUP2 PUSH1 0x0 DUP1 PUSH2 0x100 EXP DUP2 SLOAD DUP2 PUSH20 0xFFFFFFFFFFFFFFFFFFFFFFFFFFFFFFFFFFFFFFFF MUL NOT AND SWAP1 DUP4 PUSH20 0xFFFFFFFFFFFFFFFFFFFFFFFFFFFFFFFFFFFFFFFF AND MUL OR SWAP1 SSTORE POP DUP2 PUSH20 0xFFFFFFFFFFFFFFFFFFFFFFFFFFFFFFFFFFFFFFFF AND DUP2 PUSH20 0xFFFFFFFFFFFFFFFFFFFFFFFFFFFFFFFFFFFFFFFF AND PUSH32 0x8BE0079C531659141344CD1FD0A4F28419497F9722A3DAAFE3B4186F6B6457E0 PUSH1 0x40 MLOAD PUSH1 0x40 MLOAD DUP1 SWAP2 SUB SWAP1 LOG3 POP POP JUMP JUMPDEST PUSH1 0x0 CALLER SWAP1 POP SWAP1 JUMP JUMPDEST PUSH1 0x0 PUSH1 0x40 MLOAD SWAP1 POP SWAP1 JUMP JUMPDEST PUSH1 0x0 DUP1 REVERT JUMPDEST PUSH1 0x0 DUP1 REVERT JUMPDEST PUSH1 0x0 PUSH20 0xFFFFFFFFFFFFFFFFFFFFFFFFFFFFFFFFFFFFFFFF DUP3 AND SWAP1 POP SWAP2 SWAP1 POP JUMP JUMPDEST PUSH1 0x0 PUSH2 0x1688 DUP3 PUSH2 0x165D JUMP JUMPDEST SWAP1 POP SWAP2 SWAP1 POP JUMP JUMPDEST PUSH2 0x1698 DUP2 PUSH2 0x167D JUMP JUMPDEST DUP2 EQ PUSH2 0x16A3 JUMPI PUSH1 0x0 DUP1 REVERT JUMPDEST POP JUMP JUMPDEST PUSH1 0x0 DUP2 CALLDATALOAD SWAP1 POP PUSH2 0x16B5 DUP2 PUSH2 0x168F JUMP JUMPDEST SWAP3 SWAP2 POP POP JUMP JUMPDEST PUSH1 0x0 PUSH1 0x20 DUP3 DUP5 SUB SLT ISZERO PUSH2 0x16D1 JUMPI PUSH2 0x16D0 PUSH2 0x1653 JUMP JUMPDEST JUMPDEST PUSH1 0x0 PUSH2 0x16DF DUP5 DUP3 DUP6 ADD PUSH2 0x16A6 JUMP JUMPDEST SWAP2 POP POP SWAP3 SWAP2 POP POP JUMP JUMPDEST PUSH1 0x0 DUP2 SWAP1 POP SWAP2 SWAP1 POP JUMP JUMPDEST PUSH2 0x16FB DUP2 PUSH2 0x16E8 JUMP JUMPDEST DUP2 EQ PUSH2 0x1706 JUMPI PUSH1 0x0 DUP1 REVERT JUMPDEST POP JUMP JUMPDEST PUSH1 0x0 DUP2 CALLDATALOAD SWAP1 POP PUSH2 0x1718 DUP2 PUSH2 0x16F2 JUMP JUMPDEST SWAP3 SWAP2 POP POP JUMP JUMPDEST PUSH1 0x0 PUSH1 0x20 DUP3 DUP5 SUB SLT ISZERO PUSH2 0x1734 JUMPI PUSH2 0x1733 PUSH2 0x1653 JUMP JUMPDEST JUMPDEST PUSH1 0x0 PUSH2 0x1742 DUP5 DUP3 DUP6 ADD PUSH2 0x1709 JUMP JUMPDEST SWAP2 POP POP SWAP3 SWAP2 POP POP JUMP JUMPDEST PUSH1 0x0 DUP2 ISZERO ISZERO SWAP1 POP SWAP2 SWAP1 POP JUMP JUMPDEST PUSH2 0x1760 DUP2 PUSH2 0x174B JUMP JUMPDEST DUP3 MSTORE POP POP JUMP JUMPDEST PUSH1 0x0 PUSH1 0x20 DUP3 ADD SWAP1 POP PUSH2 0x177B PUSH1 0x0 DUP4 ADD DUP5 PUSH2 0x1757 JUMP JUMPDEST SWAP3 SWAP2 POP POP JUMP JUMPDEST PUSH1 0x0 DUP2 SWAP1 POP SWAP2 SWAP1 POP JUMP JUMPDEST PUSH2 0x1794 DUP2 PUSH2 0x1781 JUMP JUMPDEST DUP3 MSTORE POP POP JUMP JUMPDEST PUSH1 0x0 PUSH1 0x20 DUP3 ADD SWAP1 POP PUSH2 0x17AF PUSH1 0x0 DUP4 ADD DUP5 PUSH2 0x178B JUMP JUMPDEST SWAP3 SWAP2 POP POP JUMP JUMPDEST PUSH2 0x17BE DUP2 PUSH2 0x1781 JUMP JUMPDEST DUP2 EQ PUSH2 0x17C9 JUMPI PUSH1 0x0 DUP1 REVERT JUMPDEST POP JUMP JUMPDEST PUSH1 0x0 DUP2 CALLDATALOAD SWAP1 POP PUSH2 0x17DB DUP2 PUSH2 0x17B5 JUMP JUMPDEST SWAP3 SWAP2 POP POP JUMP JUMPDEST PUSH1 0x0 PUSH1 0x20 DUP3 DUP5 SUB SLT ISZERO PUSH2 0x17F7 JUMPI PUSH2 0x17F6 PUSH2 0x1653 JUMP JUMPDEST JUMPDEST PUSH1 0x0 PUSH2 0x1805 DUP5 DUP3 DUP6 ADD PUSH2 0x17CC JUMP JUMPDEST SWAP2 POP POP SWAP3 SWAP2 POP POP JUMP JUMPDEST PUSH2 0x1817 DUP2 PUSH2 0x167D JUMP JUMPDEST DUP3 MSTORE POP POP JUMP JUMPDEST PUSH1 0x0 PUSH1 0x20 DUP3 ADD SWAP1 POP PUSH2 0x1832 PUSH1 0x0 DUP4 ADD DUP5 PUSH2 0x180E JUMP JUMPDEST SWAP3 SWAP2 POP POP JUMP JUMPDEST PUSH1 0x0 DUP1 PUSH1 0x40 DUP4 DUP6 SUB SLT ISZERO PUSH2 0x184F JUMPI PUSH2 0x184E PUSH2 0x1653 JUMP JUMPDEST JUMPDEST PUSH1 0x0 PUSH2 0x185D DUP6 DUP3 DUP7 ADD PUSH2 0x1709 JUMP JUMPDEST SWAP3 POP POP PUSH1 0x20 PUSH2 0x186E DUP6 DUP3 DUP7 ADD PUSH2 0x16A6 JUMP JUMPDEST SWAP2 POP POP SWAP3 POP SWAP3 SWAP1 POP JUMP JUMPDEST PUSH1 0x0 DUP2 MLOAD SWAP1 POP SWAP2 SWAP1 POP JUMP JUMPDEST PUSH1 0x0 DUP3 DUP3 MSTORE PUSH1 0x20 DUP3 ADD SWAP1 POP SWAP3 SWAP2 POP POP JUMP JUMPDEST PUSH1 0x0 DUP2 SWAP1 POP PUSH1 0x20 DUP3 ADD SWAP1 POP SWAP2 SWAP1 POP JUMP JUMPDEST PUSH2 0x18AD DUP2 PUSH2 0x167D JUMP JUMPDEST DUP3 MSTORE POP POP JUMP JUMPDEST PUSH1 0x0 PUSH2 0x18BF DUP4 DUP4 PUSH2 0x18A4 JUMP JUMPDEST PUSH1 0x20 DUP4 ADD SWAP1 POP SWAP3 SWAP2 POP POP JUMP JUMPDEST PUSH1 0x0 PUSH1 0x20 DUP3 ADD SWAP1 POP SWAP2 SWAP1 POP JUMP JUMPDEST PUSH1 0x0 PUSH2 0x18E3 DUP3 PUSH2 0x1878 JUMP JUMPDEST PUSH2 0x18ED DUP2 DUP6 PUSH2 0x1883 JUMP JUMPDEST SWAP4 POP PUSH2 0x18F8 DUP4 PUSH2 0x1894 JUMP JUMPDEST DUP1 PUSH1 0x0 JUMPDEST DUP4 DUP2 LT ISZERO PUSH2 0x1929 JUMPI DUP2 MLOAD PUSH2 0x1910 DUP9 DUP3 PUSH2 0x18B3 JUMP JUMPDEST SWAP8 POP PUSH2 0x191B DUP4 PUSH2 0x18CB JUMP JUMPDEST SWAP3 POP POP PUSH1 0x1 DUP2 ADD SWAP1 POP PUSH2 0x18FC JUMP JUMPDEST POP DUP6 SWAP4 POP POP POP POP SWAP3 SWAP2 POP POP JUMP JUMPDEST PUSH1 0x0 PUSH1 0x20 DUP3 ADD SWAP1 POP DUP2 DUP2 SUB PUSH1 0x0 DUP4 ADD MSTORE PUSH2 0x1950 DUP2 DUP5 PUSH2 0x18D8 JUMP JUMPDEST SWAP1 POP SWAP3 SWAP2 POP POP JUMP JUMPDEST PUSH1 0x4 DUP2 LT PUSH2 0x1965 JUMPI PUSH1 0x0 DUP1 REVERT JUMPDEST POP JUMP JUMPDEST PUSH1 0x0 DUP2 CALLDATALOAD SWAP1 POP PUSH2 0x1977 DUP2 PUSH2 0x1958 JUMP JUMPDEST SWAP3 SWAP2 POP POP JUMP JUMPDEST PUSH1 0x0 DUP1 PUSH1 0x0 DUP1 PUSH1 0x0 DUP1 PUSH1 0xC0 DUP8 DUP10 SUB SLT ISZERO PUSH2 0x199A JUMPI PUSH2 0x1999 PUSH2 0x1653 JUMP JUMPDEST JUMPDEST PUSH1 0x0 PUSH2 0x19A8 DUP10 DUP3 DUP11 ADD PUSH2 0x1709 JUMP JUMPDEST SWAP7 POP POP PUSH1 0x20 PUSH2 0x19B9 DUP10 DUP3 DUP11 ADD PUSH2 0x1709 JUMP JUMPDEST SWAP6 POP POP PUSH1 0x40 PUSH2 0x19CA DUP10 DUP3 DUP11 ADD PUSH2 0x17CC JUMP JUMPDEST SWAP5 POP POP PUSH1 0x60 PUSH2 0x19DB DUP10 DUP3 DUP11 ADD PUSH2 0x1709 JUMP JUMPDEST SWAP4 POP POP PUSH1 0x80 PUSH2 0x19EC DUP10 DUP3 DUP11 ADD PUSH2 0x1709 JUMP JUMPDEST SWAP3 POP POP PUSH1 0xA0 PUSH2 0x19FD DUP10 DUP3 DUP11 ADD PUSH2 0x1968 JUMP JUMPDEST SWAP2 POP POP SWAP3 SWAP6 POP SWAP3 SWAP6 POP SWAP3 SWAP6 JUMP JUMPDEST PUSH2 0x1A13 DUP2 PUSH2 0x16E8 JUMP JUMPDEST DUP3 MSTORE POP POP JUMP JUMPDEST PUSH1 0x0 PUSH1 0x20 DUP3 ADD SWAP1 POP PUSH2 0x1A2E PUSH1 0x0 DUP4 ADD DUP5 PUSH2 0x1A0A JUMP JUMPDEST SWAP3 SWAP2 POP POP JUMP JUMPDEST PUSH1 0x0 DUP1 REVERT JUMPDEST PUSH1 0x0 DUP1 REVERT JUMPDEST PUSH1 0x0 PUSH1 0x1F NOT PUSH1 0x1F DUP4 ADD AND SWAP1 POP SWAP2 SWAP1 POP JUMP JUMPDEST PUSH32 0x4E487B7100000000000000000000000000000000000000000000000000000000 PUSH1 0x0 MSTORE PUSH1 0x41 PUSH1 0x4 MSTORE PUSH1 0x24 PUSH1 0x0 REVERT JUMPDEST PUSH2 0x1A87 DUP3 PUSH2 0x1A3E JUMP JUMPDEST DUP2 ADD DUP2 DUP2 LT PUSH8 0xFFFFFFFFFFFFFFFF DUP3 GT OR ISZERO PUSH2 0x1AA6 JUMPI PUSH2 0x1AA5 PUSH2 0x1A4F JUMP JUMPDEST JUMPDEST DUP1 PUSH1 0x40 MSTORE POP POP POP JUMP JUMPDEST PUSH1 0x0 PUSH2 0x1AB9 PUSH2 0x1649 JUMP JUMPDEST SWAP1 POP PUSH2 0x1AC5 DUP3 DUP3 PUSH2 0x1A7E JUMP JUMPDEST SWAP2 SWAP1 POP JUMP JUMPDEST PUSH1 0x0 PUSH8 0xFFFFFFFFFFFFFFFF DUP3 GT ISZERO PUSH2 0x1AE5 JUMPI PUSH2 0x1AE4 PUSH2 0x1A4F JUMP JUMPDEST JUMPDEST PUSH2 0x1AEE DUP3 PUSH2 0x1A3E JUMP JUMPDEST SWAP1 POP PUSH1 0x20 DUP2 ADD SWAP1 POP SWAP2 SWAP1 POP JUMP JUMPDEST DUP3 DUP2 DUP4 CALLDATACOPY PUSH1 0x0 DUP4 DUP4 ADD MSTORE POP POP POP JUMP JUMPDEST PUSH1 0x0 PUSH2 0x1B1D PUSH2 0x1B18 DUP5 PUSH2 0x1ACA JUMP JUMPDEST PUSH2 0x1AAF JUMP JUMPDEST SWAP1 POP DUP3 DUP2 MSTORE PUSH1 0x20 DUP2 ADD DUP5 DUP5 DUP5 ADD GT ISZERO PUSH2 0x1B39 JUMPI PUSH2 0x1B38 PUSH2 0x1A39 JUMP JUMPDEST JUMPDEST PUSH2 0x1B44 DUP5 DUP3 DUP6 PUSH2 0x1AFB JUMP JUMPDEST POP SWAP4 SWAP3 POP POP POP JUMP JUMPDEST PUSH1 0x0 DUP3 PUSH1 0x1F DUP4 ADD SLT PUSH2 0x1B61 JUMPI PUSH2 0x1B60 PUSH2 0x1A34 JUMP JUMPDEST JUMPDEST DUP2 CALLDATALOAD PUSH2 0x1B71 DUP5 DUP3 PUSH1 0x20 DUP7 ADD PUSH2 0x1B0A JUMP JUMPDEST SWAP2 POP POP SWAP3 SWAP2 POP POP JUMP JUMPDEST PUSH1 0x0 DUP1 PUSH1 0x0 DUP1 PUSH1 0x0 DUP1 PUSH1 0x0 PUSH1 0xE0 DUP9 DUP11 SUB SLT ISZERO PUSH2 0x1B99 JUMPI PUSH2 0x1B98 PUSH2 0x1653 JUMP JUMPDEST JUMPDEST PUSH1 0x0 PUSH2 0x1BA7 DUP11 DUP3 DUP12 ADD PUSH2 0x1709 JUMP JUMPDEST SWAP8 POP POP PUSH1 0x20 PUSH2 0x1BB8 DUP11 DUP3 DUP12 ADD PUSH2 0x1709 JUMP JUMPDEST SWAP7 POP POP PUSH1 0x40 PUSH2 0x1BC9 DUP11 DUP3 DUP12 ADD PUSH2 0x17CC JUMP JUMPDEST SWAP6 POP POP PUSH1 0x60 PUSH2 0x1BDA DUP11 DUP3 DUP12 ADD PUSH2 0x1709 JUMP JUMPDEST SWAP5 POP POP PUSH1 0x80 PUSH2 0x1BEB DUP11 DUP3 DUP12 ADD PUSH2 0x1709 JUMP JUMPDEST SWAP4 POP POP PUSH1 0xA0 PUSH2 0x1BFC DUP11 DUP3 DUP12 ADD PUSH2 0x1968 JUMP JUMPDEST SWAP3 POP POP PUSH1 0xC0 DUP9 ADD CALLDATALOAD PUSH8 0xFFFFFFFFFFFFFFFF DUP2 GT ISZERO PUSH2 0x1C1D JUMPI PUSH2 0x1C1C PUSH2 0x1658 JUMP JUMPDEST JUMPDEST PUSH2 0x1C29 DUP11 DUP3 DUP12 ADD PUSH2 0x1B4C JUMP JUMPDEST SWAP2 POP POP SWAP3 SWAP6 SWAP9 SWAP2 SWAP5 SWAP8 POP SWAP3 SWAP6 POP JUMP JUMPDEST PUSH1 0x0 DUP1 PUSH1 0x40 DUP4 DUP6 SUB SLT ISZERO PUSH2 0x1C4F JUMPI PUSH2 0x1C4E PUSH2 0x1653 JUMP JUMPDEST JUMPDEST PUSH1 0x0 PUSH2 0x1C5D DUP6 DUP3 DUP7 ADD PUSH2 0x1709 JUMP JUMPDEST SWAP3 POP POP PUSH1 0x20 PUSH2 0x1C6E DUP6 DUP3 DUP7 ADD PUSH2 0x17CC JUMP JUMPDEST SWAP2 POP POP SWAP3 POP SWAP3 SWAP1 POP JUMP JUMPDEST PUSH1 0x0 DUP2 MLOAD SWAP1 POP SWAP2 SWAP1 POP JUMP JUMPDEST PUSH1 0x0 DUP3 DUP3 MSTORE PUSH1 0x20 DUP3 ADD SWAP1 POP SWAP3 SWAP2 POP POP JUMP JUMPDEST PUSH1 0x0 JUMPDEST DUP4 DUP2 LT ISZERO PUSH2 0x1CB2 JUMPI DUP1 DUP3 ADD MLOAD DUP2 DUP5 ADD MSTORE PUSH1 0x20 DUP2 ADD SWAP1 POP PUSH2 0x1C97 JUMP JUMPDEST PUSH1 0x0 DUP5 DUP5 ADD MSTORE POP POP POP POP JUMP JUMPDEST PUSH1 0x0 PUSH2 0x1CC9 DUP3 PUSH2 0x1C78 JUMP JUMPDEST PUSH2 0x1CD3 DUP2 DUP6 PUSH2 0x1C83 JUMP JUMPDEST SWAP4 POP PUSH2 0x1CE3 DUP2 DUP6 PUSH1 0x20 DUP7 ADD PUSH2 0x1C94 JUMP JUMPDEST PUSH2 0x1CEC DUP2 PUSH2 0x1A3E JUMP JUMPDEST DUP5 ADD SWAP2 POP POP SWAP3 SWAP2 POP POP JUMP JUMPDEST PUSH1 0x0 PUSH1 0x20 DUP3 ADD SWAP1 POP DUP2 DUP2 SUB PUSH1 0x0 DUP4 ADD MSTORE PUSH2 0x1D11 DUP2 DUP5 PUSH2 0x1CBE JUMP JUMPDEST SWAP1 POP SWAP3 SWAP2 POP POP JUMP JUMPDEST PUSH2 0x1D22 DUP2 PUSH2 0x174B JUMP JUMPDEST DUP2 EQ PUSH2 0x1D2D JUMPI PUSH1 0x0 DUP1 REVERT JUMPDEST POP JUMP JUMPDEST PUSH1 0x0 DUP2 CALLDATALOAD SWAP1 POP PUSH2 0x1D3F DUP2 PUSH2 0x1D19 JUMP JUMPDEST SWAP3 SWAP2 POP POP JUMP JUMPDEST PUSH1 0x0 DUP1 PUSH1 0x0 DUP1 PUSH1 0x0 DUP1 PUSH1 0x0 DUP1 PUSH2 0x100 DUP10 DUP12 SUB SLT ISZERO PUSH2 0x1D66 JUMPI PUSH2 0x1D65 PUSH2 0x1653 JUMP JUMPDEST JUMPDEST PUSH1 0x0 PUSH2 0x1D74 DUP12 DUP3 DUP13 ADD PUSH2 0x1709 JUMP JUMPDEST SWAP9 POP POP PUSH1 0x20 PUSH2 0x1D85 DUP12 DUP3 DUP13 ADD PUSH2 0x1709 JUMP JUMPDEST SWAP8 POP POP PUSH1 0x40 PUSH2 0x1D96 DUP12 DUP3 DUP13 ADD PUSH2 0x17CC JUMP JUMPDEST SWAP7 POP POP PUSH1 0x60 PUSH2 0x1DA7 DUP12 DUP3 DUP13 ADD PUSH2 0x1709 JUMP JUMPDEST SWAP6 POP POP PUSH1 0x80 PUSH2 0x1DB8 DUP12 DUP3 DUP13 ADD PUSH2 0x1709 JUMP JUMPDEST SWAP5 POP POP PUSH1 0xA0 PUSH2 0x1DC9 DUP12 DUP3 DUP13 ADD PUSH2 0x1968 JUMP JUMPDEST SWAP4 POP POP PUSH1 0xC0 DUP10 ADD CALLDATALOAD PUSH8 0xFFFFFFFFFFFFFFFF DUP2 GT ISZERO PUSH2 0x1DEA JUMPI PUSH2 0x1DE9 PUSH2 0x1658 JUMP JUMPDEST JUMPDEST PUSH2 0x1DF6 DUP12 DUP3 DUP13 ADD PUSH2 0x1B4C JUMP JUMPDEST SWAP3 POP POP PUSH1 0xE0 PUSH2 0x1E07 DUP12 DUP3 DUP13 ADD PUSH2 0x1D30 JUMP JUMPDEST SWAP2 POP POP SWAP3 SWAP6 SWAP9 POP SWAP3 SWAP6 SWAP9 SWAP1 SWAP4 SWAP7 POP JUMP JUMPDEST PUSH1 0x0 DUP1 PUSH1 0x0 DUP1 PUSH1 0x0 DUP1 PUSH1 0x0 DUP1 PUSH2 0x100 DUP10 DUP12 SUB SLT ISZERO PUSH2 0x1E38 JUMPI PUSH2 0x1E37 PUSH2 0x1653 JUMP JUMPDEST JUMPDEST PUSH1 0x0 PUSH2 0x1E46 DUP12 DUP3 DUP13 ADD PUSH2 0x1709 JUMP JUMPDEST SWAP9 POP POP PUSH1 0x20 PUSH2 0x1E57 DUP12 DUP3 DUP13 ADD PUSH2 0x1709 JUMP JUMPDEST SWAP8 POP POP PUSH1 0x40 PUSH2 0x1E68 DUP12 DUP3 DUP13 ADD PUSH2 0x17CC JUMP JUMPDEST SWAP7 POP POP PUSH1 0x60 PUSH2 0x1E79 DUP12 DUP3 DUP13 ADD PUSH2 0x1709 JUMP JUMPDEST SWAP6 POP POP PUSH1 0x80 PUSH2 0x1E8A DUP12 DUP3 DUP13 ADD PUSH2 0x1709 JUMP JUMPDEST SWAP5 POP POP PUSH1 0xA0 PUSH2 0x1E9B DUP12 DUP3 DUP13 ADD PUSH2 0x1968 JUMP JUMPDEST SWAP4 POP POP PUSH1 0xC0 PUSH2 0x1EAC DUP12 DUP3 DUP13 ADD PUSH2 0x1D30 JUMP JUMPDEST SWAP3 POP POP PUSH1 0xE0 PUSH2 0x1EBD DUP12 DUP3 DUP13 ADD PUSH2 0x1709 JUMP JUMPDEST SWAP2 POP POP SWAP3 SWAP6 SWAP9 POP SWAP3 SWAP6 SWAP9 SWAP1 SWAP4 SWAP7 POP JUMP JUMPDEST PUSH1 0x0 DUP3 DUP3 MSTORE PUSH1 0x20 DUP3 ADD SWAP1 POP SWAP3 SWAP2 POP POP JUMP JUMPDEST PUSH32 0x486174686F7246656465726174696F6E3A20456D707479206D656D6265720000 PUSH1 0x0 DUP3 ADD MSTORE POP JUMP JUMPDEST PUSH1 0x0 PUSH2 0x1F14 PUSH1 0x1E DUP4 PUSH2 0x1ECD JUMP JUMPDEST SWAP2 POP PUSH2 0x1F1F DUP3 PUSH2 0x1EDE JUMP JUMPDEST PUSH1 0x20 DUP3 ADD SWAP1 POP SWAP2 SWAP1 POP JUMP JUMPDEST PUSH1 0x0 PUSH1 0x20 DUP3 ADD SWAP1 POP DUP2 DUP2 SUB PUSH1 0x0 DUP4 ADD MSTORE PUSH2 0x1F43 DUP2 PUSH2 0x1F07 JUMP JUMPDEST SWAP1 POP SWAP2 SWAP1 POP JUMP JUMPDEST PUSH32 0x486174686F7246656465726174696F6E3A204D656D62657220646F65736E2774 PUSH1 0x0 DUP3 ADD MSTORE PUSH32 0x2065786973740000000000000000000000000000000000000000000000000000 PUSH1 0x20 DUP3 ADD MSTORE POP JUMP JUMPDEST PUSH1 0x0 PUSH2 0x1FA6 PUSH1 0x26 DUP4 PUSH2 0x1ECD JUMP JUMPDEST SWAP2 POP PUSH2 0x1FB1 DUP3 PUSH2 0x1F4A JUMP JUMPDEST PUSH1 0x40 DUP3 ADD SWAP1 POP SWAP2 SWAP1 POP JUMP JUMPDEST PUSH1 0x0 PUSH1 0x20 DUP3 ADD SWAP1 POP DUP2 DUP2 SUB PUSH1 0x0 DUP4 ADD MSTORE PUSH2 0x1FD5 DUP2 PUSH2 0x1F99 JUMP JUMPDEST SWAP1 POP SWAP2 SWAP1 POP JUMP JUMPDEST PUSH32 0x486174686F7246656465726174696F6E3A2043616E27742072656D6F76652061 PUSH1 0x0 DUP3 ADD MSTORE PUSH32 0x6C6C20746865206D656D62657273000000000000000000000000000000000000 PUSH1 0x20 DUP3 ADD MSTORE POP JUMP JUMPDEST PUSH1 0x0 PUSH2 0x2038 PUSH1 0x2E DUP4 PUSH2 0x1ECD JUMP JUMPDEST SWAP2 POP PUSH2 0x2043 DUP3 PUSH2 0x1FDC JUMP JUMPDEST PUSH1 0x40 DUP3 ADD SWAP1 POP SWAP2 SWAP1 POP JUMP JUMPDEST PUSH1 0x0 PUSH1 0x20 DUP3 ADD SWAP1 POP DUP2 DUP2 SUB PUSH1 0x0 DUP4 ADD MSTORE PUSH2 0x2067 DUP2 PUSH2 0x202B JUMP JUMPDEST SWAP1 POP SWAP2 SWAP1 POP JUMP JUMPDEST PUSH32 0x4E487B7100000000000000000000000000000000000000000000000000000000 PUSH1 0x0 MSTORE PUSH1 0x11 PUSH1 0x4 MSTORE PUSH1 0x24 PUSH1 0x0 REVERT JUMPDEST PUSH1 0x0 PUSH2 0x20A8 DUP3 PUSH2 0x1781 JUMP JUMPDEST SWAP2 POP PUSH2 0x20B3 DUP4 PUSH2 0x1781 JUMP JUMPDEST SWAP3 POP DUP3 DUP3 SUB SWAP1 POP DUP2 DUP2 GT ISZERO PUSH2 0x20CB JUMPI PUSH2 0x20CA PUSH2 0x206E JUMP JUMPDEST JUMPDEST SWAP3 SWAP2 POP POP JUMP JUMPDEST PUSH32 0x4E487B7100000000000000000000000000000000000000000000000000000000 PUSH1 0x0 MSTORE PUSH1 0x32 PUSH1 0x4 MSTORE PUSH1 0x24 PUSH1 0x0 REVERT JUMPDEST PUSH32 0x4E487B7100000000000000000000000000000000000000000000000000000000 PUSH1 0x0 MSTORE PUSH1 0x31 PUSH1 0x4 MSTORE PUSH1 0x24 PUSH1 0x0 REVERT JUMPDEST PUSH1 0x0 DUP2 SWAP1 POP SWAP2 SWAP1 POP JUMP JUMPDEST PUSH2 0x214A PUSH2 0x2145 DUP3 PUSH2 0x16E8 JUMP JUMPDEST PUSH2 0x212F JUMP JUMPDEST DUP3 MSTORE POP POP JUMP JUMPDEST PUSH1 0x0 DUP2 SWAP1 POP SWAP2 SWAP1 POP JUMP JUMPDEST PUSH2 0x216B PUSH2 0x2166 DUP3 PUSH2 0x1781 JUMP JUMPDEST PUSH2 0x2150 JUMP JUMPDEST DUP3 MSTORE POP POP JUMP JUMPDEST PUSH32 0x4E487B7100000000000000000000000000000000000000000000000000000000 PUSH1 0x0 MSTORE PUSH1 0x21 PUSH1 0x4 MSTORE PUSH1 0x24 PUSH1 0x0 REVERT JUMPDEST PUSH1 0x4 DUP2 LT PUSH2 0x21B1 JUMPI PUSH2 0x21B0 PUSH2 0x2171 JUMP JUMPDEST JUMPDEST POP JUMP JUMPDEST PUSH1 0x0 DUP2 SWAP1 POP PUSH2 0x21C2 DUP3 PUSH2 0x21A0 JUMP JUMPDEST SWAP2 SWAP1 POP JUMP JUMPDEST PUSH1 0x0 PUSH2 0x21D2 DUP3 PUSH2 0x21B4 JUMP JUMPDEST SWAP1 POP SWAP2 SWAP1 POP JUMP JUMPDEST PUSH1 0x0 DUP2 PUSH1 0xF8 SHL SWAP1 POP SWAP2 SWAP1 POP JUMP JUMPDEST PUSH1 0x0 PUSH2 0x21F1 DUP3 PUSH2 0x21D9 JUMP JUMPDEST SWAP1 POP SWAP2 SWAP1 POP JUMP JUMPDEST PUSH2 0x2209 PUSH2 0x2204 DUP3 PUSH2 0x21C7 JUMP JUMPDEST PUSH2 0x21E6 JUMP JUMPDEST DUP3 MSTORE POP POP JUMP JUMPDEST PUSH1 0x0 PUSH2 0x221B DUP3 DUP10 PUSH2 0x2139 JUMP JUMPDEST PUSH1 0x20 DUP3 ADD SWAP2 POP PUSH2 0x222B DUP3 DUP9 PUSH2 0x2139 JUMP JUMPDEST PUSH1 0x20 DUP3 ADD SWAP2 POP PUSH2 0x223B DUP3 DUP8 PUSH2 0x2139 JUMP JUMPDEST PUSH1 0x20 DUP3 ADD SWAP2 POP PUSH2 0x224B DUP3 DUP7 PUSH2 0x215A JUMP JUMPDEST PUSH1 0x20 DUP3 ADD SWAP2 POP PUSH2 0x225B DUP3 DUP6 PUSH2 0x2139 JUMP JUMPDEST PUSH1 0x20 DUP3 ADD SWAP2 POP PUSH2 0x226B DUP3 DUP5 PUSH2 0x21F8 JUMP JUMPDEST PUSH1 0x1 DUP3 ADD SWAP2 POP DUP2 SWAP1 POP SWAP8 SWAP7 POP POP POP POP POP POP POP JUMP JUMPDEST PUSH32 0x486174686F7246656465726174696F6E3A204E6F7420466564657261746F7200 PUSH1 0x0 DUP3 ADD MSTORE POP JUMP JUMPDEST PUSH1 0x0 PUSH2 0x22B5 PUSH1 0x1F DUP4 PUSH2 0x1ECD JUMP JUMPDEST SWAP2 POP PUSH2 0x22C0 DUP3 PUSH2 0x227F JUMP JUMPDEST PUSH1 0x20 DUP3 ADD SWAP1 POP SWAP2 SWAP1 POP JUMP JUMPDEST PUSH1 0x0 PUSH1 0x20 DUP3 ADD SWAP1 POP DUP2 DUP2 SUB PUSH1 0x0 DUP4 ADD MSTORE PUSH2 0x22E4 DUP2 PUSH2 0x22A8 JUMP JUMPDEST SWAP1 POP SWAP2 SWAP1 POP JUMP JUMPDEST PUSH32 0x486174686F7246656465726174696F6E3A20616C72656164792070726F706F73 PUSH1 0x0 DUP3 ADD MSTORE PUSH32 0x6564000000000000000000000000000000000000000000000000000000000000 PUSH1 0x20 DUP3 ADD MSTORE POP JUMP JUMPDEST PUSH1 0x0 PUSH2 0x2347 PUSH1 0x22 DUP4 PUSH2 0x1ECD JUMP JUMPDEST SWAP2 POP PUSH2 0x2352 DUP3 PUSH2 0x22EB JUMP JUMPDEST PUSH1 0x40 DUP3 ADD SWAP1 POP SWAP2 SWAP1 POP JUMP JUMPDEST PUSH1 0x0 PUSH1 0x20 DUP3 ADD SWAP1 POP DUP2 DUP2 SUB PUSH1 0x0 DUP4 ADD MSTORE PUSH2 0x2376 DUP2 PUSH2 0x233A JUMP JUMPDEST SWAP1 POP SWAP2 SWAP1 POP JUMP JUMPDEST PUSH32 0x4E487B7100000000000000000000000000000000000000000000000000000000 PUSH1 0x0 MSTORE PUSH1 0x22 PUSH1 0x4 MSTORE PUSH1 0x24 PUSH1 0x0 REVERT JUMPDEST PUSH1 0x0 PUSH1 0x2 DUP3 DIV SWAP1 POP PUSH1 0x1 DUP3 AND DUP1 PUSH2 0x23C4 JUMPI PUSH1 0x7F DUP3 AND SWAP2 POP JUMPDEST PUSH1 0x20 DUP3 LT DUP2 SUB PUSH2 0x23D7 JUMPI PUSH2 0x23D6 PUSH2 0x237D JUMP JUMPDEST JUMPDEST POP SWAP2 SWAP1 POP JUMP JUMPDEST PUSH1 0x0 DUP2 SWAP1 POP DUP2 PUSH1 0x0 MSTORE PUSH1 0x20 PUSH1 0x0 KECCAK256 SWAP1 POP SWAP2 SWAP1 POP JUMP JUMPDEST PUSH1 0x0 PUSH1 0x20 PUSH1 0x1F DUP4 ADD DIV SWAP1 POP SWAP2 SWAP1 POP JUMP JUMPDEST PUSH1 0x0 DUP3 DUP3 SHL SWAP1 POP SWAP3 SWAP2 POP POP JUMP JUMPDEST PUSH1 0x0 PUSH1 0x8 DUP4 MUL PUSH2 0x243F PUSH32 0xFFFFFFFFFFFFFFFFFFFFFFFFFFFFFFFFFFFFFFFFFFFFFFFFFFFFFFFFFFFFFFFF DUP3 PUSH2 0x2402 JUMP JUMPDEST PUSH2 0x2449 DUP7 DUP4 PUSH2 0x2402 JUMP JUMPDEST SWAP6 POP DUP1 NOT DUP5 AND SWAP4 POP DUP1 DUP7 AND DUP5 OR SWAP3 POP POP POP SWAP4 SWAP3 POP POP POP JUMP JUMPDEST PUSH1 0x0 DUP2 SWAP1 POP SWAP2 SWAP1 POP JUMP JUMPDEST PUSH1 0x0 PUSH2 0x2486 PUSH2 0x2481 PUSH2 0x247C DUP5 PUSH2 0x1781 JUMP JUMPDEST PUSH2 0x2461 JUMP JUMPDEST PUSH2 0x1781 JUMP JUMPDEST SWAP1 POP SWAP2 SWAP1 POP JUMP JUMPDEST PUSH1 0x0 DUP2 SWAP1 POP SWAP2 SWAP1 POP JUMP JUMPDEST PUSH2 0x24A0 DUP4 PUSH2 0x246B JUMP JUMPDEST PUSH2 0x24B4 PUSH2 0x24AC DUP3 PUSH2 0x248D JUMP JUMPDEST DUP5 DUP5 SLOAD PUSH2 0x240F JUMP JUMPDEST DUP3 SSTORE POP POP POP POP JUMP JUMPDEST PUSH1 0x0 SWAP1 JUMP JUMPDEST PUSH2 0x24C9 PUSH2 0x24BC JUMP JUMPDEST PUSH2 0x24D4 DUP2 DUP5 DUP5 PUSH2 0x2497 JUMP JUMPDEST POP POP POP JUMP JUMPDEST JUMPDEST DUP2 DUP2 LT ISZERO PUSH2 0x24F8 JUMPI PUSH2 0x24ED PUSH1 0x0 DUP3 PUSH2 0x24C1 JUMP JUMPDEST PUSH1 0x1 DUP2 ADD SWAP1 POP PUSH2 0x24DA JUMP JUMPDEST POP POP JUMP JUMPDEST PUSH1 0x1F DUP3 GT ISZERO PUSH2 0x253D JUMPI PUSH2 0x250E DUP2 PUSH2 0x23DD JUMP JUMPDEST PUSH2 0x2517 DUP5 PUSH2 0x23F2 JUMP JUMPDEST DUP2 ADD PUSH1 0x20 DUP6 LT ISZERO PUSH2 0x2526 JUMPI DUP2 SWAP1 POP JUMPDEST PUSH2 0x253A PUSH2 0x2532 DUP6 PUSH2 0x23F2 JUMP JUMPDEST DUP4 ADD DUP3 PUSH2 0x24D9 JUMP JUMPDEST POP POP JUMPDEST POP POP POP JUMP JUMPDEST PUSH1 0x0 DUP3 DUP3 SHR SWAP1 POP SWAP3 SWAP2 POP POP JUMP JUMPDEST PUSH1 0x0 PUSH2 0x2560 PUSH1 0x0 NOT DUP5 PUSH1 0x8 MUL PUSH2 0x2542 JUMP JUMPDEST NOT DUP1 DUP4 AND SWAP2 POP POP SWAP3 SWAP2 POP POP JUMP JUMPDEST PUSH1 0x0 PUSH2 0x2579 DUP4 DUP4 PUSH2 0x254F JUMP JUMPDEST SWAP2 POP DUP3 PUSH1 0x2 MUL DUP3 OR SWAP1 POP SWAP3 SWAP2 POP POP JUMP JUMPDEST PUSH2 0x2592 DUP3 PUSH2 0x1C78 JUMP JUMPDEST PUSH8 0xFFFFFFFFFFFFFFFF DUP2 GT ISZERO PUSH2 0x25AB JUMPI PUSH2 0x25AA PUSH2 0x1A4F JUMP JUMPDEST JUMPDEST PUSH2 0x25B5 DUP3 SLOAD PUSH2 0x23AC JUMP JUMPDEST PUSH2 0x25C0 DUP3 DUP3 DUP6 PUSH2 0x24FC JUMP JUMPDEST PUSH1 0x0 PUSH1 0x20 SWAP1 POP PUSH1 0x1F DUP4 GT PUSH1 0x1 DUP2 EQ PUSH2 0x25F3 JUMPI PUSH1 0x0 DUP5 ISZERO PUSH2 0x25E1 JUMPI DUP3 DUP8 ADD MLOAD SWAP1 POP JUMPDEST PUSH2 0x25EB DUP6 DUP3 PUSH2 0x256D JUMP JUMPDEST DUP7 SSTORE POP PUSH2 0x2653 JUMP JUMPDEST PUSH1 0x1F NOT DUP5 AND PUSH2 0x2601 DUP7 PUSH2 0x23DD JUMP JUMPDEST PUSH1 0x0 JUMPDEST DUP3 DUP2 LT ISZERO PUSH2 0x2629 JUMPI DUP5 DUP10 ADD MLOAD DUP3 SSTORE PUSH1 0x1 DUP3 ADD SWAP2 POP PUSH1 0x20 DUP6 ADD SWAP5 POP PUSH1 0x20 DUP2 ADD SWAP1 POP PUSH2 0x2604 JUMP JUMPDEST DUP7 DUP4 LT ISZERO PUSH2 0x2646 JUMPI DUP5 DUP10 ADD MLOAD PUSH2 0x2642 PUSH1 0x1F DUP10 AND DUP3 PUSH2 0x254F JUMP JUMPDEST DUP4 SSTORE POP JUMPDEST PUSH1 0x1 PUSH1 0x2 DUP9 MUL ADD DUP9 SSTORE POP POP POP JUMPDEST POP POP POP POP POP POP JUMP JUMPDEST PUSH2 0x2664 DUP2 PUSH2 0x21C7 JUMP JUMPDEST DUP3 MSTORE POP POP JUMP JUMPDEST PUSH1 0x0 PUSH2 0x100 DUP3 ADD SWAP1 POP PUSH2 0x2680 PUSH1 0x0 DUP4 ADD DUP12 PUSH2 0x1A0A JUMP JUMPDEST PUSH2 0x268D PUSH1 0x20 DUP4 ADD DUP11 PUSH2 0x1A0A JUMP JUMPDEST PUSH2 0x269A PUSH1 0x40 DUP4 ADD DUP10 PUSH2 0x178B JUMP JUMPDEST PUSH2 0x26A7 PUSH1 0x60 DUP4 ADD DUP9 PUSH2 0x1A0A JUMP JUMPDEST PUSH2 0x26B4 PUSH1 0x80 DUP4 ADD DUP8 PUSH2 0x1A0A JUMP JUMPDEST PUSH2 0x26C1 PUSH1 0xA0 DUP4 ADD DUP7 PUSH2 0x265B JUMP JUMPDEST PUSH2 0x26CE PUSH1 0xC0 DUP4 ADD DUP6 PUSH2 0x1A0A JUMP JUMPDEST DUP2 DUP2 SUB PUSH1 0xE0 DUP4 ADD MSTORE PUSH2 0x26E0 DUP2 DUP5 PUSH2 0x1CBE JUMP JUMPDEST SWAP1 POP SWAP10 SWAP9 POP POP POP POP POP POP POP POP POP JUMP JUMPDEST PUSH32 0x486174686F7246656465726174696F6E3A204D656D62657220616C7265616479 PUSH1 0x0 DUP3 ADD MSTORE PUSH32 0x2065786973747300000000000000000000000000000000000000000000000000 PUSH1 0x20 DUP3 ADD MSTORE POP JUMP JUMPDEST PUSH1 0x0 PUSH2 0x274B PUSH1 0x27 DUP4 PUSH2 0x1ECD JUMP JUMPDEST SWAP2 POP PUSH2 0x2756 DUP3 PUSH2 0x26EF JUMP JUMPDEST PUSH1 0x40 DUP3 ADD SWAP1 POP SWAP2 SWAP1 POP JUMP JUMPDEST PUSH1 0x0 PUSH1 0x20 DUP3 ADD SWAP1 POP DUP2 DUP2 SUB PUSH1 0x0 DUP4 ADD MSTORE PUSH2 0x277A DUP2 PUSH2 0x273E JUMP JUMPDEST SWAP1 POP SWAP2 SWAP1 POP JUMP JUMPDEST PUSH32 0x486174686F7246656465726174696F6E3A205472616E73616374696F6E20616C PUSH1 0x0 DUP3 ADD MSTORE PUSH32 0x7265616479207369676E65640000000000000000000000000000000000000000 PUSH1 0x20 DUP3 ADD MSTORE POP JUMP JUMPDEST PUSH1 0x0 PUSH2 0x27DD PUSH1 0x2C DUP4 PUSH2 0x1ECD JUMP JUMPDEST SWAP2 POP PUSH2 0x27E8 DUP3 PUSH2 0x2781 JUMP JUMPDEST PUSH1 0x40 DUP3 ADD SWAP1 POP SWAP2 SWAP1 POP JUMP JUMPDEST PUSH1 0x0 PUSH1 0x20 DUP3 ADD SWAP1 POP DUP2 DUP2 SUB PUSH1 0x0 DUP4 ADD MSTORE PUSH2 0x280C DUP2 PUSH2 0x27D0 JUMP JUMPDEST SWAP1 POP SWAP2 SWAP1 POP JUMP JUMPDEST PUSH1 0x0 PUSH2 0x100 DUP3 ADD SWAP1 POP PUSH2 0x2829 PUSH1 0x0 DUP4 ADD DUP12 PUSH2 0x1A0A JUMP JUMPDEST PUSH2 0x2836 PUSH1 0x20 DUP4 ADD DUP11 PUSH2 0x1A0A JUMP JUMPDEST PUSH2 0x2843 PUSH1 0x40 DUP4 ADD DUP10 PUSH2 0x178B JUMP JUMPDEST PUSH2 0x2850 PUSH1 0x60 DUP4 ADD DUP9 PUSH2 0x1A0A JUMP JUMPDEST PUSH2 0x285D PUSH1 0x80 DUP4 ADD DUP8 PUSH2 0x1A0A JUMP JUMPDEST PUSH2 0x286A PUSH1 0xA0 DUP4 ADD DUP7 PUSH2 0x265B JUMP JUMPDEST PUSH2 0x2877 PUSH1 0xC0 DUP4 ADD DUP6 PUSH2 0x1757 JUMP JUMPDEST DUP2 DUP2 SUB PUSH1 0xE0 DUP4 ADD MSTORE PUSH2 0x2889 DUP2 DUP5 PUSH2 0x1CBE JUMP JUMPDEST SWAP1 POP SWAP10 SWAP9 POP POP POP POP POP POP POP POP POP JUMP JUMPDEST PUSH32 0x486174686F7246656465726174696F6E3A205472616E73616374696F6E20616C PUSH1 0x0 DUP3 ADD MSTORE PUSH32 0x72656164792073656E7400000000000000000000000000000000000000000000 PUSH1 0x20 DUP3 ADD MSTORE POP JUMP JUMPDEST PUSH1 0x0 PUSH2 0x28F4 PUSH1 0x2A DUP4 PUSH2 0x1ECD JUMP JUMPDEST SWAP2 POP PUSH2 0x28FF DUP3 PUSH2 0x2898 JUMP JUMPDEST PUSH1 0x40 DUP3 ADD SWAP1 POP SWAP2 SWAP1 POP JUMP JUMPDEST PUSH1 0x0 PUSH1 0x20 DUP3 ADD SWAP1 POP DUP2 DUP2 SUB PUSH1 0x0 DUP4 ADD MSTORE PUSH2 0x2923 DUP2 PUSH2 0x28E7 JUMP JUMPDEST SWAP1 POP SWAP2 SWAP1 POP JUMP JUMPDEST PUSH1 0x0 PUSH2 0x100 DUP3 ADD SWAP1 POP PUSH2 0x2940 PUSH1 0x0 DUP4 ADD DUP12 PUSH2 0x1A0A JUMP JUMPDEST PUSH2 0x294D PUSH1 0x20 DUP4 ADD DUP11 PUSH2 0x1A0A JUMP JUMPDEST PUSH2 0x295A PUSH1 0x40 DUP4 ADD DUP10 PUSH2 0x178B JUMP JUMPDEST PUSH2 0x2967 PUSH1 0x60 DUP4 ADD DUP9 PUSH2 0x1A0A JUMP JUMPDEST PUSH2 0x2974 PUSH1 0x80 DUP4 ADD DUP8 PUSH2 0x1A0A JUMP JUMPDEST PUSH2 0x2981 PUSH1 0xA0 DUP4 ADD DUP7 PUSH2 0x265B JUMP JUMPDEST PUSH2 0x298E PUSH1 0xC0 DUP4 ADD DUP6 PUSH2 0x1757 JUMP JUMPDEST PUSH2 0x299B PUSH1 0xE0 DUP4 ADD DUP5 PUSH2 0x1A0A JUMP JUMPDEST SWAP10 SWAP9 POP POP POP POP POP POP POP POP POP JUMP INVALID LOG2 PUSH5 0x6970667358 0x22 SLT KECCAK256 CALLVALUE 0xC EQ RETURNDATASIZE 0x2C 0xD6 SWAP1 SUB 0x23 0xB8 GASPRICE MSTORE PUSH29 0x7160E7D66239ECEEB9E90354AA3F458A20A32C64736F6C634300081800 CALLER "
        },
        "methodIdentifiers": {
          "MAX_MEMBER_COUNT()": "681fc921",
          "addMember(address)": "ca6d56dc",
          "getMembers()": "9eab5253",
          "getSignatureCount(bytes32)": "2bbe96bc",
          "getTransactionId(bytes32,bytes32,uint256,bytes32,bytes32,uint8)": "a2714bb5",
          "isMember(address)": "a230c524",
          "isProcessed(bytes32)": "11c16896",
          "isProposed(bytes32)": "1206b7a9",
          "isSigned(bytes32,address)": "7f8d61e0",
          "members(uint256)": "5daf08ca",
          "owner()": "8da5cb5b",
          "removeMember(address)": "0b1ca49a",
          "renounceOwnership()": "715018a6",
          "sendTransactionProposal(bytes32,bytes32,uint256,bytes32,bytes32,uint8,bytes)": "ae36e42d",
          "setSignatureFailed(bytes32,address)": "b6b27255",
          "setTransactionFailed(bytes32)": "86f063a8",
          "transactionHex(bytes32)": "e831c6ae",
          "transactionSignatures(bytes32,uint256)": "b58d1cfb",
          "transferOwnership(address)": "f2fde38b",
          "updateSignatureState(bytes32,bytes32,uint256,bytes32,bytes32,uint8,bytes,bool)": "d4c1581d",
          "updateTransactionState(bytes32,bytes32,uint256,bytes32,bytes32,uint8,bool,bytes32)": "d5892635"
        }
      }
    }
  }
}