{
  "contracts/HathorFederation.sol": {
    "HathorFederation": {
      "abi": [
        {
          "inputs": [
            {
              "internalType": "address[]",
              "name": "_members",
              "type": "address[]"
            },
            {
              "internalType": "address",
              "name": "owner",
              "type": "address"
            }
          ],
          "stateMutability": "nonpayable",
          "type": "constructor"
        },
        {
          "inputs": [
            {
              "internalType": "address",
              "name": "owner",
              "type": "address"
            }
          ],
          "name": "OwnableInvalidOwner",
          "type": "error"
        },
        {
          "inputs": [
            {
              "internalType": "address",
              "name": "account",
              "type": "address"
            }
          ],
          "name": "OwnableUnauthorizedAccount",
          "type": "error"
        },
        {
          "anonymous": false,
          "inputs": [
            {
              "indexed": false,
              "internalType": "bytes",
              "name": "txHex",
              "type": "bytes"
            }
          ],
          "name": "LockTransactionHex",
          "type": "event"
        },
        {
          "anonymous": false,
          "inputs": [
            {
              "indexed": true,
              "internalType": "address",
              "name": "member",
              "type": "address"
            }
          ],
          "name": "MemberAddition",
          "type": "event"
        },
        {
          "anonymous": false,
          "inputs": [
            {
              "indexed": true,
              "internalType": "address",
              "name": "member",
              "type": "address"
            }
          ],
          "name": "MemberRemoval",
          "type": "event"
        },
        {
          "anonymous": false,
          "inputs": [
            {
              "indexed": true,
              "internalType": "address",
              "name": "previousOwner",
              "type": "address"
            },
            {
              "indexed": true,
              "internalType": "address",
              "name": "newOwner",
              "type": "address"
            }
          ],
          "name": "OwnershipTransferred",
          "type": "event"
        },
        {
          "anonymous": false,
          "inputs": [
            {
              "indexed": false,
              "internalType": "bytes32",
              "name": "originalTokenAddress",
              "type": "bytes32"
            },
            {
              "indexed": false,
              "internalType": "bytes32",
              "name": "transactionHash",
              "type": "bytes32"
            },
            {
              "indexed": false,
              "internalType": "uint256",
              "name": "value",
              "type": "uint256"
            },
            {
              "indexed": false,
              "internalType": "string",
              "name": "sender",
              "type": "string"
            },
            {
              "indexed": false,
              "internalType": "string",
              "name": "receiver",
              "type": "string"
            },
            {
              "indexed": false,
              "internalType": "enum HathorFederation.TransactionType",
              "name": "transactionType",
              "type": "uint8"
            },
            {
              "indexed": true,
              "internalType": "bytes32",
              "name": "transactionId",
              "type": "bytes32"
            },
            {
              "indexed": false,
              "internalType": "bool",
              "name": "processed",
              "type": "bool"
            },
            {
              "indexed": false,
              "internalType": "bytes32",
              "name": "hathorTxId",
              "type": "bytes32"
            }
          ],
          "name": "ProposalSent",
          "type": "event"
        },
        {
          "anonymous": false,
          "inputs": [
            {
              "indexed": false,
              "internalType": "bytes32",
              "name": "originalTokenAddress",
              "type": "bytes32"
            },
            {
              "indexed": false,
              "internalType": "bytes32",
              "name": "transactionHash",
              "type": "bytes32"
            },
            {
              "indexed": false,
              "internalType": "uint256",
              "name": "value",
              "type": "uint256"
            },
            {
              "indexed": false,
              "internalType": "string",
              "name": "sender",
              "type": "string"
            },
            {
              "indexed": false,
              "internalType": "string",
              "name": "receiver",
              "type": "string"
            },
            {
              "indexed": false,
              "internalType": "enum HathorFederation.TransactionType",
              "name": "transactionType",
              "type": "uint8"
            },
            {
              "indexed": true,
              "internalType": "bytes32",
              "name": "transactionId",
              "type": "bytes32"
            },
            {
              "indexed": true,
              "internalType": "address",
              "name": "member",
              "type": "address"
            },
            {
              "indexed": false,
              "internalType": "bool",
              "name": "signed",
              "type": "bool"
            },
            {
              "indexed": false,
              "internalType": "string",
              "name": "signature",
              "type": "string"
            }
          ],
          "name": "ProposalSigned",
          "type": "event"
        },
        {
          "anonymous": false,
          "inputs": [
            {
              "indexed": true,
              "internalType": "bytes32",
              "name": "transactionId",
              "type": "bytes32"
            },
            {
              "indexed": false,
              "internalType": "address",
              "name": "member",
              "type": "address"
            }
          ],
          "name": "SignaturaFailed",
          "type": "event"
        },
        {
          "anonymous": false,
          "inputs": [
            {
              "indexed": false,
              "internalType": "bytes32",
              "name": "originalTokenAddress",
              "type": "bytes32"
            },
            {
              "indexed": false,
              "internalType": "bytes32",
              "name": "transactionHash",
              "type": "bytes32"
            },
            {
              "indexed": false,
              "internalType": "uint256",
              "name": "value",
              "type": "uint256"
            },
            {
              "indexed": false,
              "internalType": "string",
              "name": "sender",
              "type": "string"
            },
            {
              "indexed": false,
              "internalType": "string",
              "name": "receiver",
              "type": "string"
            },
            {
              "indexed": false,
              "internalType": "enum HathorFederation.TransactionType",
              "name": "transactionType",
              "type": "uint8"
            },
            {
              "indexed": true,
              "internalType": "bytes32",
              "name": "transactionId",
              "type": "bytes32"
            }
          ],
          "name": "TransactionFailed",
          "type": "event"
        },
        {
          "anonymous": false,
          "inputs": [
            {
              "indexed": false,
              "internalType": "bytes32",
              "name": "originalTokenAddress",
              "type": "bytes32"
            },
            {
              "indexed": false,
              "internalType": "bytes32",
              "name": "transactionHash",
              "type": "bytes32"
            },
            {
              "indexed": false,
              "internalType": "uint256",
              "name": "value",
              "type": "uint256"
            },
            {
              "indexed": false,
              "internalType": "string",
              "name": "sender",
              "type": "string"
            },
            {
              "indexed": false,
              "internalType": "string",
              "name": "receiver",
              "type": "string"
            },
            {
              "indexed": false,
              "internalType": "enum HathorFederation.TransactionType",
              "name": "transactionType",
              "type": "uint8"
            },
            {
              "indexed": false,
              "internalType": "bytes32",
              "name": "transactionId",
              "type": "bytes32"
            },
            {
              "indexed": false,
              "internalType": "bytes",
              "name": "txHex",
              "type": "bytes"
            }
          ],
          "name": "TransactionProposed",
          "type": "event"
        },
        {
          "inputs": [],
          "name": "MAX_MEMBER_COUNT",
          "outputs": [
            {
              "internalType": "uint256",
              "name": "",
              "type": "uint256"
            }
          ],
          "stateMutability": "view",
          "type": "function"
        },
        {
          "inputs": [
            {
              "internalType": "address",
              "name": "_newMember",
              "type": "address"
            }
          ],
          "name": "addMember",
          "outputs": [],
          "stateMutability": "nonpayable",
          "type": "function"
        },
        {
          "inputs": [],
          "name": "getMembers",
          "outputs": [
            {
              "internalType": "address[]",
              "name": "",
              "type": "address[]"
            }
          ],
          "stateMutability": "view",
          "type": "function"
        },
        {
          "inputs": [
            {
              "internalType": "bytes32",
              "name": "transactionId",
              "type": "bytes32"
            }
          ],
          "name": "getSignatureCount",
          "outputs": [
            {
              "internalType": "uint256",
              "name": "",
              "type": "uint256"
            }
          ],
          "stateMutability": "view",
          "type": "function"
        },
        {
          "inputs": [
            {
              "internalType": "bytes32",
              "name": "originalTokenAddress",
              "type": "bytes32"
            },
            {
              "internalType": "bytes32",
              "name": "transactionHash",
              "type": "bytes32"
            },
            {
              "internalType": "uint256",
              "name": "value",
              "type": "uint256"
            },
            {
              "internalType": "string",
              "name": "sender",
              "type": "string"
            },
            {
              "internalType": "string",
              "name": "receiver",
              "type": "string"
            },
            {
              "internalType": "enum HathorFederation.TransactionType",
              "name": "transactionType",
              "type": "uint8"
            }
          ],
          "name": "getTransactionId",
          "outputs": [
            {
              "internalType": "bytes32",
              "name": "",
              "type": "bytes32"
            }
          ],
          "stateMutability": "pure",
          "type": "function"
        },
        {
          "inputs": [
            {
              "internalType": "address",
              "name": "",
              "type": "address"
            }
          ],
          "name": "isMember",
          "outputs": [
            {
              "internalType": "bool",
              "name": "",
              "type": "bool"
            }
          ],
          "stateMutability": "view",
          "type": "function"
        },
        {
          "inputs": [
            {
              "internalType": "bytes32",
              "name": "",
              "type": "bytes32"
            }
          ],
          "name": "isProcessed",
          "outputs": [
            {
              "internalType": "bool",
              "name": "",
              "type": "bool"
            }
          ],
          "stateMutability": "view",
          "type": "function"
        },
        {
          "inputs": [
            {
              "internalType": "bytes32",
              "name": "",
              "type": "bytes32"
            }
          ],
          "name": "isProposed",
          "outputs": [
            {
              "internalType": "bool",
              "name": "",
              "type": "bool"
            }
          ],
          "stateMutability": "view",
          "type": "function"
        },
        {
          "inputs": [
            {
              "internalType": "bytes32",
              "name": "",
              "type": "bytes32"
            },
            {
              "internalType": "address",
              "name": "",
              "type": "address"
            }
          ],
          "name": "isSigned",
          "outputs": [
            {
              "internalType": "bool",
              "name": "",
              "type": "bool"
            }
          ],
          "stateMutability": "view",
          "type": "function"
        },
        {
          "inputs": [
            {
              "internalType": "uint256",
              "name": "",
              "type": "uint256"
            }
          ],
          "name": "members",
          "outputs": [
            {
              "internalType": "address",
              "name": "",
              "type": "address"
            }
          ],
          "stateMutability": "view",
          "type": "function"
        },
        {
          "inputs": [],
          "name": "owner",
          "outputs": [
            {
              "internalType": "address",
              "name": "",
              "type": "address"
            }
          ],
          "stateMutability": "view",
          "type": "function"
        },
        {
          "inputs": [
            {
              "internalType": "address",
              "name": "_oldMember",
              "type": "address"
            }
          ],
          "name": "removeMember",
          "outputs": [],
          "stateMutability": "nonpayable",
          "type": "function"
        },
        {
          "inputs": [],
          "name": "renounceOwnership",
          "outputs": [],
          "stateMutability": "nonpayable",
          "type": "function"
        },
        {
          "inputs": [
            {
              "internalType": "bytes32",
              "name": "originalTokenAddress",
              "type": "bytes32"
            },
            {
              "internalType": "bytes32",
              "name": "transactionHash",
              "type": "bytes32"
            },
            {
              "internalType": "uint256",
              "name": "value",
              "type": "uint256"
            },
            {
              "internalType": "string",
              "name": "sender",
              "type": "string"
            },
            {
              "internalType": "string",
              "name": "receiver",
              "type": "string"
            },
            {
              "internalType": "enum HathorFederation.TransactionType",
              "name": "transactionType",
              "type": "uint8"
            },
            {
              "internalType": "bytes",
              "name": "txHex",
              "type": "bytes"
            }
          ],
          "name": "sendTransactionProposal",
          "outputs": [],
          "stateMutability": "nonpayable",
          "type": "function"
        },
        {
          "inputs": [
            {
              "internalType": "bytes32",
              "name": "originalTokenAddress",
              "type": "bytes32"
            },
            {
              "internalType": "bytes32",
              "name": "transactionHash",
              "type": "bytes32"
            },
            {
              "internalType": "uint256",
              "name": "value",
              "type": "uint256"
            },
            {
              "internalType": "string",
              "name": "sender",
              "type": "string"
            },
            {
              "internalType": "string",
              "name": "receiver",
              "type": "string"
            },
            {
              "internalType": "enum HathorFederation.TransactionType",
              "name": "transactionType",
              "type": "uint8"
            }
          ],
          "name": "setTransactionFailed",
          "outputs": [],
          "stateMutability": "nonpayable",
          "type": "function"
        },
        {
          "inputs": [
            {
              "internalType": "bytes32",
              "name": "",
              "type": "bytes32"
            }
          ],
          "name": "transactionHex",
          "outputs": [
            {
              "internalType": "bytes",
              "name": "",
              "type": "bytes"
            }
          ],
          "stateMutability": "view",
          "type": "function"
        },
        {
          "inputs": [
            {
              "internalType": "bytes32",
              "name": "",
              "type": "bytes32"
            },
            {
              "internalType": "uint256",
              "name": "",
              "type": "uint256"
            }
          ],
          "name": "transactionSignatures",
          "outputs": [
            {
              "internalType": "string",
              "name": "signature",
              "type": "string"
            }
          ],
          "stateMutability": "view",
          "type": "function"
        },
        {
          "inputs": [
            {
              "internalType": "address",
              "name": "newOwner",
              "type": "address"
            }
          ],
          "name": "transferOwnership",
          "outputs": [],
          "stateMutability": "nonpayable",
          "type": "function"
        },
        {
          "inputs": [
            {
              "internalType": "bytes32",
              "name": "originalTokenAddress",
              "type": "bytes32"
            },
            {
              "internalType": "bytes32",
              "name": "transactionHash",
              "type": "bytes32"
            },
            {
              "internalType": "uint256",
              "name": "value",
              "type": "uint256"
            },
            {
              "internalType": "string",
              "name": "sender",
              "type": "string"
            },
            {
              "internalType": "string",
              "name": "receiver",
              "type": "string"
            },
            {
              "internalType": "enum HathorFederation.TransactionType",
              "name": "transactionType",
              "type": "uint8"
            },
            {
              "internalType": "string",
              "name": "signature",
              "type": "string"
            },
            {
              "internalType": "bool",
              "name": "signed",
              "type": "bool"
            }
          ],
          "name": "updateSignatureState",
          "outputs": [],
          "stateMutability": "nonpayable",
          "type": "function"
        },
        {
          "inputs": [
            {
              "internalType": "bytes32",
              "name": "originalTokenAddress",
              "type": "bytes32"
            },
            {
              "internalType": "bytes32",
              "name": "transactionHash",
              "type": "bytes32"
            },
            {
              "internalType": "uint256",
              "name": "value",
              "type": "uint256"
            },
            {
              "internalType": "string",
              "name": "sender",
              "type": "string"
            },
            {
              "internalType": "string",
              "name": "receiver",
              "type": "string"
            },
            {
              "internalType": "enum HathorFederation.TransactionType",
              "name": "transactionType",
              "type": "uint8"
            },
            {
              "internalType": "bool",
              "name": "sent",
              "type": "bool"
            },
            {
              "internalType": "bytes32",
              "name": "hathorTxId",
              "type": "bytes32"
            }
          ],
          "name": "updateTransactionState",
          "outputs": [],
          "stateMutability": "nonpayable",
          "type": "function"
        }
      ],
      "evm": {
        "bytecode": {
          "linkReferences": {},
          "object": "60806040523480156200001157600080fd5b50604051620038ed380380620038ed83398181016040528101906200003791906200067d565b80600073ffffffffffffffffffffffffffffffffffffffff168173ffffffffffffffffffffffffffffffffffffffff1603620000ad5760006040517f1e4fbdf7000000000000000000000000000000000000000000000000000000008152600401620000a49190620006f4565b60405180910390fd5b620000be816200031d60201b60201c565b5060328251111562000107576040517f08c379a0000000000000000000000000000000000000000000000000000000008152600401620000fe9062000798565b60405180910390fd5b81600190805190602001906200011f929190620003e1565b5060005b8251811015620003145760026000848381518110620001475762000146620007ba565b5b602002602001015173ffffffffffffffffffffffffffffffffffffffff1673ffffffffffffffffffffffffffffffffffffffff16815260200190815260200160002060009054906101000a900460ff16158015620001ef5750600073ffffffffffffffffffffffffffffffffffffffff16838281518110620001ce57620001cd620007ba565b5b602002602001015173ffffffffffffffffffffffffffffffffffffffff1614155b62000231576040517f08c379a000000000000000000000000000000000000000000000000000000000815260040162000228906200085f565b60405180910390fd5b6001600260008584815181106200024d576200024c620007ba565b5b602002602001015173ffffffffffffffffffffffffffffffffffffffff1673ffffffffffffffffffffffffffffffffffffffff16815260200190815260200160002060006101000a81548160ff021916908315150217905550828181518110620002bc57620002bb620007ba565b5b602002602001015173ffffffffffffffffffffffffffffffffffffffff167f72114e270de66b9d2710ecf140403e5e99b1574767d6a8197bdc8d807a46e7c760405160405180910390a2808060010191505062000123565b50505062000881565b60008060009054906101000a900473ffffffffffffffffffffffffffffffffffffffff169050816000806101000a81548173ffffffffffffffffffffffffffffffffffffffff021916908373ffffffffffffffffffffffffffffffffffffffff1602179055508173ffffffffffffffffffffffffffffffffffffffff168173ffffffffffffffffffffffffffffffffffffffff167f8be0079c531659141344cd1fd0a4f28419497f9722a3daafe3b4186f6b6457e060405160405180910390a35050565b8280548282559060005260206000209081019282156200045d579160200282015b828111156200045c5782518260006101000a81548173ffffffffffffffffffffffffffffffffffffffff021916908373ffffffffffffffffffffffffffffffffffffffff1602179055509160200191906001019062000402565b5b5090506200046c919062000470565b5090565b5b808211156200048b57600081600090555060010162000471565b5090565b6000604051905090565b600080fd5b600080fd5b600080fd5b6000601f19601f8301169050919050565b7f4e487b7100000000000000000000000000000000000000000000000000000000600052604160045260246000fd5b620004f382620004a8565b810181811067ffffffffffffffff82111715620005155762000514620004b9565b5b80604052505050565b60006200052a6200048f565b9050620005388282620004e8565b919050565b600067ffffffffffffffff8211156200055b576200055a620004b9565b5b602082029050602081019050919050565b600080fd5b600073ffffffffffffffffffffffffffffffffffffffff82169050919050565b60006200059e8262000571565b9050919050565b620005b08162000591565b8114620005bc57600080fd5b50565b600081519050620005d081620005a5565b92915050565b6000620005ed620005e7846200053d565b6200051e565b905080838252602082019050602084028301858111156200061357620006126200056c565b5b835b818110156200064057806200062b8882620005bf565b84526020840193505060208101905062000615565b5050509392505050565b600082601f830112620006625762000661620004a3565b5b815162000674848260208601620005d6565b91505092915050565b6000806040838503121562000697576200069662000499565b5b600083015167ffffffffffffffff811115620006b857620006b76200049e565b5b620006c6858286016200064a565b9250506020620006d985828601620005bf565b9150509250929050565b620006ee8162000591565b82525050565b60006020820190506200070b6000830184620006e3565b92915050565b600082825260208201905092915050565b7f486174686f7246656465726174696f6e3a20546f6f206d616e79206d656d626560008201527f7273000000000000000000000000000000000000000000000000000000000000602082015250565b60006200078060228362000711565b91506200078d8262000722565b604082019050919050565b60006020820190508181036000830152620007b38162000771565b9050919050565b7f4e487b7100000000000000000000000000000000000000000000000000000000600052603260045260246000fd5b7f486174686f7246656465726174696f6e3a20496e76616c6964206d656d62657260008201527f7300000000000000000000000000000000000000000000000000000000000000602082015250565b60006200084760218362000711565b91506200085482620007e9565b604082019050919050565b600060208201905081810360008301526200087a8162000838565b9050919050565b61305c80620008916000396000f3fe608060405234801561001057600080fd5b506004361061012c5760003560e01c80638140949d116100ad578063b58d1cfb11610071578063b58d1cfb14610355578063ca6d56dc14610385578063d80775e1146103a1578063e831c6ae146103bd578063f2fde38b146103ed5761012c565b80638140949d146102b15780638da5cb5b146102cd5780639eab5253146102eb578063a230c52414610309578063a9610094146103395761012c565b80632bbe96bc116100f45780632bbe96bc146101f95780635daf08ca14610229578063681fc92114610259578063715018a6146102775780637f8d61e0146102815761012c565b80630b1ca49a1461013157806311c168961461014d5780631206b7a91461017d578063184c5fb2146101ad5780631fd98eaa146101c9575b600080fd5b61014b6004803603810190610146919061180d565b610409565b005b61016760048036038101906101629190611870565b610781565b60405161017491906118b8565b60405180910390f35b61019760048036038101906101929190611870565b6107a1565b6040516101a491906118b8565b60405180910390f35b6101c760048036038101906101c29190611b00565b6107c1565b005b6101e360048036038101906101de9190611c13565b610a55565b6040516101f09190611cf1565b60405180910390f35b610213600480360381019061020e9190611870565b610a9f565b6040516102209190611d1b565b60405180910390f35b610243600480360381019061023e9190611d36565b610abf565b6040516102509190611d72565b60405180910390f35b610261610afe565b60405161026e9190611d1b565b60405180910390f35b61027f610b03565b005b61029b60048036038101906102969190611d8d565b610b17565b6040516102a891906118b8565b60405180910390f35b6102cb60048036038101906102c69190611c13565b610b46565b005b6102d5610d6b565b6040516102e29190611d72565b60405180910390f35b6102f3610d94565b6040516103009190611e8b565b60405180910390f35b610323600480360381019061031e919061180d565b610e22565b60405161033091906118b8565b60405180910390f35b610353600480360381019061034e9190611ead565b610e42565b005b61036f600480360381019061036a9190611fa4565b610fd2565b60405161037c9190612063565b60405180910390f35b61039f600480360381019061039a919061180d565b611091565b005b6103bb60048036038101906103b69190612126565b611296565b005b6103d760048036038101906103d29190611870565b61147d565b6040516103e49190612279565b60405180910390f35b6104076004803603810190610402919061180d565b61151d565b005b6104116115a3565b600073ffffffffffffffffffffffffffffffffffffffff168173ffffffffffffffffffffffffffffffffffffffff1603610480576040517f08c379a0000000000000000000000000000000000000000000000000000000008152600401610477906122e7565b60405180910390fd5b600260008273ffffffffffffffffffffffffffffffffffffffff1673ffffffffffffffffffffffffffffffffffffffff16815260200190815260200160002060009054906101000a900460ff1661050c576040517f08c379a000000000000000000000000000000000000000000000000000000000815260040161050390612379565b60405180910390fd5b6001808054905011610553576040517f08c379a000000000000000000000000000000000000000000000000000000000815260040161054a9061240b565b60405180910390fd5b6000600260008373ffffffffffffffffffffffffffffffffffffffff1673ffffffffffffffffffffffffffffffffffffffff16815260200190815260200160002060006101000a81548160ff02191690831515021790555060005b600180805490506105bf919061245a565b8110156106f3578173ffffffffffffffffffffffffffffffffffffffff16600182815481106105f1576105f061248e565b5b9060005260206000200160009054906101000a900473ffffffffffffffffffffffffffffffffffffffff1673ffffffffffffffffffffffffffffffffffffffff16036106e6576001808080549050610649919061245a565b8154811061065a5761065961248e565b5b9060005260206000200160009054906101000a900473ffffffffffffffffffffffffffffffffffffffff16600182815481106106995761069861248e565b5b9060005260206000200160006101000a81548173ffffffffffffffffffffffffffffffffffffffff021916908373ffffffffffffffffffffffffffffffffffffffff1602179055506106f3565b80806001019150506105ae565b506001805480610706576107056124bd565b5b6001900381819060005260206000200160006101000a81549073ffffffffffffffffffffffffffffffffffffffff021916905590558073ffffffffffffffffffffffffffffffffffffffff167f270bfc616dd36d5cb6b35aac93e6ef22b089c34e6f6ad6f0892797424840897b60405160405180910390a250565b60036020528060005260406000206000915054906101000a900460ff1681565b60046020528060005260406000206000915054906101000a900460ff1681565b600260006107cd61162a565b73ffffffffffffffffffffffffffffffffffffffff1673ffffffffffffffffffffffffffffffffffffffff16815260200190815260200160002060009054906101000a900460ff16610854576040517f08c379a000000000000000000000000000000000000000000000000000000000815260040161084b90612538565b60405180910390fd5b60006108668b8b8b8b8b8b8b8b610a55565b90506000151560076000838152602001908152602001600020600061088961162a565b73ffffffffffffffffffffffffffffffffffffffff1673ffffffffffffffffffffffffffffffffffffffff16815260200190815260200160002060009054906101000a900460ff16151514610913576040517f08c379a000000000000000000000000000000000000000000000000000000000815260040161090a906125ca565b60405180910390fd5b8160076000838152602001908152602001600020600061093161162a565b73ffffffffffffffffffffffffffffffffffffffff1673ffffffffffffffffffffffffffffffffffffffff16815260200190815260200160002060006101000a81548160ff021916908315150217905550600660008281526020019081526020016000206040518060200160405280858152509080600181540180825580915050600190039060005260206000200160009091909190915060008201518160000190816109de91906127f6565b5050506109e961162a565b73ffffffffffffffffffffffffffffffffffffffff16817e0c5e33200d7e9abe76ff98d6f624c355459ec93b8a9d70d0c66b3342e4b0cf8d8d8d8d8d8d8d8d8c8e604051610a409a9998979695949392919061296c565b60405180910390a35050505050505050505050565b60008089878787878c8e89604051602001610a77989796959493929190612aab565b6040516020818303038152906040528051906020012090508091505098975050505050505050565b600060066000838152602001908152602001600020805490509050919050565b60018181548110610acf57600080fd5b906000526020600020016000915054906101000a900473ffffffffffffffffffffffffffffffffffffffff1681565b603281565b610b0b6115a3565b610b156000611632565b565b60076020528160005260406000206020528060005260406000206000915091509054906101000a900460ff1681565b610b4e6115a3565b6000610b608989898989898989610a55565b905060006003600083815260200190815260200160002060006101000a81548160ff02191690831515021790555060006004600083815260200190815260200160002060006101000a81548160ff021916908315150217905550600660008281526020019081526020016000206000610bd991906116f6565b6000610be3610d94565b9050603281511115610c2a576040517f08c379a0000000000000000000000000000000000000000000000000000000008152600401610c2190612b89565b60405180910390fd5b60005b8151811015610d18576000600760008581526020019081526020016000206000848481518110610c6057610c5f61248e565b5b602002602001015173ffffffffffffffffffffffffffffffffffffffff1673ffffffffffffffffffffffffffffffffffffffff16815260200190815260200160002060006101000a81548160ff021916908315150217905550827fd413d6ff4b1c2b25d152b1aa4952aa05c186945476d4bce9b8a86b599b01f31f838381518110610cee57610ced61248e565b5b6020026020010151604051610d039190611d72565b60405180910390a28080600101915050610c2d565b50817ff5ee5e016a0239df3125ce971bb946239f619d43cbd209dd13d7090697645ab88b8b8b8b8b8b8b8b604051610d57989796959493929190612ba9565b60405180910390a250505050505050505050565b60008060009054906101000a900473ffffffffffffffffffffffffffffffffffffffff16905090565b60606001805480602002602001604051908101604052809291908181526020018280548015610e1857602002820191906000526020600020905b8160009054906101000a900473ffffffffffffffffffffffffffffffffffffffff1673ffffffffffffffffffffffffffffffffffffffff1681526020019060010190808311610dce575b5050505050905090565b60026020528060005260406000206000915054906101000a900460ff1681565b60026000610e4e61162a565b73ffffffffffffffffffffffffffffffffffffffff1673ffffffffffffffffffffffffffffffffffffffff16815260200190815260200160002060009054906101000a900460ff16610ed5576040517f08c379a0000000000000000000000000000000000000000000000000000000008152600401610ecc90612538565b60405180910390fd5b6000610ee78b8b8b8b8b8b8b8b610a55565b9050600015156003600083815260200190815260200160002060009054906101000a900460ff16151514610f50576040517f08c379a0000000000000000000000000000000000000000000000000000000008152600401610f4790612c8e565b60405180910390fd5b826003600083815260200190815260200160002060006101000a81548160ff021916908315150217905550807f6b12e5485cd13180161666e93eea616aa764f9473e9407cbc9d380e525b148de8c8c8c8c8c8c8c8c8c8c604051610fbd9a99989796959493929190612cae565b60405180910390a25050505050505050505050565b60066020528160005260406000208181548110610fee57600080fd5b906000526020600020016000915091505080600001805461100e90612619565b80601f016020809104026020016040519081016040528092919081815260200182805461103a90612619565b80156110875780601f1061105c57610100808354040283529160200191611087565b820191906000526020600020905b81548152906001019060200180831161106a57829003601f168201915b5050505050905081565b6110996115a3565b600073ffffffffffffffffffffffffffffffffffffffff168173ffffffffffffffffffffffffffffffffffffffff1603611108576040517f08c379a00000000000000000000000000000000000000000000000000000000081526004016110ff906122e7565b60405180910390fd5b600260008273ffffffffffffffffffffffffffffffffffffffff1673ffffffffffffffffffffffffffffffffffffffff16815260200190815260200160002060009054906101000a900460ff1615611195576040517f08c379a000000000000000000000000000000000000000000000000000000000815260040161118c90612db0565b60405180910390fd5b6001600260008373ffffffffffffffffffffffffffffffffffffffff1673ffffffffffffffffffffffffffffffffffffffff16815260200190815260200160002060006101000a81548160ff0219169083151502179055506001819080600181540180825580915050600190039060005260206000200160009091909190916101000a81548173ffffffffffffffffffffffffffffffffffffffff021916908373ffffffffffffffffffffffffffffffffffffffff1602179055508073ffffffffffffffffffffffffffffffffffffffff167f72114e270de66b9d2710ecf140403e5e99b1574767d6a8197bdc8d807a46e7c760405160405180910390a250565b600260006112a261162a565b73ffffffffffffffffffffffffffffffffffffffff1673ffffffffffffffffffffffffffffffffffffffff16815260200190815260200160002060009054906101000a900460ff16611329576040517f08c379a000000000000000000000000000000000000000000000000000000000815260040161132090612538565b60405180910390fd5b600061133b8a8a8a8a8a8a8a8a610a55565b9050600015156004600083815260200190815260200160002060009054906101000a900460ff161515146113a4576040517f08c379a000000000000000000000000000000000000000000000000000000000815260040161139b90612e42565b60405180910390fd5b816005600083815260200190815260200160002090816113c49190612ebd565b5060016004600083815260200190815260200160002060006101000a81548160ff0219169083151502179055507f9880428d91c000e25f804c22b554c8d3559776767df39711ebc2be5774a429988a8a8a8a8a8a8a8a898b6040516114329a99989796959493929190612f8f565b60405180910390a17f765eaa3dac831f58619f0d6e13e4c0dec16910847ca2bdd816f37df671e2f164826040516114699190612279565b60405180910390a150505050505050505050565b6005602052806000526040600020600091509050805461149c90612619565b80601f01602080910402602001604051908101604052809291908181526020018280546114c890612619565b80156115155780601f106114ea57610100808354040283529160200191611515565b820191906000526020600020905b8154815290600101906020018083116114f857829003601f168201915b505050505081565b6115256115a3565b600073ffffffffffffffffffffffffffffffffffffffff168173ffffffffffffffffffffffffffffffffffffffff16036115975760006040517f1e4fbdf700000000000000000000000000000000000000000000000000000000815260040161158e9190611d72565b60405180910390fd5b6115a081611632565b50565b6115ab61162a565b73ffffffffffffffffffffffffffffffffffffffff166115c9610d6b565b73ffffffffffffffffffffffffffffffffffffffff1614611628576115ec61162a565b6040517f118cdaa700000000000000000000000000000000000000000000000000000000815260040161161f9190611d72565b60405180910390fd5b565b600033905090565b60008060009054906101000a900473ffffffffffffffffffffffffffffffffffffffff169050816000806101000a81548173ffffffffffffffffffffffffffffffffffffffff021916908373ffffffffffffffffffffffffffffffffffffffff1602179055508173ffffffffffffffffffffffffffffffffffffffff168173ffffffffffffffffffffffffffffffffffffffff167f8be0079c531659141344cd1fd0a4f28419497f9722a3daafe3b4186f6b6457e060405160405180910390a35050565b50805460008255906000526020600020908101906117149190611717565b50565b5b8082111561173a5760008082016000611731919061173e565b50600101611718565b5090565b50805461174a90612619565b6000825580601f1061175c575061177b565b601f01602090049060005260206000209081019061177a919061177e565b5b50565b5b8082111561179757600081600090555060010161177f565b5090565b6000604051905090565b600080fd5b600080fd5b600073ffffffffffffffffffffffffffffffffffffffff82169050919050565b60006117da826117af565b9050919050565b6117ea816117cf565b81146117f557600080fd5b50565b600081359050611807816117e1565b92915050565b600060208284031215611823576118226117a5565b5b6000611831848285016117f8565b91505092915050565b6000819050919050565b61184d8161183a565b811461185857600080fd5b50565b60008135905061186a81611844565b92915050565b600060208284031215611886576118856117a5565b5b60006118948482850161185b565b91505092915050565b60008115159050919050565b6118b28161189d565b82525050565b60006020820190506118cd60008301846118a9565b92915050565b6000819050919050565b6118e6816118d3565b81146118f157600080fd5b50565b600081359050611903816118dd565b92915050565b600080fd5b600080fd5b600080fd5b60008083601f84011261192e5761192d611909565b5b8235905067ffffffffffffffff81111561194b5761194a61190e565b5b60208301915083600182028301111561196757611966611913565b5b9250929050565b6004811061197b57600080fd5b50565b60008135905061198d8161196e565b92915050565b600080fd5b6000601f19601f8301169050919050565b7f4e487b7100000000000000000000000000000000000000000000000000000000600052604160045260246000fd5b6119e182611998565b810181811067ffffffffffffffff82111715611a00576119ff6119a9565b5b80604052505050565b6000611a1361179b565b9050611a1f82826119d8565b919050565b600067ffffffffffffffff821115611a3f57611a3e6119a9565b5b611a4882611998565b9050602081019050919050565b82818337600083830152505050565b6000611a77611a7284611a24565b611a09565b905082815260208101848484011115611a9357611a92611993565b5b611a9e848285611a55565b509392505050565b600082601f830112611abb57611aba611909565b5b8135611acb848260208601611a64565b91505092915050565b611add8161189d565b8114611ae857600080fd5b50565b600081359050611afa81611ad4565b92915050565b6000806000806000806000806000806101008b8d031215611b2457611b236117a5565b5b6000611b328d828e0161185b565b9a50506020611b438d828e0161185b565b9950506040611b548d828e016118f4565b98505060608b013567ffffffffffffffff811115611b7557611b746117aa565b5b611b818d828e01611918565b975097505060808b013567ffffffffffffffff811115611ba457611ba36117aa565b5b611bb08d828e01611918565b955095505060a0611bc38d828e0161197e565b93505060c08b013567ffffffffffffffff811115611be457611be36117aa565b5b611bf08d828e01611aa6565b92505060e0611c018d828e01611aeb565b9150509295989b9194979a5092959850565b60008060008060008060008060c0898b031215611c3357611c326117a5565b5b6000611c418b828c0161185b565b9850506020611c528b828c0161185b565b9750506040611c638b828c016118f4565b965050606089013567ffffffffffffffff811115611c8457611c836117aa565b5b611c908b828c01611918565b9550955050608089013567ffffffffffffffff811115611cb357611cb26117aa565b5b611cbf8b828c01611918565b935093505060a0611cd28b828c0161197e565b9150509295985092959890939650565b611ceb8161183a565b82525050565b6000602082019050611d066000830184611ce2565b92915050565b611d15816118d3565b82525050565b6000602082019050611d306000830184611d0c565b92915050565b600060208284031215611d4c57611d4b6117a5565b5b6000611d5a848285016118f4565b91505092915050565b611d6c816117cf565b82525050565b6000602082019050611d876000830184611d63565b92915050565b60008060408385031215611da457611da36117a5565b5b6000611db28582860161185b565b9250506020611dc3858286016117f8565b9150509250929050565b600081519050919050565b600082825260208201905092915050565b6000819050602082019050919050565b611e02816117cf565b82525050565b6000611e148383611df9565b60208301905092915050565b6000602082019050919050565b6000611e3882611dcd565b611e428185611dd8565b9350611e4d83611de9565b8060005b83811015611e7e578151611e658882611e08565b9750611e7083611e20565b925050600181019050611e51565b5085935050505092915050565b60006020820190508181036000830152611ea58184611e2d565b905092915050565b6000806000806000806000806000806101008b8d031215611ed157611ed06117a5565b5b6000611edf8d828e0161185b565b9a50506020611ef08d828e0161185b565b9950506040611f018d828e016118f4565b98505060608b013567ffffffffffffffff811115611f2257611f216117aa565b5b611f2e8d828e01611918565b975097505060808b013567ffffffffffffffff811115611f5157611f506117aa565b5b611f5d8d828e01611918565b955095505060a0611f708d828e0161197e565b93505060c0611f818d828e01611aeb565b92505060e0611f928d828e0161185b565b9150509295989b9194979a5092959850565b60008060408385031215611fbb57611fba6117a5565b5b6000611fc98582860161185b565b9250506020611fda858286016118f4565b9150509250929050565b600081519050919050565b600082825260208201905092915050565b60005b8381101561201e578082015181840152602081019050612003565b60008484015250505050565b600061203582611fe4565b61203f8185611fef565b935061204f818560208601612000565b61205881611998565b840191505092915050565b6000602082019050818103600083015261207d818461202a565b905092915050565b600067ffffffffffffffff8211156120a05761209f6119a9565b5b6120a982611998565b9050602081019050919050565b60006120c96120c484612085565b611a09565b9050828152602081018484840111156120e5576120e4611993565b5b6120f0848285611a55565b509392505050565b600082601f83011261210d5761210c611909565b5b813561211d8482602086016120b6565b91505092915050565b600080600080600080600080600060e08a8c031215612148576121476117a5565b5b60006121568c828d0161185b565b99505060206121678c828d0161185b565b98505060406121788c828d016118f4565b97505060608a013567ffffffffffffffff811115612199576121986117aa565b5b6121a58c828d01611918565b965096505060808a013567ffffffffffffffff8111156121c8576121c76117aa565b5b6121d48c828d01611918565b945094505060a06121e78c828d0161197e565b92505060c08a013567ffffffffffffffff811115612208576122076117aa565b5b6122148c828d016120f8565b9150509295985092959850929598565b600081519050919050565b600082825260208201905092915050565b600061224b82612224565b612255818561222f565b9350612265818560208601612000565b61226e81611998565b840191505092915050565b600060208201905081810360008301526122938184612240565b905092915050565b7f486174686f7246656465726174696f6e3a20456d707479206d656d6265720000600082015250565b60006122d1601e83611fef565b91506122dc8261229b565b602082019050919050565b60006020820190508181036000830152612300816122c4565b9050919050565b7f486174686f7246656465726174696f6e3a204d656d62657220646f65736e277460008201527f2065786973740000000000000000000000000000000000000000000000000000602082015250565b6000612363602683611fef565b915061236e82612307565b604082019050919050565b6000602082019050818103600083015261239281612356565b9050919050565b7f486174686f7246656465726174696f6e3a2043616e27742072656d6f7665206160008201527f6c6c20746865206d656d62657273000000000000000000000000000000000000602082015250565b60006123f5602e83611fef565b915061240082612399565b604082019050919050565b60006020820190508181036000830152612424816123e8565b9050919050565b7f4e487b7100000000000000000000000000000000000000000000000000000000600052601160045260246000fd5b6000612465826118d3565b9150612470836118d3565b92508282039050818111156124885761248761242b565b5b92915050565b7f4e487b7100000000000000000000000000000000000000000000000000000000600052603260045260246000fd5b7f4e487b7100000000000000000000000000000000000000000000000000000000600052603160045260246000fd5b7f486174686f7246656465726174696f6e3a204e6f7420466564657261746f7200600082015250565b6000612522601f83611fef565b915061252d826124ec565b602082019050919050565b6000602082019050818103600083015261255181612515565b9050919050565b7f486174686f7246656465726174696f6e3a205472616e73616374696f6e20616c60008201527f7265616479207369676e65640000000000000000000000000000000000000000602082015250565b60006125b4602c83611fef565b91506125bf82612558565b604082019050919050565b600060208201905081810360008301526125e3816125a7565b9050919050565b7f4e487b7100000000000000000000000000000000000000000000000000000000600052602260045260246000fd5b6000600282049050600182168061263157607f821691505b602082108103612644576126436125ea565b5b50919050565b60008190508160005260206000209050919050565b60006020601f8301049050919050565b600082821b905092915050565b6000600883026126ac7fffffffffffffffffffffffffffffffffffffffffffffffffffffffffffffffff8261266f565b6126b6868361266f565b95508019841693508086168417925050509392505050565b6000819050919050565b60006126f36126ee6126e9846118d3565b6126ce565b6118d3565b9050919050565b6000819050919050565b61270d836126d8565b612721612719826126fa565b84845461267c565b825550505050565b600090565b612736612729565b612741818484612704565b505050565b5b818110156127655761275a60008261272e565b600181019050612747565b5050565b601f8211156127aa5761277b8161264a565b6127848461265f565b81016020851015612793578190505b6127a761279f8561265f565b830182612746565b50505b505050565b600082821c905092915050565b60006127cd600019846008026127af565b1980831691505092915050565b60006127e683836127bc565b9150826002028217905092915050565b6127ff82611fe4565b67ffffffffffffffff811115612818576128176119a9565b5b6128228254612619565b61282d828285612769565b600060209050601f831160018114612860576000841561284e578287015190505b61285885826127da565b8655506128c0565b601f19841661286e8661264a565b60005b8281101561289657848901518255600182019150602085019450602081019050612871565b868310156128b357848901516128af601f8916826127bc565b8355505b6001600288020188555050505b505050505050565b60006128d48385611fef565b93506128e1838584611a55565b6128ea83611998565b840190509392505050565b7f4e487b7100000000000000000000000000000000000000000000000000000000600052602160045260246000fd5b60048110612935576129346128f5565b5b50565b600081905061294682612924565b919050565b600061295682612938565b9050919050565b6129668161294b565b82525050565b600061010082019050612982600083018d611ce2565b61298f602083018c611ce2565b61299c604083018b611d0c565b81810360608301526129af81898b6128c8565b905081810360808301526129c48187896128c8565b90506129d360a083018661295d565b6129e060c08301856118a9565b81810360e08301526129f2818461202a565b90509b9a5050505050505050505050565b6000819050919050565b612a1e612a198261183a565b612a03565b82525050565b600081905092915050565b6000612a3b8385612a24565b9350612a48838584611a55565b82840190509392505050565b6000819050919050565b612a6f612a6a826118d3565b612a54565b82525050565b60008160f81b9050919050565b6000612a8d82612a75565b9050919050565b612aa5612aa08261294b565b612a82565b82525050565b6000612ab7828b612a0d565b602082019150612ac882898b612a2f565b9150612ad5828789612a2f565b9150612ae18286612a5e565b602082019150612af18285612a0d565b602082019150612b018284612a94565b6001820191508190509998505050505050505050565b7f486174686f7246656465726174696f6e3a20546f6f206d616e79206d656d626560008201527f7273000000000000000000000000000000000000000000000000000000000000602082015250565b6000612b73602283611fef565b9150612b7e82612b17565b604082019050919050565b60006020820190508181036000830152612ba281612b66565b9050919050565b600060c082019050612bbe600083018b611ce2565b612bcb602083018a611ce2565b612bd86040830189611d0c565b8181036060830152612beb8187896128c8565b90508181036080830152612c008185876128c8565b9050612c0f60a083018461295d565b9998505050505050505050565b7f486174686f7246656465726174696f6e3a205472616e73616374696f6e20616c60008201527f72656164792073656e7400000000000000000000000000000000000000000000602082015250565b6000612c78602a83611fef565b9150612c8382612c1c565b604082019050919050565b60006020820190508181036000830152612ca781612c6b565b9050919050565b600061010082019050612cc4600083018d611ce2565b612cd1602083018c611ce2565b612cde604083018b611d0c565b8181036060830152612cf181898b6128c8565b90508181036080830152612d068187896128c8565b9050612d1560a083018661295d565b612d2260c08301856118a9565b612d2f60e0830184611ce2565b9b9a5050505050505050505050565b7f486174686f7246656465726174696f6e3a204d656d62657220616c726561647960008201527f2065786973747300000000000000000000000000000000000000000000000000602082015250565b6000612d9a602783611fef565b9150612da582612d3e565b604082019050919050565b60006020820190508181036000830152612dc981612d8d565b9050919050565b7f486174686f7246656465726174696f6e3a20616c72656164792070726f706f7360008201527f6564000000000000000000000000000000000000000000000000000000000000602082015250565b6000612e2c602283611fef565b9150612e3782612dd0565b604082019050919050565b60006020820190508181036000830152612e5b81612e1f565b9050919050565b60008190508160005260206000209050919050565b601f821115612eb857612e8981612e62565b612e928461265f565b81016020851015612ea1578190505b612eb5612ead8561265f565b830182612746565b50505b505050565b612ec682612224565b67ffffffffffffffff811115612edf57612ede6119a9565b5b612ee98254612619565b612ef4828285612e77565b600060209050601f831160018114612f275760008415612f15578287015190505b612f1f85826127da565b865550612f87565b601f198416612f3586612e62565b60005b82811015612f5d57848901518255600182019150602085019450602081019050612f38565b86831015612f7a5784890151612f76601f8916826127bc565b8355505b6001600288020188555050505b505050505050565b600061010082019050612fa5600083018d611ce2565b612fb2602083018c611ce2565b612fbf604083018b611d0c565b8181036060830152612fd281898b6128c8565b90508181036080830152612fe78187896128c8565b9050612ff660a083018661295d565b61300360c0830185611ce2565b81810360e08301526130158184612240565b90509b9a505050505050505050505056fea2646970667358221220b1f25a1f3c1b7165e75597e438f6e137f7efe43b1f5b61a3853be88d5709283764736f6c63430008180033",
          "opcodes": "PUSH1 0x80 PUSH1 0x40 MSTORE CALLVALUE DUP1 ISZERO PUSH3 0x11 JUMPI PUSH1 0x0 DUP1 REVERT JUMPDEST POP PUSH1 0x40 MLOAD PUSH3 0x38ED CODESIZE SUB DUP1 PUSH3 0x38ED DUP4 CODECOPY DUP2 DUP2 ADD PUSH1 0x40 MSTORE DUP2 ADD SWAP1 PUSH3 0x37 SWAP2 SWAP1 PUSH3 0x67D JUMP JUMPDEST DUP1 PUSH1 0x0 PUSH20 0xFFFFFFFFFFFFFFFFFFFFFFFFFFFFFFFFFFFFFFFF AND DUP2 PUSH20 0xFFFFFFFFFFFFFFFFFFFFFFFFFFFFFFFFFFFFFFFF AND SUB PUSH3 0xAD JUMPI PUSH1 0x0 PUSH1 0x40 MLOAD PUSH32 0x1E4FBDF700000000000000000000000000000000000000000000000000000000 DUP2 MSTORE PUSH1 0x4 ADD PUSH3 0xA4 SWAP2 SWAP1 PUSH3 0x6F4 JUMP JUMPDEST PUSH1 0x40 MLOAD DUP1 SWAP2 SUB SWAP1 REVERT JUMPDEST PUSH3 0xBE DUP2 PUSH3 0x31D PUSH1 0x20 SHL PUSH1 0x20 SHR JUMP JUMPDEST POP PUSH1 0x32 DUP3 MLOAD GT ISZERO PUSH3 0x107 JUMPI PUSH1 0x40 MLOAD PUSH32 0x8C379A000000000000000000000000000000000000000000000000000000000 DUP2 MSTORE PUSH1 0x4 ADD PUSH3 0xFE SWAP1 PUSH3 0x798 JUMP JUMPDEST PUSH1 0x40 MLOAD DUP1 SWAP2 SUB SWAP1 REVERT JUMPDEST DUP2 PUSH1 0x1 SWAP1 DUP1 MLOAD SWAP1 PUSH1 0x20 ADD SWAP1 PUSH3 0x11F SWAP3 SWAP2 SWAP1 PUSH3 0x3E1 JUMP JUMPDEST POP PUSH1 0x0 JUMPDEST DUP3 MLOAD DUP2 LT ISZERO PUSH3 0x314 JUMPI PUSH1 0x2 PUSH1 0x0 DUP5 DUP4 DUP2 MLOAD DUP2 LT PUSH3 0x147 JUMPI PUSH3 0x146 PUSH3 0x7BA JUMP JUMPDEST JUMPDEST PUSH1 0x20 MUL PUSH1 0x20 ADD ADD MLOAD PUSH20 0xFFFFFFFFFFFFFFFFFFFFFFFFFFFFFFFFFFFFFFFF AND PUSH20 0xFFFFFFFFFFFFFFFFFFFFFFFFFFFFFFFFFFFFFFFF AND DUP2 MSTORE PUSH1 0x20 ADD SWAP1 DUP2 MSTORE PUSH1 0x20 ADD PUSH1 0x0 KECCAK256 PUSH1 0x0 SWAP1 SLOAD SWAP1 PUSH2 0x100 EXP SWAP1 DIV PUSH1 0xFF AND ISZERO DUP1 ISZERO PUSH3 0x1EF JUMPI POP PUSH1 0x0 PUSH20 0xFFFFFFFFFFFFFFFFFFFFFFFFFFFFFFFFFFFFFFFF AND DUP4 DUP3 DUP2 MLOAD DUP2 LT PUSH3 0x1CE JUMPI PUSH3 0x1CD PUSH3 0x7BA JUMP JUMPDEST JUMPDEST PUSH1 0x20 MUL PUSH1 0x20 ADD ADD MLOAD PUSH20 0xFFFFFFFFFFFFFFFFFFFFFFFFFFFFFFFFFFFFFFFF AND EQ ISZERO JUMPDEST PUSH3 0x231 JUMPI PUSH1 0x40 MLOAD PUSH32 0x8C379A000000000000000000000000000000000000000000000000000000000 DUP2 MSTORE PUSH1 0x4 ADD PUSH3 0x228 SWAP1 PUSH3 0x85F JUMP JUMPDEST PUSH1 0x40 MLOAD DUP1 SWAP2 SUB SWAP1 REVERT JUMPDEST PUSH1 0x1 PUSH1 0x2 PUSH1 0x0 DUP6 DUP5 DUP2 MLOAD DUP2 LT PUSH3 0x24D JUMPI PUSH3 0x24C PUSH3 0x7BA JUMP JUMPDEST JUMPDEST PUSH1 0x20 MUL PUSH1 0x20 ADD ADD MLOAD PUSH20 0xFFFFFFFFFFFFFFFFFFFFFFFFFFFFFFFFFFFFFFFF AND PUSH20 0xFFFFFFFFFFFFFFFFFFFFFFFFFFFFFFFFFFFFFFFF AND DUP2 MSTORE PUSH1 0x20 ADD SWAP1 DUP2 MSTORE PUSH1 0x20 ADD PUSH1 0x0 KECCAK256 PUSH1 0x0 PUSH2 0x100 EXP DUP2 SLOAD DUP2 PUSH1 0xFF MUL NOT AND SWAP1 DUP4 ISZERO ISZERO MUL OR SWAP1 SSTORE POP DUP3 DUP2 DUP2 MLOAD DUP2 LT PUSH3 0x2BC JUMPI PUSH3 0x2BB PUSH3 0x7BA JUMP JUMPDEST JUMPDEST PUSH1 0x20 MUL PUSH1 0x20 ADD ADD MLOAD PUSH20 0xFFFFFFFFFFFFFFFFFFFFFFFFFFFFFFFFFFFFFFFF AND PUSH32 0x72114E270DE66B9D2710ECF140403E5E99B1574767D6A8197BDC8D807A46E7C7 PUSH1 0x40 MLOAD PUSH1 0x40 MLOAD DUP1 SWAP2 SUB SWAP1 LOG2 DUP1 DUP1 PUSH1 0x1 ADD SWAP2 POP POP PUSH3 0x123 JUMP JUMPDEST POP POP POP PUSH3 0x881 JUMP JUMPDEST PUSH1 0x0 DUP1 PUSH1 0x0 SWAP1 SLOAD SWAP1 PUSH2 0x100 EXP SWAP1 DIV PUSH20 0xFFFFFFFFFFFFFFFFFFFFFFFFFFFFFFFFFFFFFFFF AND SWAP1 POP DUP2 PUSH1 0x0 DUP1 PUSH2 0x100 EXP DUP2 SLOAD DUP2 PUSH20 0xFFFFFFFFFFFFFFFFFFFFFFFFFFFFFFFFFFFFFFFF MUL NOT AND SWAP1 DUP4 PUSH20 0xFFFFFFFFFFFFFFFFFFFFFFFFFFFFFFFFFFFFFFFF AND MUL OR SWAP1 SSTORE POP DUP2 PUSH20 0xFFFFFFFFFFFFFFFFFFFFFFFFFFFFFFFFFFFFFFFF AND DUP2 PUSH20 0xFFFFFFFFFFFFFFFFFFFFFFFFFFFFFFFFFFFFFFFF AND PUSH32 0x8BE0079C531659141344CD1FD0A4F28419497F9722A3DAAFE3B4186F6B6457E0 PUSH1 0x40 MLOAD PUSH1 0x40 MLOAD DUP1 SWAP2 SUB SWAP1 LOG3 POP POP JUMP JUMPDEST DUP3 DUP1 SLOAD DUP3 DUP3 SSTORE SWAP1 PUSH1 0x0 MSTORE PUSH1 0x20 PUSH1 0x0 KECCAK256 SWAP1 DUP2 ADD SWAP3 DUP3 ISZERO PUSH3 0x45D JUMPI SWAP2 PUSH1 0x20 MUL DUP3 ADD JUMPDEST DUP3 DUP2 GT ISZERO PUSH3 0x45C JUMPI DUP3 MLOAD DUP3 PUSH1 0x0 PUSH2 0x100 EXP DUP2 SLOAD DUP2 PUSH20 0xFFFFFFFFFFFFFFFFFFFFFFFFFFFFFFFFFFFFFFFF MUL NOT AND SWAP1 DUP4 PUSH20 0xFFFFFFFFFFFFFFFFFFFFFFFFFFFFFFFFFFFFFFFF AND MUL OR SWAP1 SSTORE POP SWAP2 PUSH1 0x20 ADD SWAP2 SWAP1 PUSH1 0x1 ADD SWAP1 PUSH3 0x402 JUMP JUMPDEST JUMPDEST POP SWAP1 POP PUSH3 0x46C SWAP2 SWAP1 PUSH3 0x470 JUMP JUMPDEST POP SWAP1 JUMP JUMPDEST JUMPDEST DUP1 DUP3 GT ISZERO PUSH3 0x48B JUMPI PUSH1 0x0 DUP2 PUSH1 0x0 SWAP1 SSTORE POP PUSH1 0x1 ADD PUSH3 0x471 JUMP JUMPDEST POP SWAP1 JUMP JUMPDEST PUSH1 0x0 PUSH1 0x40 MLOAD SWAP1 POP SWAP1 JUMP JUMPDEST PUSH1 0x0 DUP1 REVERT JUMPDEST PUSH1 0x0 DUP1 REVERT JUMPDEST PUSH1 0x0 DUP1 REVERT JUMPDEST PUSH1 0x0 PUSH1 0x1F NOT PUSH1 0x1F DUP4 ADD AND SWAP1 POP SWAP2 SWAP1 POP JUMP JUMPDEST PUSH32 0x4E487B7100000000000000000000000000000000000000000000000000000000 PUSH1 0x0 MSTORE PUSH1 0x41 PUSH1 0x4 MSTORE PUSH1 0x24 PUSH1 0x0 REVERT JUMPDEST PUSH3 0x4F3 DUP3 PUSH3 0x4A8 JUMP JUMPDEST DUP2 ADD DUP2 DUP2 LT PUSH8 0xFFFFFFFFFFFFFFFF DUP3 GT OR ISZERO PUSH3 0x515 JUMPI PUSH3 0x514 PUSH3 0x4B9 JUMP JUMPDEST JUMPDEST DUP1 PUSH1 0x40 MSTORE POP POP POP JUMP JUMPDEST PUSH1 0x0 PUSH3 0x52A PUSH3 0x48F JUMP JUMPDEST SWAP1 POP PUSH3 0x538 DUP3 DUP3 PUSH3 0x4E8 JUMP JUMPDEST SWAP2 SWAP1 POP JUMP JUMPDEST PUSH1 0x0 PUSH8 0xFFFFFFFFFFFFFFFF DUP3 GT ISZERO PUSH3 0x55B JUMPI PUSH3 0x55A PUSH3 0x4B9 JUMP JUMPDEST JUMPDEST PUSH1 0x20 DUP3 MUL SWAP1 POP PUSH1 0x20 DUP2 ADD SWAP1 POP SWAP2 SWAP1 POP JUMP JUMPDEST PUSH1 0x0 DUP1 REVERT JUMPDEST PUSH1 0x0 PUSH20 0xFFFFFFFFFFFFFFFFFFFFFFFFFFFFFFFFFFFFFFFF DUP3 AND SWAP1 POP SWAP2 SWAP1 POP JUMP JUMPDEST PUSH1 0x0 PUSH3 0x59E DUP3 PUSH3 0x571 JUMP JUMPDEST SWAP1 POP SWAP2 SWAP1 POP JUMP JUMPDEST PUSH3 0x5B0 DUP2 PUSH3 0x591 JUMP JUMPDEST DUP2 EQ PUSH3 0x5BC JUMPI PUSH1 0x0 DUP1 REVERT JUMPDEST POP JUMP JUMPDEST PUSH1 0x0 DUP2 MLOAD SWAP1 POP PUSH3 0x5D0 DUP2 PUSH3 0x5A5 JUMP JUMPDEST SWAP3 SWAP2 POP POP JUMP JUMPDEST PUSH1 0x0 PUSH3 0x5ED PUSH3 0x5E7 DUP5 PUSH3 0x53D JUMP JUMPDEST PUSH3 0x51E JUMP JUMPDEST SWAP1 POP DUP1 DUP4 DUP3 MSTORE PUSH1 0x20 DUP3 ADD SWAP1 POP PUSH1 0x20 DUP5 MUL DUP4 ADD DUP6 DUP2 GT ISZERO PUSH3 0x613 JUMPI PUSH3 0x612 PUSH3 0x56C JUMP JUMPDEST JUMPDEST DUP4 JUMPDEST DUP2 DUP2 LT ISZERO PUSH3 0x640 JUMPI DUP1 PUSH3 0x62B DUP9 DUP3 PUSH3 0x5BF JUMP JUMPDEST DUP5 MSTORE PUSH1 0x20 DUP5 ADD SWAP4 POP POP PUSH1 0x20 DUP2 ADD SWAP1 POP PUSH3 0x615 JUMP JUMPDEST POP POP POP SWAP4 SWAP3 POP POP POP JUMP JUMPDEST PUSH1 0x0 DUP3 PUSH1 0x1F DUP4 ADD SLT PUSH3 0x662 JUMPI PUSH3 0x661 PUSH3 0x4A3 JUMP JUMPDEST JUMPDEST DUP2 MLOAD PUSH3 0x674 DUP5 DUP3 PUSH1 0x20 DUP7 ADD PUSH3 0x5D6 JUMP JUMPDEST SWAP2 POP POP SWAP3 SWAP2 POP POP JUMP JUMPDEST PUSH1 0x0 DUP1 PUSH1 0x40 DUP4 DUP6 SUB SLT ISZERO PUSH3 0x697 JUMPI PUSH3 0x696 PUSH3 0x499 JUMP JUMPDEST JUMPDEST PUSH1 0x0 DUP4 ADD MLOAD PUSH8 0xFFFFFFFFFFFFFFFF DUP2 GT ISZERO PUSH3 0x6B8 JUMPI PUSH3 0x6B7 PUSH3 0x49E JUMP JUMPDEST JUMPDEST PUSH3 0x6C6 DUP6 DUP3 DUP7 ADD PUSH3 0x64A JUMP JUMPDEST SWAP3 POP POP PUSH1 0x20 PUSH3 0x6D9 DUP6 DUP3 DUP7 ADD PUSH3 0x5BF JUMP JUMPDEST SWAP2 POP POP SWAP3 POP SWAP3 SWAP1 POP JUMP JUMPDEST PUSH3 0x6EE DUP2 PUSH3 0x591 JUMP JUMPDEST DUP3 MSTORE POP POP JUMP JUMPDEST PUSH1 0x0 PUSH1 0x20 DUP3 ADD SWAP1 POP PUSH3 0x70B PUSH1 0x0 DUP4 ADD DUP5 PUSH3 0x6E3 JUMP JUMPDEST SWAP3 SWAP2 POP POP JUMP JUMPDEST PUSH1 0x0 DUP3 DUP3 MSTORE PUSH1 0x20 DUP3 ADD SWAP1 POP SWAP3 SWAP2 POP POP JUMP JUMPDEST PUSH32 0x486174686F7246656465726174696F6E3A20546F6F206D616E79206D656D6265 PUSH1 0x0 DUP3 ADD MSTORE PUSH32 0x7273000000000000000000000000000000000000000000000000000000000000 PUSH1 0x20 DUP3 ADD MSTORE POP JUMP JUMPDEST PUSH1 0x0 PUSH3 0x780 PUSH1 0x22 DUP4 PUSH3 0x711 JUMP JUMPDEST SWAP2 POP PUSH3 0x78D DUP3 PUSH3 0x722 JUMP JUMPDEST PUSH1 0x40 DUP3 ADD SWAP1 POP SWAP2 SWAP1 POP JUMP JUMPDEST PUSH1 0x0 PUSH1 0x20 DUP3 ADD SWAP1 POP DUP2 DUP2 SUB PUSH1 0x0 DUP4 ADD MSTORE PUSH3 0x7B3 DUP2 PUSH3 0x771 JUMP JUMPDEST SWAP1 POP SWAP2 SWAP1 POP JUMP JUMPDEST PUSH32 0x4E487B7100000000000000000000000000000000000000000000000000000000 PUSH1 0x0 MSTORE PUSH1 0x32 PUSH1 0x4 MSTORE PUSH1 0x24 PUSH1 0x0 REVERT JUMPDEST PUSH32 0x486174686F7246656465726174696F6E3A20496E76616C6964206D656D626572 PUSH1 0x0 DUP3 ADD MSTORE PUSH32 0x7300000000000000000000000000000000000000000000000000000000000000 PUSH1 0x20 DUP3 ADD MSTORE POP JUMP JUMPDEST PUSH1 0x0 PUSH3 0x847 PUSH1 0x21 DUP4 PUSH3 0x711 JUMP JUMPDEST SWAP2 POP PUSH3 0x854 DUP3 PUSH3 0x7E9 JUMP JUMPDEST PUSH1 0x40 DUP3 ADD SWAP1 POP SWAP2 SWAP1 POP JUMP JUMPDEST PUSH1 0x0 PUSH1 0x20 DUP3 ADD SWAP1 POP DUP2 DUP2 SUB PUSH1 0x0 DUP4 ADD MSTORE PUSH3 0x87A DUP2 PUSH3 0x838 JUMP JUMPDEST SWAP1 POP SWAP2 SWAP1 POP JUMP JUMPDEST PUSH2 0x305C DUP1 PUSH3 0x891 PUSH1 0x0 CODECOPY PUSH1 0x0 RETURN INVALID PUSH1 0x80 PUSH1 0x40 MSTORE CALLVALUE DUP1 ISZERO PUSH2 0x10 JUMPI PUSH1 0x0 DUP1 REVERT JUMPDEST POP PUSH1 0x4 CALLDATASIZE LT PUSH2 0x12C JUMPI PUSH1 0x0 CALLDATALOAD PUSH1 0xE0 SHR DUP1 PUSH4 0x8140949D GT PUSH2 0xAD JUMPI DUP1 PUSH4 0xB58D1CFB GT PUSH2 0x71 JUMPI DUP1 PUSH4 0xB58D1CFB EQ PUSH2 0x355 JUMPI DUP1 PUSH4 0xCA6D56DC EQ PUSH2 0x385 JUMPI DUP1 PUSH4 0xD80775E1 EQ PUSH2 0x3A1 JUMPI DUP1 PUSH4 0xE831C6AE EQ PUSH2 0x3BD JUMPI DUP1 PUSH4 0xF2FDE38B EQ PUSH2 0x3ED JUMPI PUSH2 0x12C JUMP JUMPDEST DUP1 PUSH4 0x8140949D EQ PUSH2 0x2B1 JUMPI DUP1 PUSH4 0x8DA5CB5B EQ PUSH2 0x2CD JUMPI DUP1 PUSH4 0x9EAB5253 EQ PUSH2 0x2EB JUMPI DUP1 PUSH4 0xA230C524 EQ PUSH2 0x309 JUMPI DUP1 PUSH4 0xA9610094 EQ PUSH2 0x339 JUMPI PUSH2 0x12C JUMP JUMPDEST DUP1 PUSH4 0x2BBE96BC GT PUSH2 0xF4 JUMPI DUP1 PUSH4 0x2BBE96BC EQ PUSH2 0x1F9 JUMPI DUP1 PUSH4 0x5DAF08CA EQ PUSH2 0x229 JUMPI DUP1 PUSH4 0x681FC921 EQ PUSH2 0x259 JUMPI DUP1 PUSH4 0x715018A6 EQ PUSH2 0x277 JUMPI DUP1 PUSH4 0x7F8D61E0 EQ PUSH2 0x281 JUMPI PUSH2 0x12C JUMP JUMPDEST DUP1 PUSH4 0xB1CA49A EQ PUSH2 0x131 JUMPI DUP1 PUSH4 0x11C16896 EQ PUSH2 0x14D JUMPI DUP1 PUSH4 0x1206B7A9 EQ PUSH2 0x17D JUMPI DUP1 PUSH4 0x184C5FB2 EQ PUSH2 0x1AD JUMPI DUP1 PUSH4 0x1FD98EAA EQ PUSH2 0x1C9 JUMPI JUMPDEST PUSH1 0x0 DUP1 REVERT JUMPDEST PUSH2 0x14B PUSH1 0x4 DUP1 CALLDATASIZE SUB DUP2 ADD SWAP1 PUSH2 0x146 SWAP2 SWAP1 PUSH2 0x180D JUMP JUMPDEST PUSH2 0x409 JUMP JUMPDEST STOP JUMPDEST PUSH2 0x167 PUSH1 0x4 DUP1 CALLDATASIZE SUB DUP2 ADD SWAP1 PUSH2 0x162 SWAP2 SWAP1 PUSH2 0x1870 JUMP JUMPDEST PUSH2 0x781 JUMP JUMPDEST PUSH1 0x40 MLOAD PUSH2 0x174 SWAP2 SWAP1 PUSH2 0x18B8 JUMP JUMPDEST PUSH1 0x40 MLOAD DUP1 SWAP2 SUB SWAP1 RETURN JUMPDEST PUSH2 0x197 PUSH1 0x4 DUP1 CALLDATASIZE SUB DUP2 ADD SWAP1 PUSH2 0x192 SWAP2 SWAP1 PUSH2 0x1870 JUMP JUMPDEST PUSH2 0x7A1 JUMP JUMPDEST PUSH1 0x40 MLOAD PUSH2 0x1A4 SWAP2 SWAP1 PUSH2 0x18B8 JUMP JUMPDEST PUSH1 0x40 MLOAD DUP1 SWAP2 SUB SWAP1 RETURN JUMPDEST PUSH2 0x1C7 PUSH1 0x4 DUP1 CALLDATASIZE SUB DUP2 ADD SWAP1 PUSH2 0x1C2 SWAP2 SWAP1 PUSH2 0x1B00 JUMP JUMPDEST PUSH2 0x7C1 JUMP JUMPDEST STOP JUMPDEST PUSH2 0x1E3 PUSH1 0x4 DUP1 CALLDATASIZE SUB DUP2 ADD SWAP1 PUSH2 0x1DE SWAP2 SWAP1 PUSH2 0x1C13 JUMP JUMPDEST PUSH2 0xA55 JUMP JUMPDEST PUSH1 0x40 MLOAD PUSH2 0x1F0 SWAP2 SWAP1 PUSH2 0x1CF1 JUMP JUMPDEST PUSH1 0x40 MLOAD DUP1 SWAP2 SUB SWAP1 RETURN JUMPDEST PUSH2 0x213 PUSH1 0x4 DUP1 CALLDATASIZE SUB DUP2 ADD SWAP1 PUSH2 0x20E SWAP2 SWAP1 PUSH2 0x1870 JUMP JUMPDEST PUSH2 0xA9F JUMP JUMPDEST PUSH1 0x40 MLOAD PUSH2 0x220 SWAP2 SWAP1 PUSH2 0x1D1B JUMP JUMPDEST PUSH1 0x40 MLOAD DUP1 SWAP2 SUB SWAP1 RETURN JUMPDEST PUSH2 0x243 PUSH1 0x4 DUP1 CALLDATASIZE SUB DUP2 ADD SWAP1 PUSH2 0x23E SWAP2 SWAP1 PUSH2 0x1D36 JUMP JUMPDEST PUSH2 0xABF JUMP JUMPDEST PUSH1 0x40 MLOAD PUSH2 0x250 SWAP2 SWAP1 PUSH2 0x1D72 JUMP JUMPDEST PUSH1 0x40 MLOAD DUP1 SWAP2 SUB SWAP1 RETURN JUMPDEST PUSH2 0x261 PUSH2 0xAFE JUMP JUMPDEST PUSH1 0x40 MLOAD PUSH2 0x26E SWAP2 SWAP1 PUSH2 0x1D1B JUMP JUMPDEST PUSH1 0x40 MLOAD DUP1 SWAP2 SUB SWAP1 RETURN JUMPDEST PUSH2 0x27F PUSH2 0xB03 JUMP JUMPDEST STOP JUMPDEST PUSH2 0x29B PUSH1 0x4 DUP1 CALLDATASIZE SUB DUP2 ADD SWAP1 PUSH2 0x296 SWAP2 SWAP1 PUSH2 0x1D8D JUMP JUMPDEST PUSH2 0xB17 JUMP JUMPDEST PUSH1 0x40 MLOAD PUSH2 0x2A8 SWAP2 SWAP1 PUSH2 0x18B8 JUMP JUMPDEST PUSH1 0x40 MLOAD DUP1 SWAP2 SUB SWAP1 RETURN JUMPDEST PUSH2 0x2CB PUSH1 0x4 DUP1 CALLDATASIZE SUB DUP2 ADD SWAP1 PUSH2 0x2C6 SWAP2 SWAP1 PUSH2 0x1C13 JUMP JUMPDEST PUSH2 0xB46 JUMP JUMPDEST STOP JUMPDEST PUSH2 0x2D5 PUSH2 0xD6B JUMP JUMPDEST PUSH1 0x40 MLOAD PUSH2 0x2E2 SWAP2 SWAP1 PUSH2 0x1D72 JUMP JUMPDEST PUSH1 0x40 MLOAD DUP1 SWAP2 SUB SWAP1 RETURN JUMPDEST PUSH2 0x2F3 PUSH2 0xD94 JUMP JUMPDEST PUSH1 0x40 MLOAD PUSH2 0x300 SWAP2 SWAP1 PUSH2 0x1E8B JUMP JUMPDEST PUSH1 0x40 MLOAD DUP1 SWAP2 SUB SWAP1 RETURN JUMPDEST PUSH2 0x323 PUSH1 0x4 DUP1 CALLDATASIZE SUB DUP2 ADD SWAP1 PUSH2 0x31E SWAP2 SWAP1 PUSH2 0x180D JUMP JUMPDEST PUSH2 0xE22 JUMP JUMPDEST PUSH1 0x40 MLOAD PUSH2 0x330 SWAP2 SWAP1 PUSH2 0x18B8 JUMP JUMPDEST PUSH1 0x40 MLOAD DUP1 SWAP2 SUB SWAP1 RETURN JUMPDEST PUSH2 0x353 PUSH1 0x4 DUP1 CALLDATASIZE SUB DUP2 ADD SWAP1 PUSH2 0x34E SWAP2 SWAP1 PUSH2 0x1EAD JUMP JUMPDEST PUSH2 0xE42 JUMP JUMPDEST STOP JUMPDEST PUSH2 0x36F PUSH1 0x4 DUP1 CALLDATASIZE SUB DUP2 ADD SWAP1 PUSH2 0x36A SWAP2 SWAP1 PUSH2 0x1FA4 JUMP JUMPDEST PUSH2 0xFD2 JUMP JUMPDEST PUSH1 0x40 MLOAD PUSH2 0x37C SWAP2 SWAP1 PUSH2 0x2063 JUMP JUMPDEST PUSH1 0x40 MLOAD DUP1 SWAP2 SUB SWAP1 RETURN JUMPDEST PUSH2 0x39F PUSH1 0x4 DUP1 CALLDATASIZE SUB DUP2 ADD SWAP1 PUSH2 0x39A SWAP2 SWAP1 PUSH2 0x180D JUMP JUMPDEST PUSH2 0x1091 JUMP JUMPDEST STOP JUMPDEST PUSH2 0x3BB PUSH1 0x4 DUP1 CALLDATASIZE SUB DUP2 ADD SWAP1 PUSH2 0x3B6 SWAP2 SWAP1 PUSH2 0x2126 JUMP JUMPDEST PUSH2 0x1296 JUMP JUMPDEST STOP JUMPDEST PUSH2 0x3D7 PUSH1 0x4 DUP1 CALLDATASIZE SUB DUP2 ADD SWAP1 PUSH2 0x3D2 SWAP2 SWAP1 PUSH2 0x1870 JUMP JUMPDEST PUSH2 0x147D JUMP JUMPDEST PUSH1 0x40 MLOAD PUSH2 0x3E4 SWAP2 SWAP1 PUSH2 0x2279 JUMP JUMPDEST PUSH1 0x40 MLOAD DUP1 SWAP2 SUB SWAP1 RETURN JUMPDEST PUSH2 0x407 PUSH1 0x4 DUP1 CALLDATASIZE SUB DUP2 ADD SWAP1 PUSH2 0x402 SWAP2 SWAP1 PUSH2 0x180D JUMP JUMPDEST PUSH2 0x151D JUMP JUMPDEST STOP JUMPDEST PUSH2 0x411 PUSH2 0x15A3 JUMP JUMPDEST PUSH1 0x0 PUSH20 0xFFFFFFFFFFFFFFFFFFFFFFFFFFFFFFFFFFFFFFFF AND DUP2 PUSH20 0xFFFFFFFFFFFFFFFFFFFFFFFFFFFFFFFFFFFFFFFF AND SUB PUSH2 0x480 JUMPI PUSH1 0x40 MLOAD PUSH32 0x8C379A000000000000000000000000000000000000000000000000000000000 DUP2 MSTORE PUSH1 0x4 ADD PUSH2 0x477 SWAP1 PUSH2 0x22E7 JUMP JUMPDEST PUSH1 0x40 MLOAD DUP1 SWAP2 SUB SWAP1 REVERT JUMPDEST PUSH1 0x2 PUSH1 0x0 DUP3 PUSH20 0xFFFFFFFFFFFFFFFFFFFFFFFFFFFFFFFFFFFFFFFF AND PUSH20 0xFFFFFFFFFFFFFFFFFFFFFFFFFFFFFFFFFFFFFFFF AND DUP2 MSTORE PUSH1 0x20 ADD SWAP1 DUP2 MSTORE PUSH1 0x20 ADD PUSH1 0x0 KECCAK256 PUSH1 0x0 SWAP1 SLOAD SWAP1 PUSH2 0x100 EXP SWAP1 DIV PUSH1 0xFF AND PUSH2 0x50C JUMPI PUSH1 0x40 MLOAD PUSH32 0x8C379A000000000000000000000000000000000000000000000000000000000 DUP2 MSTORE PUSH1 0x4 ADD PUSH2 0x503 SWAP1 PUSH2 0x2379 JUMP JUMPDEST PUSH1 0x40 MLOAD DUP1 SWAP2 SUB SWAP1 REVERT JUMPDEST PUSH1 0x1 DUP1 DUP1 SLOAD SWAP1 POP GT PUSH2 0x553 JUMPI PUSH1 0x40 MLOAD PUSH32 0x8C379A000000000000000000000000000000000000000000000000000000000 DUP2 MSTORE PUSH1 0x4 ADD PUSH2 0x54A SWAP1 PUSH2 0x240B JUMP JUMPDEST PUSH1 0x40 MLOAD DUP1 SWAP2 SUB SWAP1 REVERT JUMPDEST PUSH1 0x0 PUSH1 0x2 PUSH1 0x0 DUP4 PUSH20 0xFFFFFFFFFFFFFFFFFFFFFFFFFFFFFFFFFFFFFFFF AND PUSH20 0xFFFFFFFFFFFFFFFFFFFFFFFFFFFFFFFFFFFFFFFF AND DUP2 MSTORE PUSH1 0x20 ADD SWAP1 DUP2 MSTORE PUSH1 0x20 ADD PUSH1 0x0 KECCAK256 PUSH1 0x0 PUSH2 0x100 EXP DUP2 SLOAD DUP2 PUSH1 0xFF MUL NOT AND SWAP1 DUP4 ISZERO ISZERO MUL OR SWAP1 SSTORE POP PUSH1 0x0 JUMPDEST PUSH1 0x1 DUP1 DUP1 SLOAD SWAP1 POP PUSH2 0x5BF SWAP2 SWAP1 PUSH2 0x245A JUMP JUMPDEST DUP2 LT ISZERO PUSH2 0x6F3 JUMPI DUP2 PUSH20 0xFFFFFFFFFFFFFFFFFFFFFFFFFFFFFFFFFFFFFFFF AND PUSH1 0x1 DUP3 DUP2 SLOAD DUP2 LT PUSH2 0x5F1 JUMPI PUSH2 0x5F0 PUSH2 0x248E JUMP JUMPDEST JUMPDEST SWAP1 PUSH1 0x0 MSTORE PUSH1 0x20 PUSH1 0x0 KECCAK256 ADD PUSH1 0x0 SWAP1 SLOAD SWAP1 PUSH2 0x100 EXP SWAP1 DIV PUSH20 0xFFFFFFFFFFFFFFFFFFFFFFFFFFFFFFFFFFFFFFFF AND PUSH20 0xFFFFFFFFFFFFFFFFFFFFFFFFFFFFFFFFFFFFFFFF AND SUB PUSH2 0x6E6 JUMPI PUSH1 0x1 DUP1 DUP1 DUP1 SLOAD SWAP1 POP PUSH2 0x649 SWAP2 SWAP1 PUSH2 0x245A JUMP JUMPDEST DUP2 SLOAD DUP2 LT PUSH2 0x65A JUMPI PUSH2 0x659 PUSH2 0x248E JUMP JUMPDEST JUMPDEST SWAP1 PUSH1 0x0 MSTORE PUSH1 0x20 PUSH1 0x0 KECCAK256 ADD PUSH1 0x0 SWAP1 SLOAD SWAP1 PUSH2 0x100 EXP SWAP1 DIV PUSH20 0xFFFFFFFFFFFFFFFFFFFFFFFFFFFFFFFFFFFFFFFF AND PUSH1 0x1 DUP3 DUP2 SLOAD DUP2 LT PUSH2 0x699 JUMPI PUSH2 0x698 PUSH2 0x248E JUMP JUMPDEST JUMPDEST SWAP1 PUSH1 0x0 MSTORE PUSH1 0x20 PUSH1 0x0 KECCAK256 ADD PUSH1 0x0 PUSH2 0x100 EXP DUP2 SLOAD DUP2 PUSH20 0xFFFFFFFFFFFFFFFFFFFFFFFFFFFFFFFFFFFFFFFF MUL NOT AND SWAP1 DUP4 PUSH20 0xFFFFFFFFFFFFFFFFFFFFFFFFFFFFFFFFFFFFFFFF AND MUL OR SWAP1 SSTORE POP PUSH2 0x6F3 JUMP JUMPDEST DUP1 DUP1 PUSH1 0x1 ADD SWAP2 POP POP PUSH2 0x5AE JUMP JUMPDEST POP PUSH1 0x1 DUP1 SLOAD DUP1 PUSH2 0x706 JUMPI PUSH2 0x705 PUSH2 0x24BD JUMP JUMPDEST JUMPDEST PUSH1 0x1 SWAP1 SUB DUP2 DUP2 SWAP1 PUSH1 0x0 MSTORE PUSH1 0x20 PUSH1 0x0 KECCAK256 ADD PUSH1 0x0 PUSH2 0x100 EXP DUP2 SLOAD SWAP1 PUSH20 0xFFFFFFFFFFFFFFFFFFFFFFFFFFFFFFFFFFFFFFFF MUL NOT AND SWAP1 SSTORE SWAP1 SSTORE DUP1 PUSH20 0xFFFFFFFFFFFFFFFFFFFFFFFFFFFFFFFFFFFFFFFF AND PUSH32 0x270BFC616DD36D5CB6B35AAC93E6EF22B089C34E6F6AD6F0892797424840897B PUSH1 0x40 MLOAD PUSH1 0x40 MLOAD DUP1 SWAP2 SUB SWAP1 LOG2 POP JUMP JUMPDEST PUSH1 0x3 PUSH1 0x20 MSTORE DUP1 PUSH1 0x0 MSTORE PUSH1 0x40 PUSH1 0x0 KECCAK256 PUSH1 0x0 SWAP2 POP SLOAD SWAP1 PUSH2 0x100 EXP SWAP1 DIV PUSH1 0xFF AND DUP2 JUMP JUMPDEST PUSH1 0x4 PUSH1 0x20 MSTORE DUP1 PUSH1 0x0 MSTORE PUSH1 0x40 PUSH1 0x0 KECCAK256 PUSH1 0x0 SWAP2 POP SLOAD SWAP1 PUSH2 0x100 EXP SWAP1 DIV PUSH1 0xFF AND DUP2 JUMP JUMPDEST PUSH1 0x2 PUSH1 0x0 PUSH2 0x7CD PUSH2 0x162A JUMP JUMPDEST PUSH20 0xFFFFFFFFFFFFFFFFFFFFFFFFFFFFFFFFFFFFFFFF AND PUSH20 0xFFFFFFFFFFFFFFFFFFFFFFFFFFFFFFFFFFFFFFFF AND DUP2 MSTORE PUSH1 0x20 ADD SWAP1 DUP2 MSTORE PUSH1 0x20 ADD PUSH1 0x0 KECCAK256 PUSH1 0x0 SWAP1 SLOAD SWAP1 PUSH2 0x100 EXP SWAP1 DIV PUSH1 0xFF AND PUSH2 0x854 JUMPI PUSH1 0x40 MLOAD PUSH32 0x8C379A000000000000000000000000000000000000000000000000000000000 DUP2 MSTORE PUSH1 0x4 ADD PUSH2 0x84B SWAP1 PUSH2 0x2538 JUMP JUMPDEST PUSH1 0x40 MLOAD DUP1 SWAP2 SUB SWAP1 REVERT JUMPDEST PUSH1 0x0 PUSH2 0x866 DUP12 DUP12 DUP12 DUP12 DUP12 DUP12 DUP12 DUP12 PUSH2 0xA55 JUMP JUMPDEST SWAP1 POP PUSH1 0x0 ISZERO ISZERO PUSH1 0x7 PUSH1 0x0 DUP4 DUP2 MSTORE PUSH1 0x20 ADD SWAP1 DUP2 MSTORE PUSH1 0x20 ADD PUSH1 0x0 KECCAK256 PUSH1 0x0 PUSH2 0x889 PUSH2 0x162A JUMP JUMPDEST PUSH20 0xFFFFFFFFFFFFFFFFFFFFFFFFFFFFFFFFFFFFFFFF AND PUSH20 0xFFFFFFFFFFFFFFFFFFFFFFFFFFFFFFFFFFFFFFFF AND DUP2 MSTORE PUSH1 0x20 ADD SWAP1 DUP2 MSTORE PUSH1 0x20 ADD PUSH1 0x0 KECCAK256 PUSH1 0x0 SWAP1 SLOAD SWAP1 PUSH2 0x100 EXP SWAP1 DIV PUSH1 0xFF AND ISZERO ISZERO EQ PUSH2 0x913 JUMPI PUSH1 0x40 MLOAD PUSH32 0x8C379A000000000000000000000000000000000000000000000000000000000 DUP2 MSTORE PUSH1 0x4 ADD PUSH2 0x90A SWAP1 PUSH2 0x25CA JUMP JUMPDEST PUSH1 0x40 MLOAD DUP1 SWAP2 SUB SWAP1 REVERT JUMPDEST DUP2 PUSH1 0x7 PUSH1 0x0 DUP4 DUP2 MSTORE PUSH1 0x20 ADD SWAP1 DUP2 MSTORE PUSH1 0x20 ADD PUSH1 0x0 KECCAK256 PUSH1 0x0 PUSH2 0x931 PUSH2 0x162A JUMP JUMPDEST PUSH20 0xFFFFFFFFFFFFFFFFFFFFFFFFFFFFFFFFFFFFFFFF AND PUSH20 0xFFFFFFFFFFFFFFFFFFFFFFFFFFFFFFFFFFFFFFFF AND DUP2 MSTORE PUSH1 0x20 ADD SWAP1 DUP2 MSTORE PUSH1 0x20 ADD PUSH1 0x0 KECCAK256 PUSH1 0x0 PUSH2 0x100 EXP DUP2 SLOAD DUP2 PUSH1 0xFF MUL NOT AND SWAP1 DUP4 ISZERO ISZERO MUL OR SWAP1 SSTORE POP PUSH1 0x6 PUSH1 0x0 DUP3 DUP2 MSTORE PUSH1 0x20 ADD SWAP1 DUP2 MSTORE PUSH1 0x20 ADD PUSH1 0x0 KECCAK256 PUSH1 0x40 MLOAD DUP1 PUSH1 0x20 ADD PUSH1 0x40 MSTORE DUP1 DUP6 DUP2 MSTORE POP SWAP1 DUP1 PUSH1 0x1 DUP2 SLOAD ADD DUP1 DUP3 SSTORE DUP1 SWAP2 POP POP PUSH1 0x1 SWAP1 SUB SWAP1 PUSH1 0x0 MSTORE PUSH1 0x20 PUSH1 0x0 KECCAK256 ADD PUSH1 0x0 SWAP1 SWAP2 SWAP1 SWAP2 SWAP1 SWAP2 POP PUSH1 0x0 DUP3 ADD MLOAD DUP2 PUSH1 0x0 ADD SWAP1 DUP2 PUSH2 0x9DE SWAP2 SWAP1 PUSH2 0x27F6 JUMP JUMPDEST POP POP POP PUSH2 0x9E9 PUSH2 0x162A JUMP JUMPDEST PUSH20 0xFFFFFFFFFFFFFFFFFFFFFFFFFFFFFFFFFFFFFFFF AND DUP2 PUSH31 0xC5E33200D7E9ABE76FF98D6F624C355459EC93B8A9D70D0C66B3342E4B0CF DUP14 DUP14 DUP14 DUP14 DUP14 DUP14 DUP14 DUP14 DUP13 DUP15 PUSH1 0x40 MLOAD PUSH2 0xA40 SWAP11 SWAP10 SWAP9 SWAP8 SWAP7 SWAP6 SWAP5 SWAP4 SWAP3 SWAP2 SWAP1 PUSH2 0x296C JUMP JUMPDEST PUSH1 0x40 MLOAD DUP1 SWAP2 SUB SWAP1 LOG3 POP POP POP POP POP POP POP POP POP POP POP JUMP JUMPDEST PUSH1 0x0 DUP1 DUP10 DUP8 DUP8 DUP8 DUP8 DUP13 DUP15 DUP10 PUSH1 0x40 MLOAD PUSH1 0x20 ADD PUSH2 0xA77 SWAP9 SWAP8 SWAP7 SWAP6 SWAP5 SWAP4 SWAP3 SWAP2 SWAP1 PUSH2 0x2AAB JUMP JUMPDEST PUSH1 0x40 MLOAD PUSH1 0x20 DUP2 DUP4 SUB SUB DUP2 MSTORE SWAP1 PUSH1 0x40 MSTORE DUP1 MLOAD SWAP1 PUSH1 0x20 ADD KECCAK256 SWAP1 POP DUP1 SWAP2 POP POP SWAP9 SWAP8 POP POP POP POP POP POP POP POP JUMP JUMPDEST PUSH1 0x0 PUSH1 0x6 PUSH1 0x0 DUP4 DUP2 MSTORE PUSH1 0x20 ADD SWAP1 DUP2 MSTORE PUSH1 0x20 ADD PUSH1 0x0 KECCAK256 DUP1 SLOAD SWAP1 POP SWAP1 POP SWAP2 SWAP1 POP JUMP JUMPDEST PUSH1 0x1 DUP2 DUP2 SLOAD DUP2 LT PUSH2 0xACF JUMPI PUSH1 0x0 DUP1 REVERT JUMPDEST SWAP1 PUSH1 0x0 MSTORE PUSH1 0x20 PUSH1 0x0 KECCAK256 ADD PUSH1 0x0 SWAP2 POP SLOAD SWAP1 PUSH2 0x100 EXP SWAP1 DIV PUSH20 0xFFFFFFFFFFFFFFFFFFFFFFFFFFFFFFFFFFFFFFFF AND DUP2 JUMP JUMPDEST PUSH1 0x32 DUP2 JUMP JUMPDEST PUSH2 0xB0B PUSH2 0x15A3 JUMP JUMPDEST PUSH2 0xB15 PUSH1 0x0 PUSH2 0x1632 JUMP JUMPDEST JUMP JUMPDEST PUSH1 0x7 PUSH1 0x20 MSTORE DUP2 PUSH1 0x0 MSTORE PUSH1 0x40 PUSH1 0x0 KECCAK256 PUSH1 0x20 MSTORE DUP1 PUSH1 0x0 MSTORE PUSH1 0x40 PUSH1 0x0 KECCAK256 PUSH1 0x0 SWAP2 POP SWAP2 POP SWAP1 SLOAD SWAP1 PUSH2 0x100 EXP SWAP1 DIV PUSH1 0xFF AND DUP2 JUMP JUMPDEST PUSH2 0xB4E PUSH2 0x15A3 JUMP JUMPDEST PUSH1 0x0 PUSH2 0xB60 DUP10 DUP10 DUP10 DUP10 DUP10 DUP10 DUP10 DUP10 PUSH2 0xA55 JUMP JUMPDEST SWAP1 POP PUSH1 0x0 PUSH1 0x3 PUSH1 0x0 DUP4 DUP2 MSTORE PUSH1 0x20 ADD SWAP1 DUP2 MSTORE PUSH1 0x20 ADD PUSH1 0x0 KECCAK256 PUSH1 0x0 PUSH2 0x100 EXP DUP2 SLOAD DUP2 PUSH1 0xFF MUL NOT AND SWAP1 DUP4 ISZERO ISZERO MUL OR SWAP1 SSTORE POP PUSH1 0x0 PUSH1 0x4 PUSH1 0x0 DUP4 DUP2 MSTORE PUSH1 0x20 ADD SWAP1 DUP2 MSTORE PUSH1 0x20 ADD PUSH1 0x0 KECCAK256 PUSH1 0x0 PUSH2 0x100 EXP DUP2 SLOAD DUP2 PUSH1 0xFF MUL NOT AND SWAP1 DUP4 ISZERO ISZERO MUL OR SWAP1 SSTORE POP PUSH1 0x6 PUSH1 0x0 DUP3 DUP2 MSTORE PUSH1 0x20 ADD SWAP1 DUP2 MSTORE PUSH1 0x20 ADD PUSH1 0x0 KECCAK256 PUSH1 0x0 PUSH2 0xBD9 SWAP2 SWAP1 PUSH2 0x16F6 JUMP JUMPDEST PUSH1 0x0 PUSH2 0xBE3 PUSH2 0xD94 JUMP JUMPDEST SWAP1 POP PUSH1 0x32 DUP2 MLOAD GT ISZERO PUSH2 0xC2A JUMPI PUSH1 0x40 MLOAD PUSH32 0x8C379A000000000000000000000000000000000000000000000000000000000 DUP2 MSTORE PUSH1 0x4 ADD PUSH2 0xC21 SWAP1 PUSH2 0x2B89 JUMP JUMPDEST PUSH1 0x40 MLOAD DUP1 SWAP2 SUB SWAP1 REVERT JUMPDEST PUSH1 0x0 JUMPDEST DUP2 MLOAD DUP2 LT ISZERO PUSH2 0xD18 JUMPI PUSH1 0x0 PUSH1 0x7 PUSH1 0x0 DUP6 DUP2 MSTORE PUSH1 0x20 ADD SWAP1 DUP2 MSTORE PUSH1 0x20 ADD PUSH1 0x0 KECCAK256 PUSH1 0x0 DUP5 DUP5 DUP2 MLOAD DUP2 LT PUSH2 0xC60 JUMPI PUSH2 0xC5F PUSH2 0x248E JUMP JUMPDEST JUMPDEST PUSH1 0x20 MUL PUSH1 0x20 ADD ADD MLOAD PUSH20 0xFFFFFFFFFFFFFFFFFFFFFFFFFFFFFFFFFFFFFFFF AND PUSH20 0xFFFFFFFFFFFFFFFFFFFFFFFFFFFFFFFFFFFFFFFF AND DUP2 MSTORE PUSH1 0x20 ADD SWAP1 DUP2 MSTORE PUSH1 0x20 ADD PUSH1 0x0 KECCAK256 PUSH1 0x0 PUSH2 0x100 EXP DUP2 SLOAD DUP2 PUSH1 0xFF MUL NOT AND SWAP1 DUP4 ISZERO ISZERO MUL OR SWAP1 SSTORE POP DUP3 PUSH32 0xD413D6FF4B1C2B25D152B1AA4952AA05C186945476D4BCE9B8A86B599B01F31F DUP4 DUP4 DUP2 MLOAD DUP2 LT PUSH2 0xCEE JUMPI PUSH2 0xCED PUSH2 0x248E JUMP JUMPDEST JUMPDEST PUSH1 0x20 MUL PUSH1 0x20 ADD ADD MLOAD PUSH1 0x40 MLOAD PUSH2 0xD03 SWAP2 SWAP1 PUSH2 0x1D72 JUMP JUMPDEST PUSH1 0x40 MLOAD DUP1 SWAP2 SUB SWAP1 LOG2 DUP1 DUP1 PUSH1 0x1 ADD SWAP2 POP POP PUSH2 0xC2D JUMP JUMPDEST POP DUP2 PUSH32 0xF5EE5E016A0239DF3125CE971BB946239F619D43CBD209DD13D7090697645AB8 DUP12 DUP12 DUP12 DUP12 DUP12 DUP12 DUP12 DUP12 PUSH1 0x40 MLOAD PUSH2 0xD57 SWAP9 SWAP8 SWAP7 SWAP6 SWAP5 SWAP4 SWAP3 SWAP2 SWAP1 PUSH2 0x2BA9 JUMP JUMPDEST PUSH1 0x40 MLOAD DUP1 SWAP2 SUB SWAP1 LOG2 POP POP POP POP POP POP POP POP POP POP JUMP JUMPDEST PUSH1 0x0 DUP1 PUSH1 0x0 SWAP1 SLOAD SWAP1 PUSH2 0x100 EXP SWAP1 DIV PUSH20 0xFFFFFFFFFFFFFFFFFFFFFFFFFFFFFFFFFFFFFFFF AND SWAP1 POP SWAP1 JUMP JUMPDEST PUSH1 0x60 PUSH1 0x1 DUP1 SLOAD DUP1 PUSH1 0x20 MUL PUSH1 0x20 ADD PUSH1 0x40 MLOAD SWAP1 DUP2 ADD PUSH1 0x40 MSTORE DUP1 SWAP3 SWAP2 SWAP1 DUP2 DUP2 MSTORE PUSH1 0x20 ADD DUP3 DUP1 SLOAD DUP1 ISZERO PUSH2 0xE18 JUMPI PUSH1 0x20 MUL DUP3 ADD SWAP2 SWAP1 PUSH1 0x0 MSTORE PUSH1 0x20 PUSH1 0x0 KECCAK256 SWAP1 JUMPDEST DUP2 PUSH1 0x0 SWAP1 SLOAD SWAP1 PUSH2 0x100 EXP SWAP1 DIV PUSH20 0xFFFFFFFFFFFFFFFFFFFFFFFFFFFFFFFFFFFFFFFF AND PUSH20 0xFFFFFFFFFFFFFFFFFFFFFFFFFFFFFFFFFFFFFFFF AND DUP2 MSTORE PUSH1 0x20 ADD SWAP1 PUSH1 0x1 ADD SWAP1 DUP1 DUP4 GT PUSH2 0xDCE JUMPI JUMPDEST POP POP POP POP POP SWAP1 POP SWAP1 JUMP JUMPDEST PUSH1 0x2 PUSH1 0x20 MSTORE DUP1 PUSH1 0x0 MSTORE PUSH1 0x40 PUSH1 0x0 KECCAK256 PUSH1 0x0 SWAP2 POP SLOAD SWAP1 PUSH2 0x100 EXP SWAP1 DIV PUSH1 0xFF AND DUP2 JUMP JUMPDEST PUSH1 0x2 PUSH1 0x0 PUSH2 0xE4E PUSH2 0x162A JUMP JUMPDEST PUSH20 0xFFFFFFFFFFFFFFFFFFFFFFFFFFFFFFFFFFFFFFFF AND PUSH20 0xFFFFFFFFFFFFFFFFFFFFFFFFFFFFFFFFFFFFFFFF AND DUP2 MSTORE PUSH1 0x20 ADD SWAP1 DUP2 MSTORE PUSH1 0x20 ADD PUSH1 0x0 KECCAK256 PUSH1 0x0 SWAP1 SLOAD SWAP1 PUSH2 0x100 EXP SWAP1 DIV PUSH1 0xFF AND PUSH2 0xED5 JUMPI PUSH1 0x40 MLOAD PUSH32 0x8C379A000000000000000000000000000000000000000000000000000000000 DUP2 MSTORE PUSH1 0x4 ADD PUSH2 0xECC SWAP1 PUSH2 0x2538 JUMP JUMPDEST PUSH1 0x40 MLOAD DUP1 SWAP2 SUB SWAP1 REVERT JUMPDEST PUSH1 0x0 PUSH2 0xEE7 DUP12 DUP12 DUP12 DUP12 DUP12 DUP12 DUP12 DUP12 PUSH2 0xA55 JUMP JUMPDEST SWAP1 POP PUSH1 0x0 ISZERO ISZERO PUSH1 0x3 PUSH1 0x0 DUP4 DUP2 MSTORE PUSH1 0x20 ADD SWAP1 DUP2 MSTORE PUSH1 0x20 ADD PUSH1 0x0 KECCAK256 PUSH1 0x0 SWAP1 SLOAD SWAP1 PUSH2 0x100 EXP SWAP1 DIV PUSH1 0xFF AND ISZERO ISZERO EQ PUSH2 0xF50 JUMPI PUSH1 0x40 MLOAD PUSH32 0x8C379A000000000000000000000000000000000000000000000000000000000 DUP2 MSTORE PUSH1 0x4 ADD PUSH2 0xF47 SWAP1 PUSH2 0x2C8E JUMP JUMPDEST PUSH1 0x40 MLOAD DUP1 SWAP2 SUB SWAP1 REVERT JUMPDEST DUP3 PUSH1 0x3 PUSH1 0x0 DUP4 DUP2 MSTORE PUSH1 0x20 ADD SWAP1 DUP2 MSTORE PUSH1 0x20 ADD PUSH1 0x0 KECCAK256 PUSH1 0x0 PUSH2 0x100 EXP DUP2 SLOAD DUP2 PUSH1 0xFF MUL NOT AND SWAP1 DUP4 ISZERO ISZERO MUL OR SWAP1 SSTORE POP DUP1 PUSH32 0x6B12E5485CD13180161666E93EEA616AA764F9473E9407CBC9D380E525B148DE DUP13 DUP13 DUP13 DUP13 DUP13 DUP13 DUP13 DUP13 DUP13 DUP13 PUSH1 0x40 MLOAD PUSH2 0xFBD SWAP11 SWAP10 SWAP9 SWAP8 SWAP7 SWAP6 SWAP5 SWAP4 SWAP3 SWAP2 SWAP1 PUSH2 0x2CAE JUMP JUMPDEST PUSH1 0x40 MLOAD DUP1 SWAP2 SUB SWAP1 LOG2 POP POP POP POP POP POP POP POP POP POP POP JUMP JUMPDEST PUSH1 0x6 PUSH1 0x20 MSTORE DUP2 PUSH1 0x0 MSTORE PUSH1 0x40 PUSH1 0x0 KECCAK256 DUP2 DUP2 SLOAD DUP2 LT PUSH2 0xFEE JUMPI PUSH1 0x0 DUP1 REVERT JUMPDEST SWAP1 PUSH1 0x0 MSTORE PUSH1 0x20 PUSH1 0x0 KECCAK256 ADD PUSH1 0x0 SWAP2 POP SWAP2 POP POP DUP1 PUSH1 0x0 ADD DUP1 SLOAD PUSH2 0x100E SWAP1 PUSH2 0x2619 JUMP JUMPDEST DUP1 PUSH1 0x1F ADD PUSH1 0x20 DUP1 SWAP2 DIV MUL PUSH1 0x20 ADD PUSH1 0x40 MLOAD SWAP1 DUP2 ADD PUSH1 0x40 MSTORE DUP1 SWAP3 SWAP2 SWAP1 DUP2 DUP2 MSTORE PUSH1 0x20 ADD DUP3 DUP1 SLOAD PUSH2 0x103A SWAP1 PUSH2 0x2619 JUMP JUMPDEST DUP1 ISZERO PUSH2 0x1087 JUMPI DUP1 PUSH1 0x1F LT PUSH2 0x105C JUMPI PUSH2 0x100 DUP1 DUP4 SLOAD DIV MUL DUP4 MSTORE SWAP2 PUSH1 0x20 ADD SWAP2 PUSH2 0x1087 JUMP JUMPDEST DUP3 ADD SWAP2 SWAP1 PUSH1 0x0 MSTORE PUSH1 0x20 PUSH1 0x0 KECCAK256 SWAP1 JUMPDEST DUP2 SLOAD DUP2 MSTORE SWAP1 PUSH1 0x1 ADD SWAP1 PUSH1 0x20 ADD DUP1 DUP4 GT PUSH2 0x106A JUMPI DUP3 SWAP1 SUB PUSH1 0x1F AND DUP3 ADD SWAP2 JUMPDEST POP POP POP POP POP SWAP1 POP DUP2 JUMP JUMPDEST PUSH2 0x1099 PUSH2 0x15A3 JUMP JUMPDEST PUSH1 0x0 PUSH20 0xFFFFFFFFFFFFFFFFFFFFFFFFFFFFFFFFFFFFFFFF AND DUP2 PUSH20 0xFFFFFFFFFFFFFFFFFFFFFFFFFFFFFFFFFFFFFFFF AND SUB PUSH2 0x1108 JUMPI PUSH1 0x40 MLOAD PUSH32 0x8C379A000000000000000000000000000000000000000000000000000000000 DUP2 MSTORE PUSH1 0x4 ADD PUSH2 0x10FF SWAP1 PUSH2 0x22E7 JUMP JUMPDEST PUSH1 0x40 MLOAD DUP1 SWAP2 SUB SWAP1 REVERT JUMPDEST PUSH1 0x2 PUSH1 0x0 DUP3 PUSH20 0xFFFFFFFFFFFFFFFFFFFFFFFFFFFFFFFFFFFFFFFF AND PUSH20 0xFFFFFFFFFFFFFFFFFFFFFFFFFFFFFFFFFFFFFFFF AND DUP2 MSTORE PUSH1 0x20 ADD SWAP1 DUP2 MSTORE PUSH1 0x20 ADD PUSH1 0x0 KECCAK256 PUSH1 0x0 SWAP1 SLOAD SWAP1 PUSH2 0x100 EXP SWAP1 DIV PUSH1 0xFF AND ISZERO PUSH2 0x1195 JUMPI PUSH1 0x40 MLOAD PUSH32 0x8C379A000000000000000000000000000000000000000000000000000000000 DUP2 MSTORE PUSH1 0x4 ADD PUSH2 0x118C SWAP1 PUSH2 0x2DB0 JUMP JUMPDEST PUSH1 0x40 MLOAD DUP1 SWAP2 SUB SWAP1 REVERT JUMPDEST PUSH1 0x1 PUSH1 0x2 PUSH1 0x0 DUP4 PUSH20 0xFFFFFFFFFFFFFFFFFFFFFFFFFFFFFFFFFFFFFFFF AND PUSH20 0xFFFFFFFFFFFFFFFFFFFFFFFFFFFFFFFFFFFFFFFF AND DUP2 MSTORE PUSH1 0x20 ADD SWAP1 DUP2 MSTORE PUSH1 0x20 ADD PUSH1 0x0 KECCAK256 PUSH1 0x0 PUSH2 0x100 EXP DUP2 SLOAD DUP2 PUSH1 0xFF MUL NOT AND SWAP1 DUP4 ISZERO ISZERO MUL OR SWAP1 SSTORE POP PUSH1 0x1 DUP2 SWAP1 DUP1 PUSH1 0x1 DUP2 SLOAD ADD DUP1 DUP3 SSTORE DUP1 SWAP2 POP POP PUSH1 0x1 SWAP1 SUB SWAP1 PUSH1 0x0 MSTORE PUSH1 0x20 PUSH1 0x0 KECCAK256 ADD PUSH1 0x0 SWAP1 SWAP2 SWAP1 SWAP2 SWAP1 SWAP2 PUSH2 0x100 EXP DUP2 SLOAD DUP2 PUSH20 0xFFFFFFFFFFFFFFFFFFFFFFFFFFFFFFFFFFFFFFFF MUL NOT AND SWAP1 DUP4 PUSH20 0xFFFFFFFFFFFFFFFFFFFFFFFFFFFFFFFFFFFFFFFF AND MUL OR SWAP1 SSTORE POP DUP1 PUSH20 0xFFFFFFFFFFFFFFFFFFFFFFFFFFFFFFFFFFFFFFFF AND PUSH32 0x72114E270DE66B9D2710ECF140403E5E99B1574767D6A8197BDC8D807A46E7C7 PUSH1 0x40 MLOAD PUSH1 0x40 MLOAD DUP1 SWAP2 SUB SWAP1 LOG2 POP JUMP JUMPDEST PUSH1 0x2 PUSH1 0x0 PUSH2 0x12A2 PUSH2 0x162A JUMP JUMPDEST PUSH20 0xFFFFFFFFFFFFFFFFFFFFFFFFFFFFFFFFFFFFFFFF AND PUSH20 0xFFFFFFFFFFFFFFFFFFFFFFFFFFFFFFFFFFFFFFFF AND DUP2 MSTORE PUSH1 0x20 ADD SWAP1 DUP2 MSTORE PUSH1 0x20 ADD PUSH1 0x0 KECCAK256 PUSH1 0x0 SWAP1 SLOAD SWAP1 PUSH2 0x100 EXP SWAP1 DIV PUSH1 0xFF AND PUSH2 0x1329 JUMPI PUSH1 0x40 MLOAD PUSH32 0x8C379A000000000000000000000000000000000000000000000000000000000 DUP2 MSTORE PUSH1 0x4 ADD PUSH2 0x1320 SWAP1 PUSH2 0x2538 JUMP JUMPDEST PUSH1 0x40 MLOAD DUP1 SWAP2 SUB SWAP1 REVERT JUMPDEST PUSH1 0x0 PUSH2 0x133B DUP11 DUP11 DUP11 DUP11 DUP11 DUP11 DUP11 DUP11 PUSH2 0xA55 JUMP JUMPDEST SWAP1 POP PUSH1 0x0 ISZERO ISZERO PUSH1 0x4 PUSH1 0x0 DUP4 DUP2 MSTORE PUSH1 0x20 ADD SWAP1 DUP2 MSTORE PUSH1 0x20 ADD PUSH1 0x0 KECCAK256 PUSH1 0x0 SWAP1 SLOAD SWAP1 PUSH2 0x100 EXP SWAP1 DIV PUSH1 0xFF AND ISZERO ISZERO EQ PUSH2 0x13A4 JUMPI PUSH1 0x40 MLOAD PUSH32 0x8C379A000000000000000000000000000000000000000000000000000000000 DUP2 MSTORE PUSH1 0x4 ADD PUSH2 0x139B SWAP1 PUSH2 0x2E42 JUMP JUMPDEST PUSH1 0x40 MLOAD DUP1 SWAP2 SUB SWAP1 REVERT JUMPDEST DUP2 PUSH1 0x5 PUSH1 0x0 DUP4 DUP2 MSTORE PUSH1 0x20 ADD SWAP1 DUP2 MSTORE PUSH1 0x20 ADD PUSH1 0x0 KECCAK256 SWAP1 DUP2 PUSH2 0x13C4 SWAP2 SWAP1 PUSH2 0x2EBD JUMP JUMPDEST POP PUSH1 0x1 PUSH1 0x4 PUSH1 0x0 DUP4 DUP2 MSTORE PUSH1 0x20 ADD SWAP1 DUP2 MSTORE PUSH1 0x20 ADD PUSH1 0x0 KECCAK256 PUSH1 0x0 PUSH2 0x100 EXP DUP2 SLOAD DUP2 PUSH1 0xFF MUL NOT AND SWAP1 DUP4 ISZERO ISZERO MUL OR SWAP1 SSTORE POP PUSH32 0x9880428D91C000E25F804C22B554C8D3559776767DF39711EBC2BE5774A42998 DUP11 DUP11 DUP11 DUP11 DUP11 DUP11 DUP11 DUP11 DUP10 DUP12 PUSH1 0x40 MLOAD PUSH2 0x1432 SWAP11 SWAP10 SWAP9 SWAP8 SWAP7 SWAP6 SWAP5 SWAP4 SWAP3 SWAP2 SWAP1 PUSH2 0x2F8F JUMP JUMPDEST PUSH1 0x40 MLOAD DUP1 SWAP2 SUB SWAP1 LOG1 PUSH32 0x765EAA3DAC831F58619F0D6E13E4C0DEC16910847CA2BDD816F37DF671E2F164 DUP3 PUSH1 0x40 MLOAD PUSH2 0x1469 SWAP2 SWAP1 PUSH2 0x2279 JUMP JUMPDEST PUSH1 0x40 MLOAD DUP1 SWAP2 SUB SWAP1 LOG1 POP POP POP POP POP POP POP POP POP POP JUMP JUMPDEST PUSH1 0x5 PUSH1 0x20 MSTORE DUP1 PUSH1 0x0 MSTORE PUSH1 0x40 PUSH1 0x0 KECCAK256 PUSH1 0x0 SWAP2 POP SWAP1 POP DUP1 SLOAD PUSH2 0x149C SWAP1 PUSH2 0x2619 JUMP JUMPDEST DUP1 PUSH1 0x1F ADD PUSH1 0x20 DUP1 SWAP2 DIV MUL PUSH1 0x20 ADD PUSH1 0x40 MLOAD SWAP1 DUP2 ADD PUSH1 0x40 MSTORE DUP1 SWAP3 SWAP2 SWAP1 DUP2 DUP2 MSTORE PUSH1 0x20 ADD DUP3 DUP1 SLOAD PUSH2 0x14C8 SWAP1 PUSH2 0x2619 JUMP JUMPDEST DUP1 ISZERO PUSH2 0x1515 JUMPI DUP1 PUSH1 0x1F LT PUSH2 0x14EA JUMPI PUSH2 0x100 DUP1 DUP4 SLOAD DIV MUL DUP4 MSTORE SWAP2 PUSH1 0x20 ADD SWAP2 PUSH2 0x1515 JUMP JUMPDEST DUP3 ADD SWAP2 SWAP1 PUSH1 0x0 MSTORE PUSH1 0x20 PUSH1 0x0 KECCAK256 SWAP1 JUMPDEST DUP2 SLOAD DUP2 MSTORE SWAP1 PUSH1 0x1 ADD SWAP1 PUSH1 0x20 ADD DUP1 DUP4 GT PUSH2 0x14F8 JUMPI DUP3 SWAP1 SUB PUSH1 0x1F AND DUP3 ADD SWAP2 JUMPDEST POP POP POP POP POP DUP2 JUMP JUMPDEST PUSH2 0x1525 PUSH2 0x15A3 JUMP JUMPDEST PUSH1 0x0 PUSH20 0xFFFFFFFFFFFFFFFFFFFFFFFFFFFFFFFFFFFFFFFF AND DUP2 PUSH20 0xFFFFFFFFFFFFFFFFFFFFFFFFFFFFFFFFFFFFFFFF AND SUB PUSH2 0x1597 JUMPI PUSH1 0x0 PUSH1 0x40 MLOAD PUSH32 0x1E4FBDF700000000000000000000000000000000000000000000000000000000 DUP2 MSTORE PUSH1 0x4 ADD PUSH2 0x158E SWAP2 SWAP1 PUSH2 0x1D72 JUMP JUMPDEST PUSH1 0x40 MLOAD DUP1 SWAP2 SUB SWAP1 REVERT JUMPDEST PUSH2 0x15A0 DUP2 PUSH2 0x1632 JUMP JUMPDEST POP JUMP JUMPDEST PUSH2 0x15AB PUSH2 0x162A JUMP JUMPDEST PUSH20 0xFFFFFFFFFFFFFFFFFFFFFFFFFFFFFFFFFFFFFFFF AND PUSH2 0x15C9 PUSH2 0xD6B JUMP JUMPDEST PUSH20 0xFFFFFFFFFFFFFFFFFFFFFFFFFFFFFFFFFFFFFFFF AND EQ PUSH2 0x1628 JUMPI PUSH2 0x15EC PUSH2 0x162A JUMP JUMPDEST PUSH1 0x40 MLOAD PUSH32 0x118CDAA700000000000000000000000000000000000000000000000000000000 DUP2 MSTORE PUSH1 0x4 ADD PUSH2 0x161F SWAP2 SWAP1 PUSH2 0x1D72 JUMP JUMPDEST PUSH1 0x40 MLOAD DUP1 SWAP2 SUB SWAP1 REVERT JUMPDEST JUMP JUMPDEST PUSH1 0x0 CALLER SWAP1 POP SWAP1 JUMP JUMPDEST PUSH1 0x0 DUP1 PUSH1 0x0 SWAP1 SLOAD SWAP1 PUSH2 0x100 EXP SWAP1 DIV PUSH20 0xFFFFFFFFFFFFFFFFFFFFFFFFFFFFFFFFFFFFFFFF AND SWAP1 POP DUP2 PUSH1 0x0 DUP1 PUSH2 0x100 EXP DUP2 SLOAD DUP2 PUSH20 0xFFFFFFFFFFFFFFFFFFFFFFFFFFFFFFFFFFFFFFFF MUL NOT AND SWAP1 DUP4 PUSH20 0xFFFFFFFFFFFFFFFFFFFFFFFFFFFFFFFFFFFFFFFF AND MUL OR SWAP1 SSTORE POP DUP2 PUSH20 0xFFFFFFFFFFFFFFFFFFFFFFFFFFFFFFFFFFFFFFFF AND DUP2 PUSH20 0xFFFFFFFFFFFFFFFFFFFFFFFFFFFFFFFFFFFFFFFF AND PUSH32 0x8BE0079C531659141344CD1FD0A4F28419497F9722A3DAAFE3B4186F6B6457E0 PUSH1 0x40 MLOAD PUSH1 0x40 MLOAD DUP1 SWAP2 SUB SWAP1 LOG3 POP POP JUMP JUMPDEST POP DUP1 SLOAD PUSH1 0x0 DUP3 SSTORE SWAP1 PUSH1 0x0 MSTORE PUSH1 0x20 PUSH1 0x0 KECCAK256 SWAP1 DUP2 ADD SWAP1 PUSH2 0x1714 SWAP2 SWAP1 PUSH2 0x1717 JUMP JUMPDEST POP JUMP JUMPDEST JUMPDEST DUP1 DUP3 GT ISZERO PUSH2 0x173A JUMPI PUSH1 0x0 DUP1 DUP3 ADD PUSH1 0x0 PUSH2 0x1731 SWAP2 SWAP1 PUSH2 0x173E JUMP JUMPDEST POP PUSH1 0x1 ADD PUSH2 0x1718 JUMP JUMPDEST POP SWAP1 JUMP JUMPDEST POP DUP1 SLOAD PUSH2 0x174A SWAP1 PUSH2 0x2619 JUMP JUMPDEST PUSH1 0x0 DUP3 SSTORE DUP1 PUSH1 0x1F LT PUSH2 0x175C JUMPI POP PUSH2 0x177B JUMP JUMPDEST PUSH1 0x1F ADD PUSH1 0x20 SWAP1 DIV SWAP1 PUSH1 0x0 MSTORE PUSH1 0x20 PUSH1 0x0 KECCAK256 SWAP1 DUP2 ADD SWAP1 PUSH2 0x177A SWAP2 SWAP1 PUSH2 0x177E JUMP JUMPDEST JUMPDEST POP JUMP JUMPDEST JUMPDEST DUP1 DUP3 GT ISZERO PUSH2 0x1797 JUMPI PUSH1 0x0 DUP2 PUSH1 0x0 SWAP1 SSTORE POP PUSH1 0x1 ADD PUSH2 0x177F JUMP JUMPDEST POP SWAP1 JUMP JUMPDEST PUSH1 0x0 PUSH1 0x40 MLOAD SWAP1 POP SWAP1 JUMP JUMPDEST PUSH1 0x0 DUP1 REVERT JUMPDEST PUSH1 0x0 DUP1 REVERT JUMPDEST PUSH1 0x0 PUSH20 0xFFFFFFFFFFFFFFFFFFFFFFFFFFFFFFFFFFFFFFFF DUP3 AND SWAP1 POP SWAP2 SWAP1 POP JUMP JUMPDEST PUSH1 0x0 PUSH2 0x17DA DUP3 PUSH2 0x17AF JUMP JUMPDEST SWAP1 POP SWAP2 SWAP1 POP JUMP JUMPDEST PUSH2 0x17EA DUP2 PUSH2 0x17CF JUMP JUMPDEST DUP2 EQ PUSH2 0x17F5 JUMPI PUSH1 0x0 DUP1 REVERT JUMPDEST POP JUMP JUMPDEST PUSH1 0x0 DUP2 CALLDATALOAD SWAP1 POP PUSH2 0x1807 DUP2 PUSH2 0x17E1 JUMP JUMPDEST SWAP3 SWAP2 POP POP JUMP JUMPDEST PUSH1 0x0 PUSH1 0x20 DUP3 DUP5 SUB SLT ISZERO PUSH2 0x1823 JUMPI PUSH2 0x1822 PUSH2 0x17A5 JUMP JUMPDEST JUMPDEST PUSH1 0x0 PUSH2 0x1831 DUP5 DUP3 DUP6 ADD PUSH2 0x17F8 JUMP JUMPDEST SWAP2 POP POP SWAP3 SWAP2 POP POP JUMP JUMPDEST PUSH1 0x0 DUP2 SWAP1 POP SWAP2 SWAP1 POP JUMP JUMPDEST PUSH2 0x184D DUP2 PUSH2 0x183A JUMP JUMPDEST DUP2 EQ PUSH2 0x1858 JUMPI PUSH1 0x0 DUP1 REVERT JUMPDEST POP JUMP JUMPDEST PUSH1 0x0 DUP2 CALLDATALOAD SWAP1 POP PUSH2 0x186A DUP2 PUSH2 0x1844 JUMP JUMPDEST SWAP3 SWAP2 POP POP JUMP JUMPDEST PUSH1 0x0 PUSH1 0x20 DUP3 DUP5 SUB SLT ISZERO PUSH2 0x1886 JUMPI PUSH2 0x1885 PUSH2 0x17A5 JUMP JUMPDEST JUMPDEST PUSH1 0x0 PUSH2 0x1894 DUP5 DUP3 DUP6 ADD PUSH2 0x185B JUMP JUMPDEST SWAP2 POP POP SWAP3 SWAP2 POP POP JUMP JUMPDEST PUSH1 0x0 DUP2 ISZERO ISZERO SWAP1 POP SWAP2 SWAP1 POP JUMP JUMPDEST PUSH2 0x18B2 DUP2 PUSH2 0x189D JUMP JUMPDEST DUP3 MSTORE POP POP JUMP JUMPDEST PUSH1 0x0 PUSH1 0x20 DUP3 ADD SWAP1 POP PUSH2 0x18CD PUSH1 0x0 DUP4 ADD DUP5 PUSH2 0x18A9 JUMP JUMPDEST SWAP3 SWAP2 POP POP JUMP JUMPDEST PUSH1 0x0 DUP2 SWAP1 POP SWAP2 SWAP1 POP JUMP JUMPDEST PUSH2 0x18E6 DUP2 PUSH2 0x18D3 JUMP JUMPDEST DUP2 EQ PUSH2 0x18F1 JUMPI PUSH1 0x0 DUP1 REVERT JUMPDEST POP JUMP JUMPDEST PUSH1 0x0 DUP2 CALLDATALOAD SWAP1 POP PUSH2 0x1903 DUP2 PUSH2 0x18DD JUMP JUMPDEST SWAP3 SWAP2 POP POP JUMP JUMPDEST PUSH1 0x0 DUP1 REVERT JUMPDEST PUSH1 0x0 DUP1 REVERT JUMPDEST PUSH1 0x0 DUP1 REVERT JUMPDEST PUSH1 0x0 DUP1 DUP4 PUSH1 0x1F DUP5 ADD SLT PUSH2 0x192E JUMPI PUSH2 0x192D PUSH2 0x1909 JUMP JUMPDEST JUMPDEST DUP3 CALLDATALOAD SWAP1 POP PUSH8 0xFFFFFFFFFFFFFFFF DUP2 GT ISZERO PUSH2 0x194B JUMPI PUSH2 0x194A PUSH2 0x190E JUMP JUMPDEST JUMPDEST PUSH1 0x20 DUP4 ADD SWAP2 POP DUP4 PUSH1 0x1 DUP3 MUL DUP4 ADD GT ISZERO PUSH2 0x1967 JUMPI PUSH2 0x1966 PUSH2 0x1913 JUMP JUMPDEST JUMPDEST SWAP3 POP SWAP3 SWAP1 POP JUMP JUMPDEST PUSH1 0x4 DUP2 LT PUSH2 0x197B JUMPI PUSH1 0x0 DUP1 REVERT JUMPDEST POP JUMP JUMPDEST PUSH1 0x0 DUP2 CALLDATALOAD SWAP1 POP PUSH2 0x198D DUP2 PUSH2 0x196E JUMP JUMPDEST SWAP3 SWAP2 POP POP JUMP JUMPDEST PUSH1 0x0 DUP1 REVERT JUMPDEST PUSH1 0x0 PUSH1 0x1F NOT PUSH1 0x1F DUP4 ADD AND SWAP1 POP SWAP2 SWAP1 POP JUMP JUMPDEST PUSH32 0x4E487B7100000000000000000000000000000000000000000000000000000000 PUSH1 0x0 MSTORE PUSH1 0x41 PUSH1 0x4 MSTORE PUSH1 0x24 PUSH1 0x0 REVERT JUMPDEST PUSH2 0x19E1 DUP3 PUSH2 0x1998 JUMP JUMPDEST DUP2 ADD DUP2 DUP2 LT PUSH8 0xFFFFFFFFFFFFFFFF DUP3 GT OR ISZERO PUSH2 0x1A00 JUMPI PUSH2 0x19FF PUSH2 0x19A9 JUMP JUMPDEST JUMPDEST DUP1 PUSH1 0x40 MSTORE POP POP POP JUMP JUMPDEST PUSH1 0x0 PUSH2 0x1A13 PUSH2 0x179B JUMP JUMPDEST SWAP1 POP PUSH2 0x1A1F DUP3 DUP3 PUSH2 0x19D8 JUMP JUMPDEST SWAP2 SWAP1 POP JUMP JUMPDEST PUSH1 0x0 PUSH8 0xFFFFFFFFFFFFFFFF DUP3 GT ISZERO PUSH2 0x1A3F JUMPI PUSH2 0x1A3E PUSH2 0x19A9 JUMP JUMPDEST JUMPDEST PUSH2 0x1A48 DUP3 PUSH2 0x1998 JUMP JUMPDEST SWAP1 POP PUSH1 0x20 DUP2 ADD SWAP1 POP SWAP2 SWAP1 POP JUMP JUMPDEST DUP3 DUP2 DUP4 CALLDATACOPY PUSH1 0x0 DUP4 DUP4 ADD MSTORE POP POP POP JUMP JUMPDEST PUSH1 0x0 PUSH2 0x1A77 PUSH2 0x1A72 DUP5 PUSH2 0x1A24 JUMP JUMPDEST PUSH2 0x1A09 JUMP JUMPDEST SWAP1 POP DUP3 DUP2 MSTORE PUSH1 0x20 DUP2 ADD DUP5 DUP5 DUP5 ADD GT ISZERO PUSH2 0x1A93 JUMPI PUSH2 0x1A92 PUSH2 0x1993 JUMP JUMPDEST JUMPDEST PUSH2 0x1A9E DUP5 DUP3 DUP6 PUSH2 0x1A55 JUMP JUMPDEST POP SWAP4 SWAP3 POP POP POP JUMP JUMPDEST PUSH1 0x0 DUP3 PUSH1 0x1F DUP4 ADD SLT PUSH2 0x1ABB JUMPI PUSH2 0x1ABA PUSH2 0x1909 JUMP JUMPDEST JUMPDEST DUP2 CALLDATALOAD PUSH2 0x1ACB DUP5 DUP3 PUSH1 0x20 DUP7 ADD PUSH2 0x1A64 JUMP JUMPDEST SWAP2 POP POP SWAP3 SWAP2 POP POP JUMP JUMPDEST PUSH2 0x1ADD DUP2 PUSH2 0x189D JUMP JUMPDEST DUP2 EQ PUSH2 0x1AE8 JUMPI PUSH1 0x0 DUP1 REVERT JUMPDEST POP JUMP JUMPDEST PUSH1 0x0 DUP2 CALLDATALOAD SWAP1 POP PUSH2 0x1AFA DUP2 PUSH2 0x1AD4 JUMP JUMPDEST SWAP3 SWAP2 POP POP JUMP JUMPDEST PUSH1 0x0 DUP1 PUSH1 0x0 DUP1 PUSH1 0x0 DUP1 PUSH1 0x0 DUP1 PUSH1 0x0 DUP1 PUSH2 0x100 DUP12 DUP14 SUB SLT ISZERO PUSH2 0x1B24 JUMPI PUSH2 0x1B23 PUSH2 0x17A5 JUMP JUMPDEST JUMPDEST PUSH1 0x0 PUSH2 0x1B32 DUP14 DUP3 DUP15 ADD PUSH2 0x185B JUMP JUMPDEST SWAP11 POP POP PUSH1 0x20 PUSH2 0x1B43 DUP14 DUP3 DUP15 ADD PUSH2 0x185B JUMP JUMPDEST SWAP10 POP POP PUSH1 0x40 PUSH2 0x1B54 DUP14 DUP3 DUP15 ADD PUSH2 0x18F4 JUMP JUMPDEST SWAP9 POP POP PUSH1 0x60 DUP12 ADD CALLDATALOAD PUSH8 0xFFFFFFFFFFFFFFFF DUP2 GT ISZERO PUSH2 0x1B75 JUMPI PUSH2 0x1B74 PUSH2 0x17AA JUMP JUMPDEST JUMPDEST PUSH2 0x1B81 DUP14 DUP3 DUP15 ADD PUSH2 0x1918 JUMP JUMPDEST SWAP8 POP SWAP8 POP POP PUSH1 0x80 DUP12 ADD CALLDATALOAD PUSH8 0xFFFFFFFFFFFFFFFF DUP2 GT ISZERO PUSH2 0x1BA4 JUMPI PUSH2 0x1BA3 PUSH2 0x17AA JUMP JUMPDEST JUMPDEST PUSH2 0x1BB0 DUP14 DUP3 DUP15 ADD PUSH2 0x1918 JUMP JUMPDEST SWAP6 POP SWAP6 POP POP PUSH1 0xA0 PUSH2 0x1BC3 DUP14 DUP3 DUP15 ADD PUSH2 0x197E JUMP JUMPDEST SWAP4 POP POP PUSH1 0xC0 DUP12 ADD CALLDATALOAD PUSH8 0xFFFFFFFFFFFFFFFF DUP2 GT ISZERO PUSH2 0x1BE4 JUMPI PUSH2 0x1BE3 PUSH2 0x17AA JUMP JUMPDEST JUMPDEST PUSH2 0x1BF0 DUP14 DUP3 DUP15 ADD PUSH2 0x1AA6 JUMP JUMPDEST SWAP3 POP POP PUSH1 0xE0 PUSH2 0x1C01 DUP14 DUP3 DUP15 ADD PUSH2 0x1AEB JUMP JUMPDEST SWAP2 POP POP SWAP3 SWAP6 SWAP9 SWAP12 SWAP2 SWAP5 SWAP8 SWAP11 POP SWAP3 SWAP6 SWAP9 POP JUMP JUMPDEST PUSH1 0x0 DUP1 PUSH1 0x0 DUP1 PUSH1 0x0 DUP1 PUSH1 0x0 DUP1 PUSH1 0xC0 DUP10 DUP12 SUB SLT ISZERO PUSH2 0x1C33 JUMPI PUSH2 0x1C32 PUSH2 0x17A5 JUMP JUMPDEST JUMPDEST PUSH1 0x0 PUSH2 0x1C41 DUP12 DUP3 DUP13 ADD PUSH2 0x185B JUMP JUMPDEST SWAP9 POP POP PUSH1 0x20 PUSH2 0x1C52 DUP12 DUP3 DUP13 ADD PUSH2 0x185B JUMP JUMPDEST SWAP8 POP POP PUSH1 0x40 PUSH2 0x1C63 DUP12 DUP3 DUP13 ADD PUSH2 0x18F4 JUMP JUMPDEST SWAP7 POP POP PUSH1 0x60 DUP10 ADD CALLDATALOAD PUSH8 0xFFFFFFFFFFFFFFFF DUP2 GT ISZERO PUSH2 0x1C84 JUMPI PUSH2 0x1C83 PUSH2 0x17AA JUMP JUMPDEST JUMPDEST PUSH2 0x1C90 DUP12 DUP3 DUP13 ADD PUSH2 0x1918 JUMP JUMPDEST SWAP6 POP SWAP6 POP POP PUSH1 0x80 DUP10 ADD CALLDATALOAD PUSH8 0xFFFFFFFFFFFFFFFF DUP2 GT ISZERO PUSH2 0x1CB3 JUMPI PUSH2 0x1CB2 PUSH2 0x17AA JUMP JUMPDEST JUMPDEST PUSH2 0x1CBF DUP12 DUP3 DUP13 ADD PUSH2 0x1918 JUMP JUMPDEST SWAP4 POP SWAP4 POP POP PUSH1 0xA0 PUSH2 0x1CD2 DUP12 DUP3 DUP13 ADD PUSH2 0x197E JUMP JUMPDEST SWAP2 POP POP SWAP3 SWAP6 SWAP9 POP SWAP3 SWAP6 SWAP9 SWAP1 SWAP4 SWAP7 POP JUMP JUMPDEST PUSH2 0x1CEB DUP2 PUSH2 0x183A JUMP JUMPDEST DUP3 MSTORE POP POP JUMP JUMPDEST PUSH1 0x0 PUSH1 0x20 DUP3 ADD SWAP1 POP PUSH2 0x1D06 PUSH1 0x0 DUP4 ADD DUP5 PUSH2 0x1CE2 JUMP JUMPDEST SWAP3 SWAP2 POP POP JUMP JUMPDEST PUSH2 0x1D15 DUP2 PUSH2 0x18D3 JUMP JUMPDEST DUP3 MSTORE POP POP JUMP JUMPDEST PUSH1 0x0 PUSH1 0x20 DUP3 ADD SWAP1 POP PUSH2 0x1D30 PUSH1 0x0 DUP4 ADD DUP5 PUSH2 0x1D0C JUMP JUMPDEST SWAP3 SWAP2 POP POP JUMP JUMPDEST PUSH1 0x0 PUSH1 0x20 DUP3 DUP5 SUB SLT ISZERO PUSH2 0x1D4C JUMPI PUSH2 0x1D4B PUSH2 0x17A5 JUMP JUMPDEST JUMPDEST PUSH1 0x0 PUSH2 0x1D5A DUP5 DUP3 DUP6 ADD PUSH2 0x18F4 JUMP JUMPDEST SWAP2 POP POP SWAP3 SWAP2 POP POP JUMP JUMPDEST PUSH2 0x1D6C DUP2 PUSH2 0x17CF JUMP JUMPDEST DUP3 MSTORE POP POP JUMP JUMPDEST PUSH1 0x0 PUSH1 0x20 DUP3 ADD SWAP1 POP PUSH2 0x1D87 PUSH1 0x0 DUP4 ADD DUP5 PUSH2 0x1D63 JUMP JUMPDEST SWAP3 SWAP2 POP POP JUMP JUMPDEST PUSH1 0x0 DUP1 PUSH1 0x40 DUP4 DUP6 SUB SLT ISZERO PUSH2 0x1DA4 JUMPI PUSH2 0x1DA3 PUSH2 0x17A5 JUMP JUMPDEST JUMPDEST PUSH1 0x0 PUSH2 0x1DB2 DUP6 DUP3 DUP7 ADD PUSH2 0x185B JUMP JUMPDEST SWAP3 POP POP PUSH1 0x20 PUSH2 0x1DC3 DUP6 DUP3 DUP7 ADD PUSH2 0x17F8 JUMP JUMPDEST SWAP2 POP POP SWAP3 POP SWAP3 SWAP1 POP JUMP JUMPDEST PUSH1 0x0 DUP2 MLOAD SWAP1 POP SWAP2 SWAP1 POP JUMP JUMPDEST PUSH1 0x0 DUP3 DUP3 MSTORE PUSH1 0x20 DUP3 ADD SWAP1 POP SWAP3 SWAP2 POP POP JUMP JUMPDEST PUSH1 0x0 DUP2 SWAP1 POP PUSH1 0x20 DUP3 ADD SWAP1 POP SWAP2 SWAP1 POP JUMP JUMPDEST PUSH2 0x1E02 DUP2 PUSH2 0x17CF JUMP JUMPDEST DUP3 MSTORE POP POP JUMP JUMPDEST PUSH1 0x0 PUSH2 0x1E14 DUP4 DUP4 PUSH2 0x1DF9 JUMP JUMPDEST PUSH1 0x20 DUP4 ADD SWAP1 POP SWAP3 SWAP2 POP POP JUMP JUMPDEST PUSH1 0x0 PUSH1 0x20 DUP3 ADD SWAP1 POP SWAP2 SWAP1 POP JUMP JUMPDEST PUSH1 0x0 PUSH2 0x1E38 DUP3 PUSH2 0x1DCD JUMP JUMPDEST PUSH2 0x1E42 DUP2 DUP6 PUSH2 0x1DD8 JUMP JUMPDEST SWAP4 POP PUSH2 0x1E4D DUP4 PUSH2 0x1DE9 JUMP JUMPDEST DUP1 PUSH1 0x0 JUMPDEST DUP4 DUP2 LT ISZERO PUSH2 0x1E7E JUMPI DUP2 MLOAD PUSH2 0x1E65 DUP9 DUP3 PUSH2 0x1E08 JUMP JUMPDEST SWAP8 POP PUSH2 0x1E70 DUP4 PUSH2 0x1E20 JUMP JUMPDEST SWAP3 POP POP PUSH1 0x1 DUP2 ADD SWAP1 POP PUSH2 0x1E51 JUMP JUMPDEST POP DUP6 SWAP4 POP POP POP POP SWAP3 SWAP2 POP POP JUMP JUMPDEST PUSH1 0x0 PUSH1 0x20 DUP3 ADD SWAP1 POP DUP2 DUP2 SUB PUSH1 0x0 DUP4 ADD MSTORE PUSH2 0x1EA5 DUP2 DUP5 PUSH2 0x1E2D JUMP JUMPDEST SWAP1 POP SWAP3 SWAP2 POP POP JUMP JUMPDEST PUSH1 0x0 DUP1 PUSH1 0x0 DUP1 PUSH1 0x0 DUP1 PUSH1 0x0 DUP1 PUSH1 0x0 DUP1 PUSH2 0x100 DUP12 DUP14 SUB SLT ISZERO PUSH2 0x1ED1 JUMPI PUSH2 0x1ED0 PUSH2 0x17A5 JUMP JUMPDEST JUMPDEST PUSH1 0x0 PUSH2 0x1EDF DUP14 DUP3 DUP15 ADD PUSH2 0x185B JUMP JUMPDEST SWAP11 POP POP PUSH1 0x20 PUSH2 0x1EF0 DUP14 DUP3 DUP15 ADD PUSH2 0x185B JUMP JUMPDEST SWAP10 POP POP PUSH1 0x40 PUSH2 0x1F01 DUP14 DUP3 DUP15 ADD PUSH2 0x18F4 JUMP JUMPDEST SWAP9 POP POP PUSH1 0x60 DUP12 ADD CALLDATALOAD PUSH8 0xFFFFFFFFFFFFFFFF DUP2 GT ISZERO PUSH2 0x1F22 JUMPI PUSH2 0x1F21 PUSH2 0x17AA JUMP JUMPDEST JUMPDEST PUSH2 0x1F2E DUP14 DUP3 DUP15 ADD PUSH2 0x1918 JUMP JUMPDEST SWAP8 POP SWAP8 POP POP PUSH1 0x80 DUP12 ADD CALLDATALOAD PUSH8 0xFFFFFFFFFFFFFFFF DUP2 GT ISZERO PUSH2 0x1F51 JUMPI PUSH2 0x1F50 PUSH2 0x17AA JUMP JUMPDEST JUMPDEST PUSH2 0x1F5D DUP14 DUP3 DUP15 ADD PUSH2 0x1918 JUMP JUMPDEST SWAP6 POP SWAP6 POP POP PUSH1 0xA0 PUSH2 0x1F70 DUP14 DUP3 DUP15 ADD PUSH2 0x197E JUMP JUMPDEST SWAP4 POP POP PUSH1 0xC0 PUSH2 0x1F81 DUP14 DUP3 DUP15 ADD PUSH2 0x1AEB JUMP JUMPDEST SWAP3 POP POP PUSH1 0xE0 PUSH2 0x1F92 DUP14 DUP3 DUP15 ADD PUSH2 0x185B JUMP JUMPDEST SWAP2 POP POP SWAP3 SWAP6 SWAP9 SWAP12 SWAP2 SWAP5 SWAP8 SWAP11 POP SWAP3 SWAP6 SWAP9 POP JUMP JUMPDEST PUSH1 0x0 DUP1 PUSH1 0x40 DUP4 DUP6 SUB SLT ISZERO PUSH2 0x1FBB JUMPI PUSH2 0x1FBA PUSH2 0x17A5 JUMP JUMPDEST JUMPDEST PUSH1 0x0 PUSH2 0x1FC9 DUP6 DUP3 DUP7 ADD PUSH2 0x185B JUMP JUMPDEST SWAP3 POP POP PUSH1 0x20 PUSH2 0x1FDA DUP6 DUP3 DUP7 ADD PUSH2 0x18F4 JUMP JUMPDEST SWAP2 POP POP SWAP3 POP SWAP3 SWAP1 POP JUMP JUMPDEST PUSH1 0x0 DUP2 MLOAD SWAP1 POP SWAP2 SWAP1 POP JUMP JUMPDEST PUSH1 0x0 DUP3 DUP3 MSTORE PUSH1 0x20 DUP3 ADD SWAP1 POP SWAP3 SWAP2 POP POP JUMP JUMPDEST PUSH1 0x0 JUMPDEST DUP4 DUP2 LT ISZERO PUSH2 0x201E JUMPI DUP1 DUP3 ADD MLOAD DUP2 DUP5 ADD MSTORE PUSH1 0x20 DUP2 ADD SWAP1 POP PUSH2 0x2003 JUMP JUMPDEST PUSH1 0x0 DUP5 DUP5 ADD MSTORE POP POP POP POP JUMP JUMPDEST PUSH1 0x0 PUSH2 0x2035 DUP3 PUSH2 0x1FE4 JUMP JUMPDEST PUSH2 0x203F DUP2 DUP6 PUSH2 0x1FEF JUMP JUMPDEST SWAP4 POP PUSH2 0x204F DUP2 DUP6 PUSH1 0x20 DUP7 ADD PUSH2 0x2000 JUMP JUMPDEST PUSH2 0x2058 DUP2 PUSH2 0x1998 JUMP JUMPDEST DUP5 ADD SWAP2 POP POP SWAP3 SWAP2 POP POP JUMP JUMPDEST PUSH1 0x0 PUSH1 0x20 DUP3 ADD SWAP1 POP DUP2 DUP2 SUB PUSH1 0x0 DUP4 ADD MSTORE PUSH2 0x207D DUP2 DUP5 PUSH2 0x202A JUMP JUMPDEST SWAP1 POP SWAP3 SWAP2 POP POP JUMP JUMPDEST PUSH1 0x0 PUSH8 0xFFFFFFFFFFFFFFFF DUP3 GT ISZERO PUSH2 0x20A0 JUMPI PUSH2 0x209F PUSH2 0x19A9 JUMP JUMPDEST JUMPDEST PUSH2 0x20A9 DUP3 PUSH2 0x1998 JUMP JUMPDEST SWAP1 POP PUSH1 0x20 DUP2 ADD SWAP1 POP SWAP2 SWAP1 POP JUMP JUMPDEST PUSH1 0x0 PUSH2 0x20C9 PUSH2 0x20C4 DUP5 PUSH2 0x2085 JUMP JUMPDEST PUSH2 0x1A09 JUMP JUMPDEST SWAP1 POP DUP3 DUP2 MSTORE PUSH1 0x20 DUP2 ADD DUP5 DUP5 DUP5 ADD GT ISZERO PUSH2 0x20E5 JUMPI PUSH2 0x20E4 PUSH2 0x1993 JUMP JUMPDEST JUMPDEST PUSH2 0x20F0 DUP5 DUP3 DUP6 PUSH2 0x1A55 JUMP JUMPDEST POP SWAP4 SWAP3 POP POP POP JUMP JUMPDEST PUSH1 0x0 DUP3 PUSH1 0x1F DUP4 ADD SLT PUSH2 0x210D JUMPI PUSH2 0x210C PUSH2 0x1909 JUMP JUMPDEST JUMPDEST DUP2 CALLDATALOAD PUSH2 0x211D DUP5 DUP3 PUSH1 0x20 DUP7 ADD PUSH2 0x20B6 JUMP JUMPDEST SWAP2 POP POP SWAP3 SWAP2 POP POP JUMP JUMPDEST PUSH1 0x0 DUP1 PUSH1 0x0 DUP1 PUSH1 0x0 DUP1 PUSH1 0x0 DUP1 PUSH1 0x0 PUSH1 0xE0 DUP11 DUP13 SUB SLT ISZERO PUSH2 0x2148 JUMPI PUSH2 0x2147 PUSH2 0x17A5 JUMP JUMPDEST JUMPDEST PUSH1 0x0 PUSH2 0x2156 DUP13 DUP3 DUP14 ADD PUSH2 0x185B JUMP JUMPDEST SWAP10 POP POP PUSH1 0x20 PUSH2 0x2167 DUP13 DUP3 DUP14 ADD PUSH2 0x185B JUMP JUMPDEST SWAP9 POP POP PUSH1 0x40 PUSH2 0x2178 DUP13 DUP3 DUP14 ADD PUSH2 0x18F4 JUMP JUMPDEST SWAP8 POP POP PUSH1 0x60 DUP11 ADD CALLDATALOAD PUSH8 0xFFFFFFFFFFFFFFFF DUP2 GT ISZERO PUSH2 0x2199 JUMPI PUSH2 0x2198 PUSH2 0x17AA JUMP JUMPDEST JUMPDEST PUSH2 0x21A5 DUP13 DUP3 DUP14 ADD PUSH2 0x1918 JUMP JUMPDEST SWAP7 POP SWAP7 POP POP PUSH1 0x80 DUP11 ADD CALLDATALOAD PUSH8 0xFFFFFFFFFFFFFFFF DUP2 GT ISZERO PUSH2 0x21C8 JUMPI PUSH2 0x21C7 PUSH2 0x17AA JUMP JUMPDEST JUMPDEST PUSH2 0x21D4 DUP13 DUP3 DUP14 ADD PUSH2 0x1918 JUMP JUMPDEST SWAP5 POP SWAP5 POP POP PUSH1 0xA0 PUSH2 0x21E7 DUP13 DUP3 DUP14 ADD PUSH2 0x197E JUMP JUMPDEST SWAP3 POP POP PUSH1 0xC0 DUP11 ADD CALLDATALOAD PUSH8 0xFFFFFFFFFFFFFFFF DUP2 GT ISZERO PUSH2 0x2208 JUMPI PUSH2 0x2207 PUSH2 0x17AA JUMP JUMPDEST JUMPDEST PUSH2 0x2214 DUP13 DUP3 DUP14 ADD PUSH2 0x20F8 JUMP JUMPDEST SWAP2 POP POP SWAP3 SWAP6 SWAP9 POP SWAP3 SWAP6 SWAP9 POP SWAP3 SWAP6 SWAP9 JUMP JUMPDEST PUSH1 0x0 DUP2 MLOAD SWAP1 POP SWAP2 SWAP1 POP JUMP JUMPDEST PUSH1 0x0 DUP3 DUP3 MSTORE PUSH1 0x20 DUP3 ADD SWAP1 POP SWAP3 SWAP2 POP POP JUMP JUMPDEST PUSH1 0x0 PUSH2 0x224B DUP3 PUSH2 0x2224 JUMP JUMPDEST PUSH2 0x2255 DUP2 DUP6 PUSH2 0x222F JUMP JUMPDEST SWAP4 POP PUSH2 0x2265 DUP2 DUP6 PUSH1 0x20 DUP7 ADD PUSH2 0x2000 JUMP JUMPDEST PUSH2 0x226E DUP2 PUSH2 0x1998 JUMP JUMPDEST DUP5 ADD SWAP2 POP POP SWAP3 SWAP2 POP POP JUMP JUMPDEST PUSH1 0x0 PUSH1 0x20 DUP3 ADD SWAP1 POP DUP2 DUP2 SUB PUSH1 0x0 DUP4 ADD MSTORE PUSH2 0x2293 DUP2 DUP5 PUSH2 0x2240 JUMP JUMPDEST SWAP1 POP SWAP3 SWAP2 POP POP JUMP JUMPDEST PUSH32 0x486174686F7246656465726174696F6E3A20456D707479206D656D6265720000 PUSH1 0x0 DUP3 ADD MSTORE POP JUMP JUMPDEST PUSH1 0x0 PUSH2 0x22D1 PUSH1 0x1E DUP4 PUSH2 0x1FEF JUMP JUMPDEST SWAP2 POP PUSH2 0x22DC DUP3 PUSH2 0x229B JUMP JUMPDEST PUSH1 0x20 DUP3 ADD SWAP1 POP SWAP2 SWAP1 POP JUMP JUMPDEST PUSH1 0x0 PUSH1 0x20 DUP3 ADD SWAP1 POP DUP2 DUP2 SUB PUSH1 0x0 DUP4 ADD MSTORE PUSH2 0x2300 DUP2 PUSH2 0x22C4 JUMP JUMPDEST SWAP1 POP SWAP2 SWAP1 POP JUMP JUMPDEST PUSH32 0x486174686F7246656465726174696F6E3A204D656D62657220646F65736E2774 PUSH1 0x0 DUP3 ADD MSTORE PUSH32 0x2065786973740000000000000000000000000000000000000000000000000000 PUSH1 0x20 DUP3 ADD MSTORE POP JUMP JUMPDEST PUSH1 0x0 PUSH2 0x2363 PUSH1 0x26 DUP4 PUSH2 0x1FEF JUMP JUMPDEST SWAP2 POP PUSH2 0x236E DUP3 PUSH2 0x2307 JUMP JUMPDEST PUSH1 0x40 DUP3 ADD SWAP1 POP SWAP2 SWAP1 POP JUMP JUMPDEST PUSH1 0x0 PUSH1 0x20 DUP3 ADD SWAP1 POP DUP2 DUP2 SUB PUSH1 0x0 DUP4 ADD MSTORE PUSH2 0x2392 DUP2 PUSH2 0x2356 JUMP JUMPDEST SWAP1 POP SWAP2 SWAP1 POP JUMP JUMPDEST PUSH32 0x486174686F7246656465726174696F6E3A2043616E27742072656D6F76652061 PUSH1 0x0 DUP3 ADD MSTORE PUSH32 0x6C6C20746865206D656D62657273000000000000000000000000000000000000 PUSH1 0x20 DUP3 ADD MSTORE POP JUMP JUMPDEST PUSH1 0x0 PUSH2 0x23F5 PUSH1 0x2E DUP4 PUSH2 0x1FEF JUMP JUMPDEST SWAP2 POP PUSH2 0x2400 DUP3 PUSH2 0x2399 JUMP JUMPDEST PUSH1 0x40 DUP3 ADD SWAP1 POP SWAP2 SWAP1 POP JUMP JUMPDEST PUSH1 0x0 PUSH1 0x20 DUP3 ADD SWAP1 POP DUP2 DUP2 SUB PUSH1 0x0 DUP4 ADD MSTORE PUSH2 0x2424 DUP2 PUSH2 0x23E8 JUMP JUMPDEST SWAP1 POP SWAP2 SWAP1 POP JUMP JUMPDEST PUSH32 0x4E487B7100000000000000000000000000000000000000000000000000000000 PUSH1 0x0 MSTORE PUSH1 0x11 PUSH1 0x4 MSTORE PUSH1 0x24 PUSH1 0x0 REVERT JUMPDEST PUSH1 0x0 PUSH2 0x2465 DUP3 PUSH2 0x18D3 JUMP JUMPDEST SWAP2 POP PUSH2 0x2470 DUP4 PUSH2 0x18D3 JUMP JUMPDEST SWAP3 POP DUP3 DUP3 SUB SWAP1 POP DUP2 DUP2 GT ISZERO PUSH2 0x2488 JUMPI PUSH2 0x2487 PUSH2 0x242B JUMP JUMPDEST JUMPDEST SWAP3 SWAP2 POP POP JUMP JUMPDEST PUSH32 0x4E487B7100000000000000000000000000000000000000000000000000000000 PUSH1 0x0 MSTORE PUSH1 0x32 PUSH1 0x4 MSTORE PUSH1 0x24 PUSH1 0x0 REVERT JUMPDEST PUSH32 0x4E487B7100000000000000000000000000000000000000000000000000000000 PUSH1 0x0 MSTORE PUSH1 0x31 PUSH1 0x4 MSTORE PUSH1 0x24 PUSH1 0x0 REVERT JUMPDEST PUSH32 0x486174686F7246656465726174696F6E3A204E6F7420466564657261746F7200 PUSH1 0x0 DUP3 ADD MSTORE POP JUMP JUMPDEST PUSH1 0x0 PUSH2 0x2522 PUSH1 0x1F DUP4 PUSH2 0x1FEF JUMP JUMPDEST SWAP2 POP PUSH2 0x252D DUP3 PUSH2 0x24EC JUMP JUMPDEST PUSH1 0x20 DUP3 ADD SWAP1 POP SWAP2 SWAP1 POP JUMP JUMPDEST PUSH1 0x0 PUSH1 0x20 DUP3 ADD SWAP1 POP DUP2 DUP2 SUB PUSH1 0x0 DUP4 ADD MSTORE PUSH2 0x2551 DUP2 PUSH2 0x2515 JUMP JUMPDEST SWAP1 POP SWAP2 SWAP1 POP JUMP JUMPDEST PUSH32 0x486174686F7246656465726174696F6E3A205472616E73616374696F6E20616C PUSH1 0x0 DUP3 ADD MSTORE PUSH32 0x7265616479207369676E65640000000000000000000000000000000000000000 PUSH1 0x20 DUP3 ADD MSTORE POP JUMP JUMPDEST PUSH1 0x0 PUSH2 0x25B4 PUSH1 0x2C DUP4 PUSH2 0x1FEF JUMP JUMPDEST SWAP2 POP PUSH2 0x25BF DUP3 PUSH2 0x2558 JUMP JUMPDEST PUSH1 0x40 DUP3 ADD SWAP1 POP SWAP2 SWAP1 POP JUMP JUMPDEST PUSH1 0x0 PUSH1 0x20 DUP3 ADD SWAP1 POP DUP2 DUP2 SUB PUSH1 0x0 DUP4 ADD MSTORE PUSH2 0x25E3 DUP2 PUSH2 0x25A7 JUMP JUMPDEST SWAP1 POP SWAP2 SWAP1 POP JUMP JUMPDEST PUSH32 0x4E487B7100000000000000000000000000000000000000000000000000000000 PUSH1 0x0 MSTORE PUSH1 0x22 PUSH1 0x4 MSTORE PUSH1 0x24 PUSH1 0x0 REVERT JUMPDEST PUSH1 0x0 PUSH1 0x2 DUP3 DIV SWAP1 POP PUSH1 0x1 DUP3 AND DUP1 PUSH2 0x2631 JUMPI PUSH1 0x7F DUP3 AND SWAP2 POP JUMPDEST PUSH1 0x20 DUP3 LT DUP2 SUB PUSH2 0x2644 JUMPI PUSH2 0x2643 PUSH2 0x25EA JUMP JUMPDEST JUMPDEST POP SWAP2 SWAP1 POP JUMP JUMPDEST PUSH1 0x0 DUP2 SWAP1 POP DUP2 PUSH1 0x0 MSTORE PUSH1 0x20 PUSH1 0x0 KECCAK256 SWAP1 POP SWAP2 SWAP1 POP JUMP JUMPDEST PUSH1 0x0 PUSH1 0x20 PUSH1 0x1F DUP4 ADD DIV SWAP1 POP SWAP2 SWAP1 POP JUMP JUMPDEST PUSH1 0x0 DUP3 DUP3 SHL SWAP1 POP SWAP3 SWAP2 POP POP JUMP JUMPDEST PUSH1 0x0 PUSH1 0x8 DUP4 MUL PUSH2 0x26AC PUSH32 0xFFFFFFFFFFFFFFFFFFFFFFFFFFFFFFFFFFFFFFFFFFFFFFFFFFFFFFFFFFFFFFFF DUP3 PUSH2 0x266F JUMP JUMPDEST PUSH2 0x26B6 DUP7 DUP4 PUSH2 0x266F JUMP JUMPDEST SWAP6 POP DUP1 NOT DUP5 AND SWAP4 POP DUP1 DUP7 AND DUP5 OR SWAP3 POP POP POP SWAP4 SWAP3 POP POP POP JUMP JUMPDEST PUSH1 0x0 DUP2 SWAP1 POP SWAP2 SWAP1 POP JUMP JUMPDEST PUSH1 0x0 PUSH2 0x26F3 PUSH2 0x26EE PUSH2 0x26E9 DUP5 PUSH2 0x18D3 JUMP JUMPDEST PUSH2 0x26CE JUMP JUMPDEST PUSH2 0x18D3 JUMP JUMPDEST SWAP1 POP SWAP2 SWAP1 POP JUMP JUMPDEST PUSH1 0x0 DUP2 SWAP1 POP SWAP2 SWAP1 POP JUMP JUMPDEST PUSH2 0x270D DUP4 PUSH2 0x26D8 JUMP JUMPDEST PUSH2 0x2721 PUSH2 0x2719 DUP3 PUSH2 0x26FA JUMP JUMPDEST DUP5 DUP5 SLOAD PUSH2 0x267C JUMP JUMPDEST DUP3 SSTORE POP POP POP POP JUMP JUMPDEST PUSH1 0x0 SWAP1 JUMP JUMPDEST PUSH2 0x2736 PUSH2 0x2729 JUMP JUMPDEST PUSH2 0x2741 DUP2 DUP5 DUP5 PUSH2 0x2704 JUMP JUMPDEST POP POP POP JUMP JUMPDEST JUMPDEST DUP2 DUP2 LT ISZERO PUSH2 0x2765 JUMPI PUSH2 0x275A PUSH1 0x0 DUP3 PUSH2 0x272E JUMP JUMPDEST PUSH1 0x1 DUP2 ADD SWAP1 POP PUSH2 0x2747 JUMP JUMPDEST POP POP JUMP JUMPDEST PUSH1 0x1F DUP3 GT ISZERO PUSH2 0x27AA JUMPI PUSH2 0x277B DUP2 PUSH2 0x264A JUMP JUMPDEST PUSH2 0x2784 DUP5 PUSH2 0x265F JUMP JUMPDEST DUP2 ADD PUSH1 0x20 DUP6 LT ISZERO PUSH2 0x2793 JUMPI DUP2 SWAP1 POP JUMPDEST PUSH2 0x27A7 PUSH2 0x279F DUP6 PUSH2 0x265F JUMP JUMPDEST DUP4 ADD DUP3 PUSH2 0x2746 JUMP JUMPDEST POP POP JUMPDEST POP POP POP JUMP JUMPDEST PUSH1 0x0 DUP3 DUP3 SHR SWAP1 POP SWAP3 SWAP2 POP POP JUMP JUMPDEST PUSH1 0x0 PUSH2 0x27CD PUSH1 0x0 NOT DUP5 PUSH1 0x8 MUL PUSH2 0x27AF JUMP JUMPDEST NOT DUP1 DUP4 AND SWAP2 POP POP SWAP3 SWAP2 POP POP JUMP JUMPDEST PUSH1 0x0 PUSH2 0x27E6 DUP4 DUP4 PUSH2 0x27BC JUMP JUMPDEST SWAP2 POP DUP3 PUSH1 0x2 MUL DUP3 OR SWAP1 POP SWAP3 SWAP2 POP POP JUMP JUMPDEST PUSH2 0x27FF DUP3 PUSH2 0x1FE4 JUMP JUMPDEST PUSH8 0xFFFFFFFFFFFFFFFF DUP2 GT ISZERO PUSH2 0x2818 JUMPI PUSH2 0x2817 PUSH2 0x19A9 JUMP JUMPDEST JUMPDEST PUSH2 0x2822 DUP3 SLOAD PUSH2 0x2619 JUMP JUMPDEST PUSH2 0x282D DUP3 DUP3 DUP6 PUSH2 0x2769 JUMP JUMPDEST PUSH1 0x0 PUSH1 0x20 SWAP1 POP PUSH1 0x1F DUP4 GT PUSH1 0x1 DUP2 EQ PUSH2 0x2860 JUMPI PUSH1 0x0 DUP5 ISZERO PUSH2 0x284E JUMPI DUP3 DUP8 ADD MLOAD SWAP1 POP JUMPDEST PUSH2 0x2858 DUP6 DUP3 PUSH2 0x27DA JUMP JUMPDEST DUP7 SSTORE POP PUSH2 0x28C0 JUMP JUMPDEST PUSH1 0x1F NOT DUP5 AND PUSH2 0x286E DUP7 PUSH2 0x264A JUMP JUMPDEST PUSH1 0x0 JUMPDEST DUP3 DUP2 LT ISZERO PUSH2 0x2896 JUMPI DUP5 DUP10 ADD MLOAD DUP3 SSTORE PUSH1 0x1 DUP3 ADD SWAP2 POP PUSH1 0x20 DUP6 ADD SWAP5 POP PUSH1 0x20 DUP2 ADD SWAP1 POP PUSH2 0x2871 JUMP JUMPDEST DUP7 DUP4 LT ISZERO PUSH2 0x28B3 JUMPI DUP5 DUP10 ADD MLOAD PUSH2 0x28AF PUSH1 0x1F DUP10 AND DUP3 PUSH2 0x27BC JUMP JUMPDEST DUP4 SSTORE POP JUMPDEST PUSH1 0x1 PUSH1 0x2 DUP9 MUL ADD DUP9 SSTORE POP POP POP JUMPDEST POP POP POP POP POP POP JUMP JUMPDEST PUSH1 0x0 PUSH2 0x28D4 DUP4 DUP6 PUSH2 0x1FEF JUMP JUMPDEST SWAP4 POP PUSH2 0x28E1 DUP4 DUP6 DUP5 PUSH2 0x1A55 JUMP JUMPDEST PUSH2 0x28EA DUP4 PUSH2 0x1998 JUMP JUMPDEST DUP5 ADD SWAP1 POP SWAP4 SWAP3 POP POP POP JUMP JUMPDEST PUSH32 0x4E487B7100000000000000000000000000000000000000000000000000000000 PUSH1 0x0 MSTORE PUSH1 0x21 PUSH1 0x4 MSTORE PUSH1 0x24 PUSH1 0x0 REVERT JUMPDEST PUSH1 0x4 DUP2 LT PUSH2 0x2935 JUMPI PUSH2 0x2934 PUSH2 0x28F5 JUMP JUMPDEST JUMPDEST POP JUMP JUMPDEST PUSH1 0x0 DUP2 SWAP1 POP PUSH2 0x2946 DUP3 PUSH2 0x2924 JUMP JUMPDEST SWAP2 SWAP1 POP JUMP JUMPDEST PUSH1 0x0 PUSH2 0x2956 DUP3 PUSH2 0x2938 JUMP JUMPDEST SWAP1 POP SWAP2 SWAP1 POP JUMP JUMPDEST PUSH2 0x2966 DUP2 PUSH2 0x294B JUMP JUMPDEST DUP3 MSTORE POP POP JUMP JUMPDEST PUSH1 0x0 PUSH2 0x100 DUP3 ADD SWAP1 POP PUSH2 0x2982 PUSH1 0x0 DUP4 ADD DUP14 PUSH2 0x1CE2 JUMP JUMPDEST PUSH2 0x298F PUSH1 0x20 DUP4 ADD DUP13 PUSH2 0x1CE2 JUMP JUMPDEST PUSH2 0x299C PUSH1 0x40 DUP4 ADD DUP12 PUSH2 0x1D0C JUMP JUMPDEST DUP2 DUP2 SUB PUSH1 0x60 DUP4 ADD MSTORE PUSH2 0x29AF DUP2 DUP10 DUP12 PUSH2 0x28C8 JUMP JUMPDEST SWAP1 POP DUP2 DUP2 SUB PUSH1 0x80 DUP4 ADD MSTORE PUSH2 0x29C4 DUP2 DUP8 DUP10 PUSH2 0x28C8 JUMP JUMPDEST SWAP1 POP PUSH2 0x29D3 PUSH1 0xA0 DUP4 ADD DUP7 PUSH2 0x295D JUMP JUMPDEST PUSH2 0x29E0 PUSH1 0xC0 DUP4 ADD DUP6 PUSH2 0x18A9 JUMP JUMPDEST DUP2 DUP2 SUB PUSH1 0xE0 DUP4 ADD MSTORE PUSH2 0x29F2 DUP2 DUP5 PUSH2 0x202A JUMP JUMPDEST SWAP1 POP SWAP12 SWAP11 POP POP POP POP POP POP POP POP POP POP POP JUMP JUMPDEST PUSH1 0x0 DUP2 SWAP1 POP SWAP2 SWAP1 POP JUMP JUMPDEST PUSH2 0x2A1E PUSH2 0x2A19 DUP3 PUSH2 0x183A JUMP JUMPDEST PUSH2 0x2A03 JUMP JUMPDEST DUP3 MSTORE POP POP JUMP JUMPDEST PUSH1 0x0 DUP2 SWAP1 POP SWAP3 SWAP2 POP POP JUMP JUMPDEST PUSH1 0x0 PUSH2 0x2A3B DUP4 DUP6 PUSH2 0x2A24 JUMP JUMPDEST SWAP4 POP PUSH2 0x2A48 DUP4 DUP6 DUP5 PUSH2 0x1A55 JUMP JUMPDEST DUP3 DUP5 ADD SWAP1 POP SWAP4 SWAP3 POP POP POP JUMP JUMPDEST PUSH1 0x0 DUP2 SWAP1 POP SWAP2 SWAP1 POP JUMP JUMPDEST PUSH2 0x2A6F PUSH2 0x2A6A DUP3 PUSH2 0x18D3 JUMP JUMPDEST PUSH2 0x2A54 JUMP JUMPDEST DUP3 MSTORE POP POP JUMP JUMPDEST PUSH1 0x0 DUP2 PUSH1 0xF8 SHL SWAP1 POP SWAP2 SWAP1 POP JUMP JUMPDEST PUSH1 0x0 PUSH2 0x2A8D DUP3 PUSH2 0x2A75 JUMP JUMPDEST SWAP1 POP SWAP2 SWAP1 POP JUMP JUMPDEST PUSH2 0x2AA5 PUSH2 0x2AA0 DUP3 PUSH2 0x294B JUMP JUMPDEST PUSH2 0x2A82 JUMP JUMPDEST DUP3 MSTORE POP POP JUMP JUMPDEST PUSH1 0x0 PUSH2 0x2AB7 DUP3 DUP12 PUSH2 0x2A0D JUMP JUMPDEST PUSH1 0x20 DUP3 ADD SWAP2 POP PUSH2 0x2AC8 DUP3 DUP10 DUP12 PUSH2 0x2A2F JUMP JUMPDEST SWAP2 POP PUSH2 0x2AD5 DUP3 DUP8 DUP10 PUSH2 0x2A2F JUMP JUMPDEST SWAP2 POP PUSH2 0x2AE1 DUP3 DUP7 PUSH2 0x2A5E JUMP JUMPDEST PUSH1 0x20 DUP3 ADD SWAP2 POP PUSH2 0x2AF1 DUP3 DUP6 PUSH2 0x2A0D JUMP JUMPDEST PUSH1 0x20 DUP3 ADD SWAP2 POP PUSH2 0x2B01 DUP3 DUP5 PUSH2 0x2A94 JUMP JUMPDEST PUSH1 0x1 DUP3 ADD SWAP2 POP DUP2 SWAP1 POP SWAP10 SWAP9 POP POP POP POP POP POP POP POP POP JUMP JUMPDEST PUSH32 0x486174686F7246656465726174696F6E3A20546F6F206D616E79206D656D6265 PUSH1 0x0 DUP3 ADD MSTORE PUSH32 0x7273000000000000000000000000000000000000000000000000000000000000 PUSH1 0x20 DUP3 ADD MSTORE POP JUMP JUMPDEST PUSH1 0x0 PUSH2 0x2B73 PUSH1 0x22 DUP4 PUSH2 0x1FEF JUMP JUMPDEST SWAP2 POP PUSH2 0x2B7E DUP3 PUSH2 0x2B17 JUMP JUMPDEST PUSH1 0x40 DUP3 ADD SWAP1 POP SWAP2 SWAP1 POP JUMP JUMPDEST PUSH1 0x0 PUSH1 0x20 DUP3 ADD SWAP1 POP DUP2 DUP2 SUB PUSH1 0x0 DUP4 ADD MSTORE PUSH2 0x2BA2 DUP2 PUSH2 0x2B66 JUMP JUMPDEST SWAP1 POP SWAP2 SWAP1 POP JUMP JUMPDEST PUSH1 0x0 PUSH1 0xC0 DUP3 ADD SWAP1 POP PUSH2 0x2BBE PUSH1 0x0 DUP4 ADD DUP12 PUSH2 0x1CE2 JUMP JUMPDEST PUSH2 0x2BCB PUSH1 0x20 DUP4 ADD DUP11 PUSH2 0x1CE2 JUMP JUMPDEST PUSH2 0x2BD8 PUSH1 0x40 DUP4 ADD DUP10 PUSH2 0x1D0C JUMP JUMPDEST DUP2 DUP2 SUB PUSH1 0x60 DUP4 ADD MSTORE PUSH2 0x2BEB DUP2 DUP8 DUP10 PUSH2 0x28C8 JUMP JUMPDEST SWAP1 POP DUP2 DUP2 SUB PUSH1 0x80 DUP4 ADD MSTORE PUSH2 0x2C00 DUP2 DUP6 DUP8 PUSH2 0x28C8 JUMP JUMPDEST SWAP1 POP PUSH2 0x2C0F PUSH1 0xA0 DUP4 ADD DUP5 PUSH2 0x295D JUMP JUMPDEST SWAP10 SWAP9 POP POP POP POP POP POP POP POP POP JUMP JUMPDEST PUSH32 0x486174686F7246656465726174696F6E3A205472616E73616374696F6E20616C PUSH1 0x0 DUP3 ADD MSTORE PUSH32 0x72656164792073656E7400000000000000000000000000000000000000000000 PUSH1 0x20 DUP3 ADD MSTORE POP JUMP JUMPDEST PUSH1 0x0 PUSH2 0x2C78 PUSH1 0x2A DUP4 PUSH2 0x1FEF JUMP JUMPDEST SWAP2 POP PUSH2 0x2C83 DUP3 PUSH2 0x2C1C JUMP JUMPDEST PUSH1 0x40 DUP3 ADD SWAP1 POP SWAP2 SWAP1 POP JUMP JUMPDEST PUSH1 0x0 PUSH1 0x20 DUP3 ADD SWAP1 POP DUP2 DUP2 SUB PUSH1 0x0 DUP4 ADD MSTORE PUSH2 0x2CA7 DUP2 PUSH2 0x2C6B JUMP JUMPDEST SWAP1 POP SWAP2 SWAP1 POP JUMP JUMPDEST PUSH1 0x0 PUSH2 0x100 DUP3 ADD SWAP1 POP PUSH2 0x2CC4 PUSH1 0x0 DUP4 ADD DUP14 PUSH2 0x1CE2 JUMP JUMPDEST PUSH2 0x2CD1 PUSH1 0x20 DUP4 ADD DUP13 PUSH2 0x1CE2 JUMP JUMPDEST PUSH2 0x2CDE PUSH1 0x40 DUP4 ADD DUP12 PUSH2 0x1D0C JUMP JUMPDEST DUP2 DUP2 SUB PUSH1 0x60 DUP4 ADD MSTORE PUSH2 0x2CF1 DUP2 DUP10 DUP12 PUSH2 0x28C8 JUMP JUMPDEST SWAP1 POP DUP2 DUP2 SUB PUSH1 0x80 DUP4 ADD MSTORE PUSH2 0x2D06 DUP2 DUP8 DUP10 PUSH2 0x28C8 JUMP JUMPDEST SWAP1 POP PUSH2 0x2D15 PUSH1 0xA0 DUP4 ADD DUP7 PUSH2 0x295D JUMP JUMPDEST PUSH2 0x2D22 PUSH1 0xC0 DUP4 ADD DUP6 PUSH2 0x18A9 JUMP JUMPDEST PUSH2 0x2D2F PUSH1 0xE0 DUP4 ADD DUP5 PUSH2 0x1CE2 JUMP JUMPDEST SWAP12 SWAP11 POP POP POP POP POP POP POP POP POP POP POP JUMP JUMPDEST PUSH32 0x486174686F7246656465726174696F6E3A204D656D62657220616C7265616479 PUSH1 0x0 DUP3 ADD MSTORE PUSH32 0x2065786973747300000000000000000000000000000000000000000000000000 PUSH1 0x20 DUP3 ADD MSTORE POP JUMP JUMPDEST PUSH1 0x0 PUSH2 0x2D9A PUSH1 0x27 DUP4 PUSH2 0x1FEF JUMP JUMPDEST SWAP2 POP PUSH2 0x2DA5 DUP3 PUSH2 0x2D3E JUMP JUMPDEST PUSH1 0x40 DUP3 ADD SWAP1 POP SWAP2 SWAP1 POP JUMP JUMPDEST PUSH1 0x0 PUSH1 0x20 DUP3 ADD SWAP1 POP DUP2 DUP2 SUB PUSH1 0x0 DUP4 ADD MSTORE PUSH2 0x2DC9 DUP2 PUSH2 0x2D8D JUMP JUMPDEST SWAP1 POP SWAP2 SWAP1 POP JUMP JUMPDEST PUSH32 0x486174686F7246656465726174696F6E3A20616C72656164792070726F706F73 PUSH1 0x0 DUP3 ADD MSTORE PUSH32 0x6564000000000000000000000000000000000000000000000000000000000000 PUSH1 0x20 DUP3 ADD MSTORE POP JUMP JUMPDEST PUSH1 0x0 PUSH2 0x2E2C PUSH1 0x22 DUP4 PUSH2 0x1FEF JUMP JUMPDEST SWAP2 POP PUSH2 0x2E37 DUP3 PUSH2 0x2DD0 JUMP JUMPDEST PUSH1 0x40 DUP3 ADD SWAP1 POP SWAP2 SWAP1 POP JUMP JUMPDEST PUSH1 0x0 PUSH1 0x20 DUP3 ADD SWAP1 POP DUP2 DUP2 SUB PUSH1 0x0 DUP4 ADD MSTORE PUSH2 0x2E5B DUP2 PUSH2 0x2E1F JUMP JUMPDEST SWAP1 POP SWAP2 SWAP1 POP JUMP JUMPDEST PUSH1 0x0 DUP2 SWAP1 POP DUP2 PUSH1 0x0 MSTORE PUSH1 0x20 PUSH1 0x0 KECCAK256 SWAP1 POP SWAP2 SWAP1 POP JUMP JUMPDEST PUSH1 0x1F DUP3 GT ISZERO PUSH2 0x2EB8 JUMPI PUSH2 0x2E89 DUP2 PUSH2 0x2E62 JUMP JUMPDEST PUSH2 0x2E92 DUP5 PUSH2 0x265F JUMP JUMPDEST DUP2 ADD PUSH1 0x20 DUP6 LT ISZERO PUSH2 0x2EA1 JUMPI DUP2 SWAP1 POP JUMPDEST PUSH2 0x2EB5 PUSH2 0x2EAD DUP6 PUSH2 0x265F JUMP JUMPDEST DUP4 ADD DUP3 PUSH2 0x2746 JUMP JUMPDEST POP POP JUMPDEST POP POP POP JUMP JUMPDEST PUSH2 0x2EC6 DUP3 PUSH2 0x2224 JUMP JUMPDEST PUSH8 0xFFFFFFFFFFFFFFFF DUP2 GT ISZERO PUSH2 0x2EDF JUMPI PUSH2 0x2EDE PUSH2 0x19A9 JUMP JUMPDEST JUMPDEST PUSH2 0x2EE9 DUP3 SLOAD PUSH2 0x2619 JUMP JUMPDEST PUSH2 0x2EF4 DUP3 DUP3 DUP6 PUSH2 0x2E77 JUMP JUMPDEST PUSH1 0x0 PUSH1 0x20 SWAP1 POP PUSH1 0x1F DUP4 GT PUSH1 0x1 DUP2 EQ PUSH2 0x2F27 JUMPI PUSH1 0x0 DUP5 ISZERO PUSH2 0x2F15 JUMPI DUP3 DUP8 ADD MLOAD SWAP1 POP JUMPDEST PUSH2 0x2F1F DUP6 DUP3 PUSH2 0x27DA JUMP JUMPDEST DUP7 SSTORE POP PUSH2 0x2F87 JUMP JUMPDEST PUSH1 0x1F NOT DUP5 AND PUSH2 0x2F35 DUP7 PUSH2 0x2E62 JUMP JUMPDEST PUSH1 0x0 JUMPDEST DUP3 DUP2 LT ISZERO PUSH2 0x2F5D JUMPI DUP5 DUP10 ADD MLOAD DUP3 SSTORE PUSH1 0x1 DUP3 ADD SWAP2 POP PUSH1 0x20 DUP6 ADD SWAP5 POP PUSH1 0x20 DUP2 ADD SWAP1 POP PUSH2 0x2F38 JUMP JUMPDEST DUP7 DUP4 LT ISZERO PUSH2 0x2F7A JUMPI DUP5 DUP10 ADD MLOAD PUSH2 0x2F76 PUSH1 0x1F DUP10 AND DUP3 PUSH2 0x27BC JUMP JUMPDEST DUP4 SSTORE POP JUMPDEST PUSH1 0x1 PUSH1 0x2 DUP9 MUL ADD DUP9 SSTORE POP POP POP JUMPDEST POP POP POP POP POP POP JUMP JUMPDEST PUSH1 0x0 PUSH2 0x100 DUP3 ADD SWAP1 POP PUSH2 0x2FA5 PUSH1 0x0 DUP4 ADD DUP14 PUSH2 0x1CE2 JUMP JUMPDEST PUSH2 0x2FB2 PUSH1 0x20 DUP4 ADD DUP13 PUSH2 0x1CE2 JUMP JUMPDEST PUSH2 0x2FBF PUSH1 0x40 DUP4 ADD DUP12 PUSH2 0x1D0C JUMP JUMPDEST DUP2 DUP2 SUB PUSH1 0x60 DUP4 ADD MSTORE PUSH2 0x2FD2 DUP2 DUP10 DUP12 PUSH2 0x28C8 JUMP JUMPDEST SWAP1 POP DUP2 DUP2 SUB PUSH1 0x80 DUP4 ADD MSTORE PUSH2 0x2FE7 DUP2 DUP8 DUP10 PUSH2 0x28C8 JUMP JUMPDEST SWAP1 POP PUSH2 0x2FF6 PUSH1 0xA0 DUP4 ADD DUP7 PUSH2 0x295D JUMP JUMPDEST PUSH2 0x3003 PUSH1 0xC0 DUP4 ADD DUP6 PUSH2 0x1CE2 JUMP JUMPDEST DUP2 DUP2 SUB PUSH1 0xE0 DUP4 ADD MSTORE PUSH2 0x3015 DUP2 DUP5 PUSH2 0x2240 JUMP JUMPDEST SWAP1 POP SWAP12 SWAP11 POP POP POP POP POP POP POP POP POP POP POP JUMP INVALID LOG2 PUSH5 0x6970667358 0x22 SLT KECCAK256 0xB1 CALLCODE GAS 0x1F EXTCODECOPY SHL PUSH18 0x65E75597E438F6E137F7EFE43B1F5B61A385 EXTCODESIZE 0xE8 DUP14 JUMPI MULMOD 0x28 CALLDATACOPY PUSH5 0x736F6C6343 STOP ADDMOD XOR STOP CALLER "
        },
        "methodIdentifiers": {
          "MAX_MEMBER_COUNT()": "681fc921",
          "addMember(address)": "ca6d56dc",
          "getMembers()": "9eab5253",
          "getSignatureCount(bytes32)": "2bbe96bc",
          "getTransactionId(bytes32,bytes32,uint256,string,string,uint8)": "1fd98eaa",
          "isMember(address)": "a230c524",
          "isProcessed(bytes32)": "11c16896",
          "isProposed(bytes32)": "1206b7a9",
          "isSigned(bytes32,address)": "7f8d61e0",
          "members(uint256)": "5daf08ca",
          "owner()": "8da5cb5b",
          "removeMember(address)": "0b1ca49a",
          "renounceOwnership()": "715018a6",
          "sendTransactionProposal(bytes32,bytes32,uint256,string,string,uint8,bytes)": "d80775e1",
          "setTransactionFailed(bytes32,bytes32,uint256,string,string,uint8)": "8140949d",
          "transactionHex(bytes32)": "e831c6ae",
          "transactionSignatures(bytes32,uint256)": "b58d1cfb",
          "transferOwnership(address)": "f2fde38b",
          "updateSignatureState(bytes32,bytes32,uint256,string,string,uint8,string,bool)": "184c5fb2",
          "updateTransactionState(bytes32,bytes32,uint256,string,string,uint8,bool,bytes32)": "a9610094"
        }
      }
    }
  }
}