{
  "_format": "hh-sol-artifact-1",
  "contractName": "HathorFederation",
  "sourceName": "contracts/HathorFederation.sol",
  "abi": [
    {
      "inputs": [
        {
          "internalType": "address[]",
          "name": "_members",
          "type": "address[]"
        },
        {
          "internalType": "address",
          "name": "owner",
          "type": "address"
        }
      ],
      "stateMutability": "nonpayable",
      "type": "constructor"
    },
    {
      "inputs": [
        {
          "internalType": "address",
          "name": "owner",
          "type": "address"
        }
      ],
      "name": "OwnableInvalidOwner",
      "type": "error"
    },
    {
      "inputs": [
        {
          "internalType": "address",
          "name": "account",
          "type": "address"
        }
      ],
      "name": "OwnableUnauthorizedAccount",
      "type": "error"
    },
    {
      "anonymous": false,
      "inputs": [
        {
          "indexed": true,
          "internalType": "address",
          "name": "member",
          "type": "address"
        }
      ],
      "name": "MemberAddition",
      "type": "event"
    },
    {
      "anonymous": false,
      "inputs": [
        {
          "indexed": true,
          "internalType": "address",
          "name": "member",
          "type": "address"
        }
      ],
      "name": "MemberRemoval",
      "type": "event"
    },
    {
      "anonymous": false,
      "inputs": [
        {
          "indexed": true,
          "internalType": "address",
          "name": "previousOwner",
          "type": "address"
        },
        {
          "indexed": true,
          "internalType": "address",
          "name": "newOwner",
          "type": "address"
        }
      ],
      "name": "OwnershipTransferred",
      "type": "event"
    },
    {
      "anonymous": false,
      "inputs": [
        {
          "indexed": false,
          "internalType": "bytes32",
          "name": "originalTokenAddress",
          "type": "bytes32"
        },
        {
          "indexed": false,
          "internalType": "bytes32",
          "name": "transactionHash",
          "type": "bytes32"
        },
        {
          "indexed": false,
          "internalType": "uint256",
          "name": "value",
          "type": "uint256"
        },
        {
          "indexed": false,
          "internalType": "bytes32",
          "name": "sender",
          "type": "bytes32"
        },
        {
          "indexed": false,
          "internalType": "bytes32",
          "name": "receiver",
          "type": "bytes32"
        },
        {
          "indexed": false,
          "internalType": "enum HathorFederation.TransactionType",
          "name": "transactionType",
          "type": "uint8"
        },
        {
          "indexed": true,
          "internalType": "bytes32",
          "name": "transactionId",
          "type": "bytes32"
        },
        {
          "indexed": false,
          "internalType": "bool",
          "name": "processed",
          "type": "bool"
        },
        {
          "indexed": false,
          "internalType": "bytes32",
          "name": "hathorTxId",
          "type": "bytes32"
        }
      ],
      "name": "ProposalSent",
      "type": "event"
    },
    {
      "anonymous": false,
      "inputs": [
        {
          "indexed": false,
          "internalType": "bytes32",
          "name": "originalTokenAddress",
          "type": "bytes32"
        },
        {
          "indexed": false,
          "internalType": "bytes32",
          "name": "transactionHash",
          "type": "bytes32"
        },
        {
          "indexed": false,
          "internalType": "uint256",
          "name": "value",
          "type": "uint256"
        },
        {
          "indexed": false,
          "internalType": "bytes32",
          "name": "sender",
          "type": "bytes32"
        },
        {
          "indexed": false,
          "internalType": "bytes32",
          "name": "receiver",
          "type": "bytes32"
        },
        {
          "indexed": false,
          "internalType": "enum HathorFederation.TransactionType",
          "name": "transactionType",
          "type": "uint8"
        },
        {
          "indexed": true,
          "internalType": "bytes32",
          "name": "transactionId",
          "type": "bytes32"
        },
        {
          "indexed": true,
          "internalType": "address",
          "name": "member",
          "type": "address"
        },
        {
          "indexed": false,
          "internalType": "bool",
          "name": "signed",
          "type": "bool"
        },
        {
          "indexed": false,
          "internalType": "bytes",
          "name": "signature",
          "type": "bytes"
        }
      ],
      "name": "ProposalSigned",
      "type": "event"
    },
    {
      "anonymous": false,
      "inputs": [
        {
          "indexed": true,
          "internalType": "bytes32",
          "name": "transactionId",
          "type": "bytes32"
        },
        {
          "indexed": false,
          "internalType": "address",
          "name": "member",
          "type": "address"
        }
      ],
      "name": "SignaturaFailed",
      "type": "event"
    },
    {
      "anonymous": false,
      "inputs": [
        {
          "indexed": true,
          "internalType": "bytes32",
          "name": "transactionId",
          "type": "bytes32"
        }
      ],
      "name": "TransactionFailed",
      "type": "event"
    },
    {
      "anonymous": false,
      "inputs": [
        {
          "indexed": false,
          "internalType": "bytes32",
          "name": "originalTokenAddress",
          "type": "bytes32"
        },
        {
          "indexed": false,
          "internalType": "bytes32",
          "name": "transactionHash",
          "type": "bytes32"
        },
        {
          "indexed": false,
          "internalType": "uint256",
          "name": "value",
          "type": "uint256"
        },
        {
          "indexed": false,
          "internalType": "bytes32",
          "name": "sender",
          "type": "bytes32"
        },
        {
          "indexed": false,
          "internalType": "bytes32",
          "name": "receiver",
          "type": "bytes32"
        },
        {
          "indexed": false,
          "internalType": "enum HathorFederation.TransactionType",
          "name": "transactionType",
          "type": "uint8"
        },
        {
          "indexed": false,
          "internalType": "bytes32",
          "name": "transactionId",
          "type": "bytes32"
        },
        {
          "indexed": false,
          "internalType": "bytes",
          "name": "txHex",
          "type": "bytes"
        }
      ],
      "name": "TransactionProposed",
      "type": "event"
    },
    {
      "inputs": [],
      "name": "MAX_MEMBER_COUNT",
      "outputs": [
        {
          "internalType": "uint256",
          "name": "",
          "type": "uint256"
        }
      ],
      "stateMutability": "view",
      "type": "function"
    },
    {
      "inputs": [
        {
          "internalType": "address",
          "name": "_newMember",
          "type": "address"
        }
      ],
      "name": "addMember",
      "outputs": [],
      "stateMutability": "nonpayable",
      "type": "function"
    },
    {
      "inputs": [],
      "name": "getMembers",
      "outputs": [
        {
          "internalType": "address[]",
          "name": "",
          "type": "address[]"
        }
      ],
      "stateMutability": "view",
      "type": "function"
    },
    {
      "inputs": [
        {
          "internalType": "bytes32",
          "name": "transactionId",
          "type": "bytes32"
        }
      ],
      "name": "getSignatureCount",
      "outputs": [
        {
          "internalType": "uint256",
          "name": "",
          "type": "uint256"
        }
      ],
      "stateMutability": "view",
      "type": "function"
    },
    {
      "inputs": [
        {
          "internalType": "bytes32",
          "name": "originalTokenAddress",
          "type": "bytes32"
        },
        {
          "internalType": "bytes32",
          "name": "transactionHash",
          "type": "bytes32"
        },
        {
          "internalType": "uint256",
          "name": "value",
          "type": "uint256"
        },
        {
          "internalType": "bytes32",
          "name": "sender",
          "type": "bytes32"
        },
        {
          "internalType": "bytes32",
          "name": "receiver",
          "type": "bytes32"
        },
        {
          "internalType": "enum HathorFederation.TransactionType",
          "name": "transactionType",
          "type": "uint8"
        }
      ],
      "name": "getTransactionId",
      "outputs": [
        {
          "internalType": "bytes32",
          "name": "",
          "type": "bytes32"
        }
      ],
      "stateMutability": "pure",
      "type": "function"
    },
    {
      "inputs": [
        {
          "internalType": "address",
          "name": "",
          "type": "address"
        }
      ],
      "name": "isMember",
      "outputs": [
        {
          "internalType": "bool",
          "name": "",
          "type": "bool"
        }
      ],
      "stateMutability": "view",
      "type": "function"
    },
    {
      "inputs": [
        {
          "internalType": "bytes32",
          "name": "",
          "type": "bytes32"
        }
      ],
      "name": "isProcessed",
      "outputs": [
        {
          "internalType": "bool",
          "name": "",
          "type": "bool"
        }
      ],
      "stateMutability": "view",
      "type": "function"
    },
    {
      "inputs": [
        {
          "internalType": "bytes32",
          "name": "",
          "type": "bytes32"
        }
      ],
      "name": "isProposed",
      "outputs": [
        {
          "internalType": "bool",
          "name": "",
          "type": "bool"
        }
      ],
      "stateMutability": "view",
      "type": "function"
    },
    {
      "inputs": [
        {
          "internalType": "bytes32",
          "name": "",
          "type": "bytes32"
        },
        {
          "internalType": "address",
          "name": "",
          "type": "address"
        }
      ],
      "name": "isSigned",
      "outputs": [
        {
          "internalType": "bool",
          "name": "",
          "type": "bool"
        }
      ],
      "stateMutability": "view",
      "type": "function"
    },
    {
      "inputs": [
        {
          "internalType": "uint256",
          "name": "",
          "type": "uint256"
        }
      ],
      "name": "members",
      "outputs": [
        {
          "internalType": "address",
          "name": "",
          "type": "address"
        }
      ],
      "stateMutability": "view",
      "type": "function"
    },
    {
      "inputs": [],
      "name": "owner",
      "outputs": [
        {
          "internalType": "address",
          "name": "",
          "type": "address"
        }
      ],
      "stateMutability": "view",
      "type": "function"
    },
    {
      "inputs": [
        {
          "internalType": "address",
          "name": "_oldMember",
          "type": "address"
        }
      ],
      "name": "removeMember",
      "outputs": [],
      "stateMutability": "nonpayable",
      "type": "function"
    },
    {
      "inputs": [],
      "name": "renounceOwnership",
      "outputs": [],
      "stateMutability": "nonpayable",
      "type": "function"
    },
    {
      "inputs": [
        {
          "internalType": "bytes32",
          "name": "originalTokenAddress",
          "type": "bytes32"
        },
        {
          "internalType": "bytes32",
          "name": "transactionHash",
          "type": "bytes32"
        },
        {
          "internalType": "uint256",
          "name": "value",
          "type": "uint256"
        },
        {
          "internalType": "bytes32",
          "name": "sender",
          "type": "bytes32"
        },
        {
          "internalType": "bytes32",
          "name": "receiver",
          "type": "bytes32"
        },
        {
          "internalType": "enum HathorFederation.TransactionType",
          "name": "transactionType",
          "type": "uint8"
        },
        {
          "internalType": "bytes",
          "name": "txHex",
          "type": "bytes"
        }
      ],
      "name": "sendTransactionProposal",
      "outputs": [],
      "stateMutability": "nonpayable",
      "type": "function"
    },
    {
      "inputs": [
        {
          "internalType": "bytes32",
          "name": "transactionId",
          "type": "bytes32"
        },
        {
          "internalType": "address",
          "name": "member",
          "type": "address"
        }
      ],
      "name": "setSignatureFailed",
      "outputs": [],
      "stateMutability": "nonpayable",
      "type": "function"
    },
    {
      "inputs": [
        {
          "internalType": "bytes32",
          "name": "transactionId",
          "type": "bytes32"
        }
      ],
      "name": "setTransactionFailed",
      "outputs": [],
      "stateMutability": "nonpayable",
      "type": "function"
    },
    {
      "inputs": [
        {
          "internalType": "bytes32",
          "name": "",
          "type": "bytes32"
        }
      ],
      "name": "transactionHex",
      "outputs": [
        {
          "internalType": "bytes",
          "name": "",
          "type": "bytes"
        }
      ],
      "stateMutability": "view",
      "type": "function"
    },
    {
      "inputs": [
        {
          "internalType": "bytes32",
          "name": "",
          "type": "bytes32"
        },
        {
          "internalType": "uint256",
          "name": "",
          "type": "uint256"
        }
      ],
      "name": "transactionSignatures",
      "outputs": [
        {
          "internalType": "bytes",
          "name": "signature",
          "type": "bytes"
        }
      ],
      "stateMutability": "view",
      "type": "function"
    },
    {
      "inputs": [
        {
          "internalType": "address",
          "name": "newOwner",
          "type": "address"
        }
      ],
      "name": "transferOwnership",
      "outputs": [],
      "stateMutability": "nonpayable",
      "type": "function"
    },
    {
      "inputs": [
        {
          "internalType": "bytes32",
          "name": "originalTokenAddress",
          "type": "bytes32"
        },
        {
          "internalType": "bytes32",
          "name": "transactionHash",
          "type": "bytes32"
        },
        {
          "internalType": "uint256",
          "name": "value",
          "type": "uint256"
        },
        {
          "internalType": "bytes32",
          "name": "sender",
          "type": "bytes32"
        },
        {
          "internalType": "bytes32",
          "name": "receiver",
          "type": "bytes32"
        },
        {
          "internalType": "enum HathorFederation.TransactionType",
          "name": "transactionType",
          "type": "uint8"
        },
        {
          "internalType": "bytes",
          "name": "signature",
          "type": "bytes"
        },
        {
          "internalType": "bool",
          "name": "signed",
          "type": "bool"
        }
      ],
      "name": "updateSignatureState",
      "outputs": [],
      "stateMutability": "nonpayable",
      "type": "function"
    },
    {
      "inputs": [
        {
          "internalType": "bytes32",
          "name": "originalTokenAddress",
          "type": "bytes32"
        },
        {
          "internalType": "bytes32",
          "name": "transactionHash",
          "type": "bytes32"
        },
        {
          "internalType": "uint256",
          "name": "value",
          "type": "uint256"
        },
        {
          "internalType": "bytes32",
          "name": "sender",
          "type": "bytes32"
        },
        {
          "internalType": "bytes32",
          "name": "receiver",
          "type": "bytes32"
        },
        {
          "internalType": "enum HathorFederation.TransactionType",
          "name": "transactionType",
          "type": "uint8"
        },
        {
          "internalType": "bool",
          "name": "sent",
          "type": "bool"
        },
        {
          "internalType": "bytes32",
          "name": "hathorTxId",
          "type": "bytes32"
        }
      ],
      "name": "updateTransactionState",
      "outputs": [],
      "stateMutability": "nonpayable",
      "type": "function"
    }
  ],
  "bytecode": "0x60806040523480156200001157600080fd5b506040516200326f3803806200326f83398181016040528101906200003791906200067d565b80600073ffffffffffffffffffffffffffffffffffffffff168173ffffffffffffffffffffffffffffffffffffffff1603620000ad5760006040517f1e4fbdf7000000000000000000000000000000000000000000000000000000008152600401620000a49190620006f4565b60405180910390fd5b620000be816200031d60201b60201c565b5060328251111562000107576040517f08c379a0000000000000000000000000000000000000000000000000000000008152600401620000fe9062000798565b60405180910390fd5b81600190805190602001906200011f929190620003e1565b5060005b8251811015620003145760026000848381518110620001475762000146620007ba565b5b602002602001015173ffffffffffffffffffffffffffffffffffffffff1673ffffffffffffffffffffffffffffffffffffffff16815260200190815260200160002060009054906101000a900460ff16158015620001ef5750600073ffffffffffffffffffffffffffffffffffffffff16838281518110620001ce57620001cd620007ba565b5b602002602001015173ffffffffffffffffffffffffffffffffffffffff1614155b62000231576040517f08c379a000000000000000000000000000000000000000000000000000000000815260040162000228906200085f565b60405180910390fd5b6001600260008584815181106200024d576200024c620007ba565b5b602002602001015173ffffffffffffffffffffffffffffffffffffffff1673ffffffffffffffffffffffffffffffffffffffff16815260200190815260200160002060006101000a81548160ff021916908315150217905550828181518110620002bc57620002bb620007ba565b5b602002602001015173ffffffffffffffffffffffffffffffffffffffff167f72114e270de66b9d2710ecf140403e5e99b1574767d6a8197bdc8d807a46e7c760405160405180910390a2808060010191505062000123565b50505062000881565b60008060009054906101000a900473ffffffffffffffffffffffffffffffffffffffff169050816000806101000a81548173ffffffffffffffffffffffffffffffffffffffff021916908373ffffffffffffffffffffffffffffffffffffffff1602179055508173ffffffffffffffffffffffffffffffffffffffff168173ffffffffffffffffffffffffffffffffffffffff167f8be0079c531659141344cd1fd0a4f28419497f9722a3daafe3b4186f6b6457e060405160405180910390a35050565b8280548282559060005260206000209081019282156200045d579160200282015b828111156200045c5782518260006101000a81548173ffffffffffffffffffffffffffffffffffffffff021916908373ffffffffffffffffffffffffffffffffffffffff1602179055509160200191906001019062000402565b5b5090506200046c919062000470565b5090565b5b808211156200048b57600081600090555060010162000471565b5090565b6000604051905090565b600080fd5b600080fd5b600080fd5b6000601f19601f8301169050919050565b7f4e487b7100000000000000000000000000000000000000000000000000000000600052604160045260246000fd5b620004f382620004a8565b810181811067ffffffffffffffff82111715620005155762000514620004b9565b5b80604052505050565b60006200052a6200048f565b9050620005388282620004e8565b919050565b600067ffffffffffffffff8211156200055b576200055a620004b9565b5b602082029050602081019050919050565b600080fd5b600073ffffffffffffffffffffffffffffffffffffffff82169050919050565b60006200059e8262000571565b9050919050565b620005b08162000591565b8114620005bc57600080fd5b50565b600081519050620005d081620005a5565b92915050565b6000620005ed620005e7846200053d565b6200051e565b905080838252602082019050602084028301858111156200061357620006126200056c565b5b835b818110156200064057806200062b8882620005bf565b84526020840193505060208101905062000615565b5050509392505050565b600082601f830112620006625762000661620004a3565b5b815162000674848260208601620005d6565b91505092915050565b6000806040838503121562000697576200069662000499565b5b600083015167ffffffffffffffff811115620006b857620006b76200049e565b5b620006c6858286016200064a565b9250506020620006d985828601620005bf565b9150509250929050565b620006ee8162000591565b82525050565b60006020820190506200070b6000830184620006e3565b92915050565b600082825260208201905092915050565b7f486174686f7246656465726174696f6e3a20546f6f206d616e79206d656d626560008201527f7273000000000000000000000000000000000000000000000000000000000000602082015250565b60006200078060228362000711565b91506200078d8262000722565b604082019050919050565b60006020820190508181036000830152620007b38162000771565b9050919050565b7f4e487b7100000000000000000000000000000000000000000000000000000000600052603260045260246000fd5b7f486174686f7246656465726174696f6e3a20496e76616c6964206d656d62657260008201527f7300000000000000000000000000000000000000000000000000000000000000602082015250565b60006200084760218362000711565b91506200085482620007e9565b604082019050919050565b600060208201905081810360008301526200087a8162000838565b9050919050565b6129de80620008916000396000f3fe608060405234801561001057600080fd5b50600436106101375760003560e01c80639eab5253116100b8578063b6b272551161007c578063b6b2725514610374578063ca6d56dc14610390578063d4c1581d146103ac578063d5892635146103c8578063e831c6ae146103e4578063f2fde38b1461041457610137565b80639eab5253146102aa578063a230c524146102c8578063a2714bb5146102f8578063ae36e42d14610328578063b58d1cfb1461034457610137565b8063681fc921116100ff578063681fc92114610218578063715018a6146102365780637f8d61e01461024057806386f063a8146102705780638da5cb5b1461028c57610137565b80630b1ca49a1461013c57806311c16896146101585780631206b7a9146101885780632bbe96bc146101b85780635daf08ca146101e8575b600080fd5b610156600480360381019061015191906116bb565b610430565b005b610172600480360381019061016d919061171e565b6107a8565b60405161017f9190611766565b60405180910390f35b6101a2600480360381019061019d919061171e565b6107c8565b6040516101af9190611766565b60405180910390f35b6101d260048036038101906101cd919061171e565b6107e8565b6040516101df919061179a565b60405180910390f35b61020260048036038101906101fd91906117e1565b610808565b60405161020f919061181d565b60405180910390f35b610220610847565b60405161022d919061179a565b60405180910390f35b61023e61084c565b005b61025a60048036038101906102559190611838565b610860565b6040516102679190611766565b60405180910390f35b61028a6004803603810190610285919061171e565b61088f565b005b61029461091e565b6040516102a1919061181d565b60405180910390f35b6102b2610947565b6040516102bf9190611936565b60405180910390f35b6102e260048036038101906102dd91906116bb565b6109d5565b6040516102ef9190611766565b60405180910390f35b610312600480360381019061030d919061197d565b6109f5565b60405161031f9190611a19565b60405180910390f35b610342600480360381019061033d9190611b7a565b610a39565b005b61035e60048036038101906103599190611c38565b610c04565b60405161036b9190611cf7565b60405180910390f35b61038e60048036038101906103899190611838565b610cc3565b005b6103aa60048036038101906103a591906116bb565b610d70565b005b6103c660048036038101906103c19190611d45565b610f75565b005b6103e260048036038101906103dd9190611e17565b611225565b005b6103fe60048036038101906103f9919061171e565b6113d0565b60405161040b9190611cf7565b60405180910390f35b61042e600480360381019061042991906116bb565b611470565b005b6104386114f6565b600073ffffffffffffffffffffffffffffffffffffffff168173ffffffffffffffffffffffffffffffffffffffff16036104a7576040517f08c379a000000000000000000000000000000000000000000000000000000000815260040161049e90611f2a565b60405180910390fd5b600260008273ffffffffffffffffffffffffffffffffffffffff1673ffffffffffffffffffffffffffffffffffffffff16815260200190815260200160002060009054906101000a900460ff16610533576040517f08c379a000000000000000000000000000000000000000000000000000000000815260040161052a90611fbc565b60405180910390fd5b600180805490501161057a576040517f08c379a00000000000000000000000000000000000000000000000000000000081526004016105719061204e565b60405180910390fd5b6000600260008373ffffffffffffffffffffffffffffffffffffffff1673ffffffffffffffffffffffffffffffffffffffff16815260200190815260200160002060006101000a81548160ff02191690831515021790555060005b600180805490506105e6919061209d565b81101561071a578173ffffffffffffffffffffffffffffffffffffffff1660018281548110610618576106176120d1565b5b9060005260206000200160009054906101000a900473ffffffffffffffffffffffffffffffffffffffff1673ffffffffffffffffffffffffffffffffffffffff160361070d576001808080549050610670919061209d565b81548110610681576106806120d1565b5b9060005260206000200160009054906101000a900473ffffffffffffffffffffffffffffffffffffffff16600182815481106106c0576106bf6120d1565b5b9060005260206000200160006101000a81548173ffffffffffffffffffffffffffffffffffffffff021916908373ffffffffffffffffffffffffffffffffffffffff16021790555061071a565b80806001019150506105d5565b50600180548061072d5761072c612100565b5b6001900381819060005260206000200160006101000a81549073ffffffffffffffffffffffffffffffffffffffff021916905590558073ffffffffffffffffffffffffffffffffffffffff167f270bfc616dd36d5cb6b35aac93e6ef22b089c34e6f6ad6f0892797424840897b60405160405180910390a250565b60036020528060005260406000206000915054906101000a900460ff1681565b60046020528060005260406000206000915054906101000a900460ff1681565b600060066000838152602001908152602001600020805490509050919050565b6001818154811061081857600080fd5b906000526020600020016000915054906101000a900473ffffffffffffffffffffffffffffffffffffffff1681565b603281565b6108546114f6565b61085e600061157d565b565b60076020528160005260406000206020528060005260406000206000915091509054906101000a900460ff1681565b6108976114f6565b60006003600083815260200190815260200160002060006101000a81548160ff02191690831515021790555060006004600083815260200190815260200160002060006101000a81548160ff021916908315150217905550807e2c16bf885aa20d4765baeae86f8008f02f3f63d3209e397e0f0d872afcbaac60405160405180910390a250565b60008060009054906101000a900473ffffffffffffffffffffffffffffffffffffffff16905090565b606060018054806020026020016040519081016040528092919081815260200182805480156109cb57602002820191906000526020600020905b8160009054906101000a900473ffffffffffffffffffffffffffffffffffffffff1673ffffffffffffffffffffffffffffffffffffffff1681526020019060010190808311610981575b5050505050905090565b60026020528060005260406000206000915054906101000a900460ff1681565b600080878585888a87604051602001610a139695949392919061220f565b604051602081830303815290604052805190602001209050809150509695505050505050565b60026000610a45611641565b73ffffffffffffffffffffffffffffffffffffffff1673ffffffffffffffffffffffffffffffffffffffff16815260200190815260200160002060009054906101000a900460ff16610acc576040517f08c379a0000000000000000000000000000000000000000000000000000000008152600401610ac3906122cb565b60405180910390fd5b6000878585888a87604051602001610ae99695949392919061220f565b604051602081830303815290604052805190602001209050600015156004600083815260200190815260200160002060009054906101000a900460ff16151514610b68576040517f08c379a0000000000000000000000000000000000000000000000000000000008152600401610b5f9061235d565b60405180910390fd5b81600560008381526020019081526020016000209081610b889190612589565b5060016004600083815260200190815260200160002060006101000a81548160ff0219169083151502179055507fd2ca4d3c92aaa1163765164e7d78fa244e8d4a127e7785fe05976d2f158774188888888888888789604051610bf298979695949392919061266a565b60405180910390a15050505050505050565b60066020528160005260406000208181548110610c2057600080fd5b9060005260206000200160009150915050806000018054610c40906123ac565b80601f0160208091040260200160405190810160405280929190818152602001828054610c6c906123ac565b8015610cb95780601f10610c8e57610100808354040283529160200191610cb9565b820191906000526020600020905b815481529060010190602001808311610c9c57829003601f168201915b5050505050905081565b610ccb6114f6565b60006007600084815260200190815260200160002060008373ffffffffffffffffffffffffffffffffffffffff1673ffffffffffffffffffffffffffffffffffffffff16815260200190815260200160002060006101000a81548160ff021916908315150217905550817fd413d6ff4b1c2b25d152b1aa4952aa05c186945476d4bce9b8a86b599b01f31f82604051610d64919061181d565b60405180910390a25050565b610d786114f6565b600073ffffffffffffffffffffffffffffffffffffffff168173ffffffffffffffffffffffffffffffffffffffff1603610de7576040517f08c379a0000000000000000000000000000000000000000000000000000000008152600401610dde90611f2a565b60405180910390fd5b600260008273ffffffffffffffffffffffffffffffffffffffff1673ffffffffffffffffffffffffffffffffffffffff16815260200190815260200160002060009054906101000a900460ff1615610e74576040517f08c379a0000000000000000000000000000000000000000000000000000000008152600401610e6b90612761565b60405180910390fd5b6001600260008373ffffffffffffffffffffffffffffffffffffffff1673ffffffffffffffffffffffffffffffffffffffff16815260200190815260200160002060006101000a81548160ff0219169083151502179055506001819080600181540180825580915050600190039060005260206000200160009091909190916101000a81548173ffffffffffffffffffffffffffffffffffffffff021916908373ffffffffffffffffffffffffffffffffffffffff1602179055508073ffffffffffffffffffffffffffffffffffffffff167f72114e270de66b9d2710ecf140403e5e99b1574767d6a8197bdc8d807a46e7c760405160405180910390a250565b60026000610f81611641565b73ffffffffffffffffffffffffffffffffffffffff1673ffffffffffffffffffffffffffffffffffffffff16815260200190815260200160002060009054906101000a900460ff16611008576040517f08c379a0000000000000000000000000000000000000000000000000000000008152600401610fff906122cb565b60405180910390fd5b6000888686898b886040516020016110259695949392919061220f565b6040516020818303038152906040528051906020012090506000151560076000838152602001908152602001600020600061105e611641565b73ffffffffffffffffffffffffffffffffffffffff1673ffffffffffffffffffffffffffffffffffffffff16815260200190815260200160002060009054906101000a900460ff161515146110e8576040517f08c379a00000000000000000000000000000000000000000000000000000000081526004016110df906127f3565b60405180910390fd5b81600760008381526020019081526020016000206000611106611641565b73ffffffffffffffffffffffffffffffffffffffff1673ffffffffffffffffffffffffffffffffffffffff16815260200190815260200160002060006101000a81548160ff021916908315150217905550600660008281526020019081526020016000206040518060200160405280858152509080600181540180825580915050600190039060005260206000200160009091909190915060008201518160000190816111b39190612589565b5050506111be611641565b73ffffffffffffffffffffffffffffffffffffffff16817fce56c85627b49e4b4a8f108690c2337d73b5d804aafd560add629afad5ce21d78b8b8b8b8b8b8a8c604051611212989796959493929190612813565b60405180910390a3505050505050505050565b60026000611231611641565b73ffffffffffffffffffffffffffffffffffffffff1673ffffffffffffffffffffffffffffffffffffffff16815260200190815260200160002060009054906101000a900460ff166112b8576040517f08c379a00000000000000000000000000000000000000000000000000000000081526004016112af906122cb565b60405180910390fd5b6000888686898b886040516020016112d59695949392919061220f565b604051602081830303815290604052805190602001209050600015156003600083815260200190815260200160002060009054906101000a900460ff16151514611354576040517f08c379a000000000000000000000000000000000000000000000000000000000815260040161134b9061290a565b60405180910390fd5b826003600083815260200190815260200160002060006101000a81548160ff021916908315150217905550807ff75de4fdeaaecb51b4d0afd82a74214e4dd260a22cdcfc10e1ca5413c84f96fc8a8a8a8a8a8a8a8a6040516113bd98979695949392919061292a565b60405180910390a2505050505050505050565b600560205280600052604060002060009150905080546113ef906123ac565b80601f016020809104026020016040519081016040528092919081815260200182805461141b906123ac565b80156114685780601f1061143d57610100808354040283529160200191611468565b820191906000526020600020905b81548152906001019060200180831161144b57829003601f168201915b505050505081565b6114786114f6565b600073ffffffffffffffffffffffffffffffffffffffff168173ffffffffffffffffffffffffffffffffffffffff16036114ea5760006040517f1e4fbdf70000000000000000000000000000000000000000000000000000000081526004016114e1919061181d565b60405180910390fd5b6114f38161157d565b50565b6114fe611641565b73ffffffffffffffffffffffffffffffffffffffff1661151c61091e565b73ffffffffffffffffffffffffffffffffffffffff161461157b5761153f611641565b6040517f118cdaa7000000000000000000000000000000000000000000000000000000008152600401611572919061181d565b60405180910390fd5b565b60008060009054906101000a900473ffffffffffffffffffffffffffffffffffffffff169050816000806101000a81548173ffffffffffffffffffffffffffffffffffffffff021916908373ffffffffffffffffffffffffffffffffffffffff1602179055508173ffffffffffffffffffffffffffffffffffffffff168173ffffffffffffffffffffffffffffffffffffffff167f8be0079c531659141344cd1fd0a4f28419497f9722a3daafe3b4186f6b6457e060405160405180910390a35050565b600033905090565b6000604051905090565b600080fd5b600080fd5b600073ffffffffffffffffffffffffffffffffffffffff82169050919050565b60006116888261165d565b9050919050565b6116988161167d565b81146116a357600080fd5b50565b6000813590506116b58161168f565b92915050565b6000602082840312156116d1576116d0611653565b5b60006116df848285016116a6565b91505092915050565b6000819050919050565b6116fb816116e8565b811461170657600080fd5b50565b600081359050611718816116f2565b92915050565b60006020828403121561173457611733611653565b5b600061174284828501611709565b91505092915050565b60008115159050919050565b6117608161174b565b82525050565b600060208201905061177b6000830184611757565b92915050565b6000819050919050565b61179481611781565b82525050565b60006020820190506117af600083018461178b565b92915050565b6117be81611781565b81146117c957600080fd5b50565b6000813590506117db816117b5565b92915050565b6000602082840312156117f7576117f6611653565b5b6000611805848285016117cc565b91505092915050565b6118178161167d565b82525050565b6000602082019050611832600083018461180e565b92915050565b6000806040838503121561184f5761184e611653565b5b600061185d85828601611709565b925050602061186e858286016116a6565b9150509250929050565b600081519050919050565b600082825260208201905092915050565b6000819050602082019050919050565b6118ad8161167d565b82525050565b60006118bf83836118a4565b60208301905092915050565b6000602082019050919050565b60006118e382611878565b6118ed8185611883565b93506118f883611894565b8060005b8381101561192957815161191088826118b3565b975061191b836118cb565b9250506001810190506118fc565b5085935050505092915050565b6000602082019050818103600083015261195081846118d8565b905092915050565b6004811061196557600080fd5b50565b60008135905061197781611958565b92915050565b60008060008060008060c0878903121561199a57611999611653565b5b60006119a889828a01611709565b96505060206119b989828a01611709565b95505060406119ca89828a016117cc565b94505060606119db89828a01611709565b93505060806119ec89828a01611709565b92505060a06119fd89828a01611968565b9150509295509295509295565b611a13816116e8565b82525050565b6000602082019050611a2e6000830184611a0a565b92915050565b600080fd5b600080fd5b6000601f19601f8301169050919050565b7f4e487b7100000000000000000000000000000000000000000000000000000000600052604160045260246000fd5b611a8782611a3e565b810181811067ffffffffffffffff82111715611aa657611aa5611a4f565b5b80604052505050565b6000611ab9611649565b9050611ac58282611a7e565b919050565b600067ffffffffffffffff821115611ae557611ae4611a4f565b5b611aee82611a3e565b9050602081019050919050565b82818337600083830152505050565b6000611b1d611b1884611aca565b611aaf565b905082815260208101848484011115611b3957611b38611a39565b5b611b44848285611afb565b509392505050565b600082601f830112611b6157611b60611a34565b5b8135611b71848260208601611b0a565b91505092915050565b600080600080600080600060e0888a031215611b9957611b98611653565b5b6000611ba78a828b01611709565b9750506020611bb88a828b01611709565b9650506040611bc98a828b016117cc565b9550506060611bda8a828b01611709565b9450506080611beb8a828b01611709565b93505060a0611bfc8a828b01611968565b92505060c088013567ffffffffffffffff811115611c1d57611c1c611658565b5b611c298a828b01611b4c565b91505092959891949750929550565b60008060408385031215611c4f57611c4e611653565b5b6000611c5d85828601611709565b9250506020611c6e858286016117cc565b9150509250929050565b600081519050919050565b600082825260208201905092915050565b60005b83811015611cb2578082015181840152602081019050611c97565b60008484015250505050565b6000611cc982611c78565b611cd38185611c83565b9350611ce3818560208601611c94565b611cec81611a3e565b840191505092915050565b60006020820190508181036000830152611d118184611cbe565b905092915050565b611d228161174b565b8114611d2d57600080fd5b50565b600081359050611d3f81611d19565b92915050565b600080600080600080600080610100898b031215611d6657611d65611653565b5b6000611d748b828c01611709565b9850506020611d858b828c01611709565b9750506040611d968b828c016117cc565b9650506060611da78b828c01611709565b9550506080611db88b828c01611709565b94505060a0611dc98b828c01611968565b93505060c089013567ffffffffffffffff811115611dea57611de9611658565b5b611df68b828c01611b4c565b92505060e0611e078b828c01611d30565b9150509295985092959890939650565b600080600080600080600080610100898b031215611e3857611e37611653565b5b6000611e468b828c01611709565b9850506020611e578b828c01611709565b9750506040611e688b828c016117cc565b9650506060611e798b828c01611709565b9550506080611e8a8b828c01611709565b94505060a0611e9b8b828c01611968565b93505060c0611eac8b828c01611d30565b92505060e0611ebd8b828c01611709565b9150509295985092959890939650565b600082825260208201905092915050565b7f486174686f7246656465726174696f6e3a20456d707479206d656d6265720000600082015250565b6000611f14601e83611ecd565b9150611f1f82611ede565b602082019050919050565b60006020820190508181036000830152611f4381611f07565b9050919050565b7f486174686f7246656465726174696f6e3a204d656d62657220646f65736e277460008201527f2065786973740000000000000000000000000000000000000000000000000000602082015250565b6000611fa6602683611ecd565b9150611fb182611f4a565b604082019050919050565b60006020820190508181036000830152611fd581611f99565b9050919050565b7f486174686f7246656465726174696f6e3a2043616e27742072656d6f7665206160008201527f6c6c20746865206d656d62657273000000000000000000000000000000000000602082015250565b6000612038602e83611ecd565b915061204382611fdc565b604082019050919050565b600060208201905081810360008301526120678161202b565b9050919050565b7f4e487b7100000000000000000000000000000000000000000000000000000000600052601160045260246000fd5b60006120a882611781565b91506120b383611781565b92508282039050818111156120cb576120ca61206e565b5b92915050565b7f4e487b7100000000000000000000000000000000000000000000000000000000600052603260045260246000fd5b7f4e487b7100000000000000000000000000000000000000000000000000000000600052603160045260246000fd5b6000819050919050565b61214a612145826116e8565b61212f565b82525050565b6000819050919050565b61216b61216682611781565b612150565b82525050565b7f4e487b7100000000000000000000000000000000000000000000000000000000600052602160045260246000fd5b600481106121b1576121b0612171565b5b50565b60008190506121c2826121a0565b919050565b60006121d2826121b4565b9050919050565b60008160f81b9050919050565b60006121f1826121d9565b9050919050565b612209612204826121c7565b6121e6565b82525050565b600061221b8289612139565b60208201915061222b8288612139565b60208201915061223b8287612139565b60208201915061224b828661215a565b60208201915061225b8285612139565b60208201915061226b82846121f8565b600182019150819050979650505050505050565b7f486174686f7246656465726174696f6e3a204e6f7420466564657261746f7200600082015250565b60006122b5601f83611ecd565b91506122c08261227f565b602082019050919050565b600060208201905081810360008301526122e4816122a8565b9050919050565b7f486174686f7246656465726174696f6e3a20616c72656164792070726f706f7360008201527f6564000000000000000000000000000000000000000000000000000000000000602082015250565b6000612347602283611ecd565b9150612352826122eb565b604082019050919050565b600060208201905081810360008301526123768161233a565b9050919050565b7f4e487b7100000000000000000000000000000000000000000000000000000000600052602260045260246000fd5b600060028204905060018216806123c457607f821691505b6020821081036123d7576123d661237d565b5b50919050565b60008190508160005260206000209050919050565b60006020601f8301049050919050565b600082821b905092915050565b60006008830261243f7fffffffffffffffffffffffffffffffffffffffffffffffffffffffffffffffff82612402565b6124498683612402565b95508019841693508086168417925050509392505050565b6000819050919050565b600061248661248161247c84611781565b612461565b611781565b9050919050565b6000819050919050565b6124a08361246b565b6124b46124ac8261248d565b84845461240f565b825550505050565b600090565b6124c96124bc565b6124d4818484612497565b505050565b5b818110156124f8576124ed6000826124c1565b6001810190506124da565b5050565b601f82111561253d5761250e816123dd565b612517846123f2565b81016020851015612526578190505b61253a612532856123f2565b8301826124d9565b50505b505050565b600082821c905092915050565b600061256060001984600802612542565b1980831691505092915050565b6000612579838361254f565b9150826002028217905092915050565b61259282611c78565b67ffffffffffffffff8111156125ab576125aa611a4f565b5b6125b582546123ac565b6125c08282856124fc565b600060209050601f8311600181146125f357600084156125e1578287015190505b6125eb858261256d565b865550612653565b601f198416612601866123dd565b60005b8281101561262957848901518255600182019150602085019450602081019050612604565b868310156126465784890151612642601f89168261254f565b8355505b6001600288020188555050505b505050505050565b612664816121c7565b82525050565b600061010082019050612680600083018b611a0a565b61268d602083018a611a0a565b61269a604083018961178b565b6126a76060830188611a0a565b6126b46080830187611a0a565b6126c160a083018661265b565b6126ce60c0830185611a0a565b81810360e08301526126e08184611cbe565b90509998505050505050505050565b7f486174686f7246656465726174696f6e3a204d656d62657220616c726561647960008201527f2065786973747300000000000000000000000000000000000000000000000000602082015250565b600061274b602783611ecd565b9150612756826126ef565b604082019050919050565b6000602082019050818103600083015261277a8161273e565b9050919050565b7f486174686f7246656465726174696f6e3a205472616e73616374696f6e20616c60008201527f7265616479207369676e65640000000000000000000000000000000000000000602082015250565b60006127dd602c83611ecd565b91506127e882612781565b604082019050919050565b6000602082019050818103600083015261280c816127d0565b9050919050565b600061010082019050612829600083018b611a0a565b612836602083018a611a0a565b612843604083018961178b565b6128506060830188611a0a565b61285d6080830187611a0a565b61286a60a083018661265b565b61287760c0830185611757565b81810360e08301526128898184611cbe565b90509998505050505050505050565b7f486174686f7246656465726174696f6e3a205472616e73616374696f6e20616c60008201527f72656164792073656e7400000000000000000000000000000000000000000000602082015250565b60006128f4602a83611ecd565b91506128ff82612898565b604082019050919050565b60006020820190508181036000830152612923816128e7565b9050919050565b600061010082019050612940600083018b611a0a565b61294d602083018a611a0a565b61295a604083018961178b565b6129676060830188611a0a565b6129746080830187611a0a565b61298160a083018661265b565b61298e60c0830185611757565b61299b60e0830184611a0a565b999850505050505050505056fea2646970667358221220340c143d2cd6900323b83a527c7160e7d66239eceeb9e90354aa3f458a20a32c64736f6c63430008180033",
  "linkReferences": {},
  "deployedLinkReferences": {}
}